{
	"contracts/baselover.sol": {
		"MyContract": {
			"abi": [
				{
					"inputs": [],
					"stateMutability": "nonpayable",
					"type": "constructor"
				},
				{
					"inputs": [],
					"name": "FailedCall",
					"type": "error"
				},
				{
					"inputs": [
						{
							"internalType": "uint256",
							"name": "balance",
							"type": "uint256"
						},
						{
							"internalType": "uint256",
							"name": "needed",
							"type": "uint256"
						}
					],
					"name": "InsufficientBalance",
					"type": "error"
				},
				{
					"inputs": [
						{
							"internalType": "uint256",
							"name": "requested",
							"type": "uint256"
						},
						{
							"internalType": "uint256",
							"name": "available",
							"type": "uint256"
						}
					],
					"name": "InsufficientBalance",
					"type": "error"
				},
				{
					"inputs": [
						{
							"internalType": "address",
							"name": "owner",
							"type": "address"
						}
					],
					"name": "OwnableInvalidOwner",
					"type": "error"
				},
				{
					"inputs": [
						{
							"internalType": "address",
							"name": "account",
							"type": "address"
						}
					],
					"name": "OwnableUnauthorizedAccount",
					"type": "error"
				},
				{
					"inputs": [
						{
							"internalType": "uint256",
							"name": "value",
							"type": "uint256"
						},
						{
							"internalType": "uint256",
							"name": "length",
							"type": "uint256"
						}
					],
					"name": "StringsInsufficientHexLength",
					"type": "error"
				},
				{
					"anonymous": false,
					"inputs": [
						{
							"indexed": true,
							"internalType": "address",
							"name": "sender",
							"type": "address"
						},
						{
							"indexed": false,
							"internalType": "string",
							"name": "message",
							"type": "string"
						},
						{
							"indexed": false,
							"internalType": "uint256",
							"name": "timestamp",
							"type": "uint256"
						}
					],
					"name": "BaseLoveMessage",
					"type": "event"
				},
				{
					"anonymous": false,
					"inputs": [
						{
							"indexed": true,
							"internalType": "address",
							"name": "previousOwner",
							"type": "address"
						},
						{
							"indexed": true,
							"internalType": "address",
							"name": "newOwner",
							"type": "address"
						}
					],
					"name": "OwnershipTransferred",
					"type": "event"
				},
				{
					"anonymous": false,
					"inputs": [
						{
							"indexed": true,
							"internalType": "address",
							"name": "sender",
							"type": "address"
						},
						{
							"indexed": false,
							"internalType": "uint256",
							"name": "amount",
							"type": "uint256"
						}
					],
					"name": "ReceivedETH",
					"type": "event"
				},
				{
					"anonymous": false,
					"inputs": [
						{
							"indexed": true,
							"internalType": "address",
							"name": "sender",
							"type": "address"
						},
						{
							"indexed": false,
							"internalType": "uint256",
							"name": "amount",
							"type": "uint256"
						}
					],
					"name": "ReceivedFallback",
					"type": "event"
				},
				{
					"anonymous": false,
					"inputs": [
						{
							"indexed": true,
							"internalType": "address",
							"name": "to",
							"type": "address"
						},
						{
							"indexed": false,
							"internalType": "uint256",
							"name": "amount",
							"type": "uint256"
						}
					],
					"name": "Withdrawal",
					"type": "event"
				},
				{
					"stateMutability": "payable",
					"type": "fallback"
				},
				{
					"inputs": [],
					"name": "hellobase",
					"outputs": [],
					"stateMutability": "nonpayable",
					"type": "function"
				},
				{
					"inputs": [],
					"name": "owner",
					"outputs": [
						{
							"internalType": "address",
							"name": "",
							"type": "address"
						}
					],
					"stateMutability": "view",
					"type": "function"
				},
				{
					"inputs": [],
					"name": "renounceOwnership",
					"outputs": [],
					"stateMutability": "nonpayable",
					"type": "function"
				},
				{
					"inputs": [
						{
							"internalType": "address",
							"name": "newOwner",
							"type": "address"
						}
					],
					"name": "transferOwnership",
					"outputs": [],
					"stateMutability": "nonpayable",
					"type": "function"
				},
				{
					"inputs": [
						{
							"internalType": "address payable",
							"name": "_to",
							"type": "address"
						},
						{
							"internalType": "uint256",
							"name": "_amount",
							"type": "uint256"
						}
					],
					"name": "withdrawETH",
					"outputs": [],
					"stateMutability": "nonpayable",
					"type": "function"
				},
				{
					"stateMutability": "payable",
					"type": "receive"
				}
			],
			"devdoc": {
				"errors": {
					"FailedCall()": [
						{
							"details": "A call to an address target failed. The target may have reverted."
						}
					],
					"InsufficientBalance(uint256,uint256)": [
						{
							"details": "The ETH balance of the account is not enough to perform the operation."
						}
					],
					"OwnableInvalidOwner(address)": [
						{
							"details": "The owner is not a valid owner account. (eg. `address(0)`)"
						}
					],
					"OwnableUnauthorizedAccount(address)": [
						{
							"details": "The caller account is not authorized to perform an operation."
						}
					],
					"StringsInsufficientHexLength(uint256,uint256)": [
						{
							"details": "The `value` string doesn't fit in the specified `length`."
						}
					]
				},
				"kind": "dev",
				"methods": {
					"owner()": {
						"details": "Returns the address of the current owner."
					},
					"renounceOwnership()": {
						"details": "Leaves the contract without owner. It will not be possible to call `onlyOwner` functions. Can only be called by the current owner. NOTE: Renouncing ownership will leave the contract without an owner, thereby disabling any functionality that is only available to the owner."
					},
					"transferOwnership(address)": {
						"details": "Transfers ownership of the contract to a new account (`newOwner`). Can only be called by the current owner."
					}
				},
				"version": 1
			},
			"evm": {
				"assembly": "    /* \"contracts/baselover.sol\":216:2013  contract MyContract is Ownable {... */\n  mstore(0x40, 0x80)\n    /* \"contracts/baselover.sol\":323:391  constructor() Ownable(0x82f090BaC915D15b3F361626b58ef2e9751E4324) {} */\n  callvalue\n  dup1\n  iszero\n  tag_1\n  jumpi\n  revert(0x00, 0x00)\ntag_1:\n  pop\n    /* \"contracts/baselover.sol\":345:387  0x82f090BaC915D15b3F361626b58ef2e9751E4324 */\n  0x82f090bac915d15b3f361626b58ef2e9751e4324\n    /* \"@openzeppelin/contracts/access/Ownable.sol\":1297:1298  0 */\n  0x00\n    /* \"@openzeppelin/contracts/access/Ownable.sol\":1273:1299  initialOwner == address(0) */\n  0xffffffffffffffffffffffffffffffffffffffff\n  and\n    /* \"@openzeppelin/contracts/access/Ownable.sol\":1273:1285  initialOwner */\n  dup2\n    /* \"@openzeppelin/contracts/access/Ownable.sol\":1273:1299  initialOwner == address(0) */\n  0xffffffffffffffffffffffffffffffffffffffff\n  and\n  sub\n    /* \"@openzeppelin/contracts/access/Ownable.sol\":1269:1364  if (initialOwner == address(0)) {... */\n  tag_5\n  jumpi\n    /* \"@openzeppelin/contracts/access/Ownable.sol\":1350:1351  0 */\n  0x00\n    /* \"@openzeppelin/contracts/access/Ownable.sol\":1322:1353  OwnableInvalidOwner(address(0)) */\n  mload(0x40)\n  0x1e4fbdf700000000000000000000000000000000000000000000000000000000\n  dup2\n  mstore\n  0x04\n  add\n  tag_6\n  swap2\n  swap1\n  tag_7\n  jump\t// in\ntag_6:\n  mload(0x40)\n  dup1\n  swap2\n  sub\n  swap1\n  revert\n    /* \"@openzeppelin/contracts/access/Ownable.sol\":1269:1364  if (initialOwner == address(0)) {... */\ntag_5:\n    /* \"@openzeppelin/contracts/access/Ownable.sol\":1373:1405  _transferOwnership(initialOwner) */\n  tag_8\n    /* \"@openzeppelin/contracts/access/Ownable.sol\":1392:1404  initialOwner */\n  dup2\n    /* \"@openzeppelin/contracts/access/Ownable.sol\":1373:1391  _transferOwnership */\n  shl(0x20, tag_9)\n    /* \"@openzeppelin/contracts/access/Ownable.sol\":1373:1405  _transferOwnership(initialOwner) */\n  0x20\n  shr\n  jump\t// in\ntag_8:\n    /* \"@openzeppelin/contracts/access/Ownable.sol\":1225:1412  constructor(address initialOwner) {... */\n  pop\n    /* \"contracts/baselover.sol\":216:2013  contract MyContract is Ownable {... */\n  jump(tag_11)\n    /* \"@openzeppelin/contracts/access/Ownable.sol\":2912:3099  function _transferOwnership(address newOwner) internal virtual {... */\ntag_9:\n    /* \"@openzeppelin/contracts/access/Ownable.sol\":2985:3001  address oldOwner */\n  0x00\n    /* \"@openzeppelin/contracts/access/Ownable.sol\":3004:3010  _owner */\n  0x00\n  0x00\n  swap1\n  sload\n  swap1\n  0x0100\n  exp\n  swap1\n  div\n  0xffffffffffffffffffffffffffffffffffffffff\n  and\n    /* \"@openzeppelin/contracts/access/Ownable.sol\":2985:3010  address oldOwner = _owner */\n  swap1\n  pop\n    /* \"@openzeppelin/contracts/access/Ownable.sol\":3029:3037  newOwner */\n  dup2\n    /* \"@openzeppelin/contracts/access/Ownable.sol\":3020:3026  _owner */\n  0x00\n  0x00\n    /* \"@openzeppelin/contracts/access/Ownable.sol\":3020:3037  _owner = newOwner */\n  0x0100\n  exp\n  dup2\n  sload\n  dup2\n  0xffffffffffffffffffffffffffffffffffffffff\n  mul\n  not\n  and\n  swap1\n  dup4\n  0xffffffffffffffffffffffffffffffffffffffff\n  and\n  mul\n  or\n  swap1\n  sstore\n  pop\n    /* \"@openzeppelin/contracts/access/Ownable.sol\":3083:3091  newOwner */\n  dup2\n    /* \"@openzeppelin/contracts/access/Ownable.sol\":3052:3092  OwnershipTransferred(oldOwner, newOwner) */\n  0xffffffffffffffffffffffffffffffffffffffff\n  and\n    /* \"@openzeppelin/contracts/access/Ownable.sol\":3073:3081  oldOwner */\n  dup2\n    /* \"@openzeppelin/contracts/access/Ownable.sol\":3052:3092  OwnershipTransferred(oldOwner, newOwner) */\n  0xffffffffffffffffffffffffffffffffffffffff\n  and\n  0x8be0079c531659141344cd1fd0a4f28419497f9722a3daafe3b4186f6b6457e0\n  mload(0x40)\n  mload(0x40)\n  dup1\n  swap2\n  sub\n  swap1\n  log3\n    /* \"@openzeppelin/contracts/access/Ownable.sol\":2975:3099  {... */\n  pop\n    /* \"@openzeppelin/contracts/access/Ownable.sol\":2912:3099  function _transferOwnership(address newOwner) internal virtual {... */\n  pop\n  jump\t// out\n    /* \"#utility.yul\":7:133   */\ntag_13:\n    /* \"#utility.yul\":44:51   */\n  0x00\n    /* \"#utility.yul\":84:126   */\n  0xffffffffffffffffffffffffffffffffffffffff\n    /* \"#utility.yul\":77:82   */\n  dup3\n    /* \"#utility.yul\":73:127   */\n  and\n    /* \"#utility.yul\":62:127   */\n  swap1\n  pop\n    /* \"#utility.yul\":7:133   */\n  swap2\n  swap1\n  pop\n  jump\t// out\n    /* \"#utility.yul\":139:235   */\ntag_14:\n    /* \"#utility.yul\":176:183   */\n  0x00\n    /* \"#utility.yul\":205:229   */\n  tag_19\n    /* \"#utility.yul\":223:228   */\n  dup3\n    /* \"#utility.yul\":205:229   */\n  tag_13\n  jump\t// in\ntag_19:\n    /* \"#utility.yul\":194:229   */\n  swap1\n  pop\n    /* \"#utility.yul\":139:235   */\n  swap2\n  swap1\n  pop\n  jump\t// out\n    /* \"#utility.yul\":241:359   */\ntag_15:\n    /* \"#utility.yul\":328:352   */\n  tag_21\n    /* \"#utility.yul\":346:351   */\n  dup2\n    /* \"#utility.yul\":328:352   */\n  tag_14\n  jump\t// in\ntag_21:\n    /* \"#utility.yul\":323:326   */\n  dup3\n    /* \"#utility.yul\":316:353   */\n  mstore\n    /* \"#utility.yul\":241:359   */\n  pop\n  pop\n  jump\t// out\n    /* \"#utility.yul\":365:587   */\ntag_7:\n    /* \"#utility.yul\":458:462   */\n  0x00\n    /* \"#utility.yul\":496:498   */\n  0x20\n    /* \"#utility.yul\":485:494   */\n  dup3\n    /* \"#utility.yul\":481:499   */\n  add\n    /* \"#utility.yul\":473:499   */\n  swap1\n  pop\n    /* \"#utility.yul\":509:580   */\n  tag_23\n    /* \"#utility.yul\":577:578   */\n  0x00\n    /* \"#utility.yul\":566:575   */\n  dup4\n    /* \"#utility.yul\":562:579   */\n  add\n    /* \"#utility.yul\":553:559   */\n  dup5\n    /* \"#utility.yul\":509:580   */\n  tag_15\n  jump\t// in\ntag_23:\n    /* \"#utility.yul\":365:587   */\n  swap3\n  swap2\n  pop\n  pop\n  jump\t// out\n    /* \"contracts/baselover.sol\":216:2013  contract MyContract is Ownable {... */\ntag_11:\n  dataSize(sub_0)\n  dup1\n  dataOffset(sub_0)\n  0x00\n  codecopy\n  0x00\n  return\nstop\n\nsub_0: assembly {\n        /* \"contracts/baselover.sol\":216:2013  contract MyContract is Ownable {... */\n      mstore(0x40, 0x80)\n      jumpi(tag_1, lt(calldatasize, 0x04))\n      shr(0xe0, calldataload(0x00))\n      dup1\n      0x4782f779\n      eq\n      tag_3\n      jumpi\n      dup1\n      0x715018a6\n      eq\n      tag_4\n      jumpi\n      dup1\n      0x8da5cb5b\n      eq\n      tag_5\n      jumpi\n      dup1\n      0xf2fde38b\n      eq\n      tag_6\n      jumpi\n      dup1\n      0xf9624d66\n      eq\n      tag_7\n      jumpi\n      jump(tag_2)\n    tag_1:\n      jumpi(tag_2, calldatasize)\n        /* \"contracts/baselover.sol\":946:956  msg.sender */\n      caller\n        /* \"contracts/baselover.sol\":934:968  ReceivedETH(msg.sender, msg.value) */\n      0xffffffffffffffffffffffffffffffffffffffff\n      and\n      0x4103257eaac983ca79a70d28f90dfc4fa16b619bb0c17ee7cab0d4034c279624\n        /* \"contracts/baselover.sol\":958:967  msg.value */\n      callvalue\n        /* \"contracts/baselover.sol\":934:968  ReceivedETH(msg.sender, msg.value) */\n      mload(0x40)\n      tag_10\n      swap2\n      swap1\n      tag_11\n      jump\t// in\n    tag_10:\n      mload(0x40)\n      dup1\n      swap2\n      sub\n      swap1\n      log2\n        /* \"contracts/baselover.sol\":216:2013  contract MyContract is Ownable {... */\n      stop\n    tag_2:\n        /* \"contracts/baselover.sol\":1121:1131  msg.sender */\n      caller\n        /* \"contracts/baselover.sol\":1104:1143  ReceivedFallback(msg.sender, msg.value) */\n      0xffffffffffffffffffffffffffffffffffffffff\n      and\n      0x78c972371203d575d4b76368a154d92bfb45d32a57696487f3334fbbe5042c14\n        /* \"contracts/baselover.sol\":1133:1142  msg.value */\n      callvalue\n        /* \"contracts/baselover.sol\":1104:1143  ReceivedFallback(msg.sender, msg.value) */\n      mload(0x40)\n      tag_14\n      swap2\n      swap1\n      tag_11\n      jump\t// in\n    tag_14:\n      mload(0x40)\n      dup1\n      swap2\n      sub\n      swap1\n      log2\n        /* \"contracts/baselover.sol\":216:2013  contract MyContract is Ownable {... */\n      stop\n        /* \"contracts/baselover.sol\":1674:2011  function withdrawETH(address payable _to, uint256 _amount) external onlyOwner {... */\n    tag_3:\n      callvalue\n      dup1\n      iszero\n      tag_15\n      jumpi\n      revert(0x00, 0x00)\n    tag_15:\n      pop\n      tag_16\n      0x04\n      dup1\n      calldatasize\n      sub\n      dup2\n      add\n      swap1\n      tag_17\n      swap2\n      swap1\n      tag_18\n      jump\t// in\n    tag_17:\n      tag_19\n      jump\t// in\n    tag_16:\n      stop\n        /* \"@openzeppelin/contracts/access/Ownable.sol\":2293:2394  function renounceOwnership() public virtual onlyOwner {... */\n    tag_4:\n      callvalue\n      dup1\n      iszero\n      tag_20\n      jumpi\n      revert(0x00, 0x00)\n    tag_20:\n      pop\n      tag_21\n      tag_22\n      jump\t// in\n    tag_21:\n      stop\n        /* \"@openzeppelin/contracts/access/Ownable.sol\":1638:1723  function owner() public view virtual returns (address) {... */\n    tag_5:\n      callvalue\n      dup1\n      iszero\n      tag_23\n      jumpi\n      revert(0x00, 0x00)\n    tag_23:\n      pop\n      tag_24\n      tag_25\n      jump\t// in\n    tag_24:\n      mload(0x40)\n      tag_26\n      swap2\n      swap1\n      tag_27\n      jump\t// in\n    tag_26:\n      mload(0x40)\n      dup1\n      swap2\n      sub\n      swap1\n      return\n        /* \"@openzeppelin/contracts/access/Ownable.sol\":2543:2758  function transferOwnership(address newOwner) public virtual onlyOwner {... */\n    tag_6:\n      callvalue\n      dup1\n      iszero\n      tag_28\n      jumpi\n      revert(0x00, 0x00)\n    tag_28:\n      pop\n      tag_29\n      0x04\n      dup1\n      calldatasize\n      sub\n      dup2\n      add\n      swap1\n      tag_30\n      swap2\n      swap1\n      tag_31\n      jump\t// in\n    tag_30:\n      tag_32\n      jump\t// in\n    tag_29:\n      stop\n        /* \"contracts/baselover.sol\":1195:1643  function hellobase() public onlyOwner { // Use `onlyOwner` from OpenZeppelin... */\n    tag_7:\n      callvalue\n      dup1\n      iszero\n      tag_33\n      jumpi\n      revert(0x00, 0x00)\n    tag_33:\n      pop\n      tag_34\n      tag_35\n      jump\t// in\n    tag_34:\n      stop\n        /* \"contracts/baselover.sol\":1674:2011  function withdrawETH(address payable _to, uint256 _amount) external onlyOwner {... */\n    tag_19:\n        /* \"@openzeppelin/contracts/access/Ownable.sol\":1531:1544  _checkOwner() */\n      tag_37\n        /* \"@openzeppelin/contracts/access/Ownable.sol\":1531:1542  _checkOwner */\n      tag_38\n        /* \"@openzeppelin/contracts/access/Ownable.sol\":1531:1544  _checkOwner() */\n      jump\t// in\n    tag_37:\n        /* \"contracts/baselover.sol\":1833:1840  _amount */\n      dup1\n        /* \"contracts/baselover.sol\":1809:1830  address(this).balance */\n      selfbalance\n        /* \"contracts/baselover.sol\":1809:1840  address(this).balance < _amount */\n      lt\n        /* \"contracts/baselover.sol\":1805:1925  if (address(this).balance < _amount) {... */\n      iszero\n      tag_40\n      jumpi\n        /* \"contracts/baselover.sol\":1883:1890  _amount */\n      dup1\n        /* \"contracts/baselover.sol\":1892:1913  address(this).balance */\n      selfbalance\n        /* \"contracts/baselover.sol\":1863:1914  InsufficientBalance(_amount, address(this).balance) */\n      mload(0x40)\n      0xcf47918100000000000000000000000000000000000000000000000000000000\n      dup2\n      mstore\n      0x04\n      add\n      tag_41\n      swap3\n      swap2\n      swap1\n      tag_42\n      jump\t// in\n    tag_41:\n      mload(0x40)\n      dup1\n      swap2\n      sub\n      swap1\n      revert\n        /* \"contracts/baselover.sol\":1805:1925  if (address(this).balance < _amount) {... */\n    tag_40:\n        /* \"contracts/baselover.sol\":1943:1965  _to.sendValue(_amount) */\n      tag_43\n        /* \"contracts/baselover.sol\":1957:1964  _amount */\n      dup2\n        /* \"contracts/baselover.sol\":1943:1946  _to */\n      dup4\n        /* \"contracts/baselover.sol\":1943:1956  _to.sendValue */\n      0xffffffffffffffffffffffffffffffffffffffff\n      and\n      tag_44\n      swap1\n        /* \"contracts/baselover.sol\":1943:1965  _to.sendValue(_amount) */\n      swap2\n      swap1\n      0xffffffff\n      and\n      jump\t// in\n    tag_43:\n        /* \"contracts/baselover.sol\":1991:1994  _to */\n      dup2\n        /* \"contracts/baselover.sol\":1980:2004  Withdrawal(_to, _amount) */\n      0xffffffffffffffffffffffffffffffffffffffff\n      and\n      0x7fcf532c15f0a6db0bd6d0e038bea71d30d808c7d98cb3bf7268a95bf5081b65\n        /* \"contracts/baselover.sol\":1996:2003  _amount */\n      dup3\n        /* \"contracts/baselover.sol\":1980:2004  Withdrawal(_to, _amount) */\n      mload(0x40)\n      tag_45\n      swap2\n      swap1\n      tag_11\n      jump\t// in\n    tag_45:\n      mload(0x40)\n      dup1\n      swap2\n      sub\n      swap1\n      log2\n        /* \"contracts/baselover.sol\":1674:2011  function withdrawETH(address payable _to, uint256 _amount) external onlyOwner {... */\n      pop\n      pop\n      jump\t// out\n        /* \"@openzeppelin/contracts/access/Ownable.sol\":2293:2394  function renounceOwnership() public virtual onlyOwner {... */\n    tag_22:\n        /* \"@openzeppelin/contracts/access/Ownable.sol\":1531:1544  _checkOwner() */\n      tag_47\n        /* \"@openzeppelin/contracts/access/Ownable.sol\":1531:1542  _checkOwner */\n      tag_38\n        /* \"@openzeppelin/contracts/access/Ownable.sol\":1531:1544  _checkOwner() */\n      jump\t// in\n    tag_47:\n        /* \"@openzeppelin/contracts/access/Ownable.sol\":2357:2387  _transferOwnership(address(0)) */\n      tag_49\n        /* \"@openzeppelin/contracts/access/Ownable.sol\":2384:2385  0 */\n      0x00\n        /* \"@openzeppelin/contracts/access/Ownable.sol\":2357:2375  _transferOwnership */\n      tag_50\n        /* \"@openzeppelin/contracts/access/Ownable.sol\":2357:2387  _transferOwnership(address(0)) */\n      jump\t// in\n    tag_49:\n        /* \"@openzeppelin/contracts/access/Ownable.sol\":2293:2394  function renounceOwnership() public virtual onlyOwner {... */\n      jump\t// out\n        /* \"@openzeppelin/contracts/access/Ownable.sol\":1638:1723  function owner() public view virtual returns (address) {... */\n    tag_25:\n        /* \"@openzeppelin/contracts/access/Ownable.sol\":1684:1691  address */\n      0x00\n        /* \"@openzeppelin/contracts/access/Ownable.sol\":1710:1716  _owner */\n      0x00\n      0x00\n      swap1\n      sload\n      swap1\n      0x0100\n      exp\n      swap1\n      div\n      0xffffffffffffffffffffffffffffffffffffffff\n      and\n        /* \"@openzeppelin/contracts/access/Ownable.sol\":1703:1716  return _owner */\n      swap1\n      pop\n        /* \"@openzeppelin/contracts/access/Ownable.sol\":1638:1723  function owner() public view virtual returns (address) {... */\n      swap1\n      jump\t// out\n        /* \"@openzeppelin/contracts/access/Ownable.sol\":2543:2758  function transferOwnership(address newOwner) public virtual onlyOwner {... */\n    tag_32:\n        /* \"@openzeppelin/contracts/access/Ownable.sol\":1531:1544  _checkOwner() */\n      tag_53\n        /* \"@openzeppelin/contracts/access/Ownable.sol\":1531:1542  _checkOwner */\n      tag_38\n        /* \"@openzeppelin/contracts/access/Ownable.sol\":1531:1544  _checkOwner() */\n      jump\t// in\n    tag_53:\n        /* \"@openzeppelin/contracts/access/Ownable.sol\":2647:2648  0 */\n      0x00\n        /* \"@openzeppelin/contracts/access/Ownable.sol\":2627:2649  newOwner == address(0) */\n      0xffffffffffffffffffffffffffffffffffffffff\n      and\n        /* \"@openzeppelin/contracts/access/Ownable.sol\":2627:2635  newOwner */\n      dup2\n        /* \"@openzeppelin/contracts/access/Ownable.sol\":2627:2649  newOwner == address(0) */\n      0xffffffffffffffffffffffffffffffffffffffff\n      and\n      sub\n        /* \"@openzeppelin/contracts/access/Ownable.sol\":2623:2714  if (newOwner == address(0)) {... */\n      tag_55\n      jumpi\n        /* \"@openzeppelin/contracts/access/Ownable.sol\":2700:2701  0 */\n      0x00\n        /* \"@openzeppelin/contracts/access/Ownable.sol\":2672:2703  OwnableInvalidOwner(address(0)) */\n      mload(0x40)\n      0x1e4fbdf700000000000000000000000000000000000000000000000000000000\n      dup2\n      mstore\n      0x04\n      add\n      tag_56\n      swap2\n      swap1\n      tag_27\n      jump\t// in\n    tag_56:\n      mload(0x40)\n      dup1\n      swap2\n      sub\n      swap1\n      revert\n        /* \"@openzeppelin/contracts/access/Ownable.sol\":2623:2714  if (newOwner == address(0)) {... */\n    tag_55:\n        /* \"@openzeppelin/contracts/access/Ownable.sol\":2723:2751  _transferOwnership(newOwner) */\n      tag_57\n        /* \"@openzeppelin/contracts/access/Ownable.sol\":2742:2750  newOwner */\n      dup2\n        /* \"@openzeppelin/contracts/access/Ownable.sol\":2723:2741  _transferOwnership */\n      tag_50\n        /* \"@openzeppelin/contracts/access/Ownable.sol\":2723:2751  _transferOwnership(newOwner) */\n      jump\t// in\n    tag_57:\n        /* \"@openzeppelin/contracts/access/Ownable.sol\":2543:2758  function transferOwnership(address newOwner) public virtual onlyOwner {... */\n      pop\n      jump\t// out\n        /* \"contracts/baselover.sol\":1195:1643  function hellobase() public onlyOwner { // Use `onlyOwner` from OpenZeppelin... */\n    tag_35:\n        /* \"@openzeppelin/contracts/access/Ownable.sol\":1531:1544  _checkOwner() */\n      tag_59\n        /* \"@openzeppelin/contracts/access/Ownable.sol\":1531:1542  _checkOwner */\n      tag_38\n        /* \"@openzeppelin/contracts/access/Ownable.sol\":1531:1544  _checkOwner() */\n      jump\t// in\n    tag_59:\n        /* \"contracts/baselover.sol\":1280:1294  address sender */\n      0x00\n        /* \"contracts/baselover.sol\":1297:1307  msg.sender */\n      caller\n        /* \"contracts/baselover.sol\":1280:1307  address sender = msg.sender */\n      swap1\n      pop\n        /* \"contracts/baselover.sol\":1317:1341  uint256 currentTimestamp */\n      0x00\n        /* \"contracts/baselover.sol\":1344:1359  block.timestamp */\n      timestamp\n        /* \"contracts/baselover.sol\":1317:1359  uint256 currentTimestamp = block.timestamp */\n      swap1\n      pop\n        /* \"contracts/baselover.sol\":1369:1390  string memory message */\n      0x00\n        /* \"contracts/baselover.sol\":1420:1447  Strings.toHexString(sender) */\n      tag_61\n        /* \"contracts/baselover.sol\":1440:1446  sender */\n      dup4\n        /* \"contracts/baselover.sol\":1420:1439  Strings.toHexString */\n      tag_62\n        /* \"contracts/baselover.sol\":1420:1447  Strings.toHexString(sender) */\n      jump\t// in\n    tag_61:\n        /* \"contracts/baselover.sol\":1534:1561  currentTimestamp.toString() */\n      tag_63\n        /* \"contracts/baselover.sol\":1534:1550  currentTimestamp */\n      dup4\n        /* \"contracts/baselover.sol\":1534:1559  currentTimestamp.toString */\n      tag_64\n        /* \"contracts/baselover.sol\":1534:1561  currentTimestamp.toString() */\n      jump\t// in\n    tag_63:\n        /* \"contracts/baselover.sol\":1393:1571  string.concat(... */\n      add(0x20, mload(0x40))\n      tag_65\n      swap3\n      swap2\n      swap1\n      tag_66\n      jump\t// in\n    tag_65:\n      mload(0x40)\n      0x20\n      dup2\n      dup4\n      sub\n      sub\n      dup2\n      mstore\n      swap1\n      0x40\n      mstore\n        /* \"contracts/baselover.sol\":1369:1571  string memory message = string.concat(... */\n      swap1\n      pop\n        /* \"contracts/baselover.sol\":1602:1608  sender */\n      dup3\n        /* \"contracts/baselover.sol\":1586:1636  BaseLoveMessage(sender, message, currentTimestamp) */\n      0xffffffffffffffffffffffffffffffffffffffff\n      and\n      0x23d3b59785717e0022eeb4456f509a4494dfa94d2c76b69373ec74d80fa4aca7\n        /* \"contracts/baselover.sol\":1610:1617  message */\n      dup3\n        /* \"contracts/baselover.sol\":1619:1635  currentTimestamp */\n      dup5\n        /* \"contracts/baselover.sol\":1586:1636  BaseLoveMessage(sender, message, currentTimestamp) */\n      mload(0x40)\n      tag_67\n      swap3\n      swap2\n      swap1\n      tag_68\n      jump\t// in\n    tag_67:\n      mload(0x40)\n      dup1\n      swap2\n      sub\n      swap1\n      log2\n        /* \"contracts/baselover.sol\":1233:1643  { // Use `onlyOwner` from OpenZeppelin... */\n      pop\n      pop\n      pop\n        /* \"contracts/baselover.sol\":1195:1643  function hellobase() public onlyOwner { // Use `onlyOwner` from OpenZeppelin... */\n      jump\t// out\n        /* \"@openzeppelin/contracts/access/Ownable.sol\":1796:1958  function _checkOwner() internal view virtual {... */\n    tag_38:\n        /* \"@openzeppelin/contracts/access/Ownable.sol\":1866:1878  _msgSender() */\n      tag_70\n        /* \"@openzeppelin/contracts/access/Ownable.sol\":1866:1876  _msgSender */\n      tag_71\n        /* \"@openzeppelin/contracts/access/Ownable.sol\":1866:1878  _msgSender() */\n      jump\t// in\n    tag_70:\n        /* \"@openzeppelin/contracts/access/Ownable.sol\":1855:1878  owner() != _msgSender() */\n      0xffffffffffffffffffffffffffffffffffffffff\n      and\n        /* \"@openzeppelin/contracts/access/Ownable.sol\":1855:1862  owner() */\n      tag_72\n        /* \"@openzeppelin/contracts/access/Ownable.sol\":1855:1860  owner */\n      tag_25\n        /* \"@openzeppelin/contracts/access/Ownable.sol\":1855:1862  owner() */\n      jump\t// in\n    tag_72:\n        /* \"@openzeppelin/contracts/access/Ownable.sol\":1855:1878  owner() != _msgSender() */\n      0xffffffffffffffffffffffffffffffffffffffff\n      and\n      eq\n        /* \"@openzeppelin/contracts/access/Ownable.sol\":1851:1952  if (owner() != _msgSender()) {... */\n      tag_73\n      jumpi\n        /* \"@openzeppelin/contracts/access/Ownable.sol\":1928:1940  _msgSender() */\n      tag_74\n        /* \"@openzeppelin/contracts/access/Ownable.sol\":1928:1938  _msgSender */\n      tag_71\n        /* \"@openzeppelin/contracts/access/Ownable.sol\":1928:1940  _msgSender() */\n      jump\t// in\n    tag_74:\n        /* \"@openzeppelin/contracts/access/Ownable.sol\":1901:1941  OwnableUnauthorizedAccount(_msgSender()) */\n      mload(0x40)\n      0x118cdaa700000000000000000000000000000000000000000000000000000000\n      dup2\n      mstore\n      0x04\n      add\n      tag_75\n      swap2\n      swap1\n      tag_27\n      jump\t// in\n    tag_75:\n      mload(0x40)\n      dup1\n      swap2\n      sub\n      swap1\n      revert\n        /* \"@openzeppelin/contracts/access/Ownable.sol\":1851:1952  if (owner() != _msgSender()) {... */\n    tag_73:\n        /* \"@openzeppelin/contracts/access/Ownable.sol\":1796:1958  function _checkOwner() internal view virtual {... */\n      jump\t// out\n        /* \"@openzeppelin/contracts/utils/Address.sol\":1290:1655  function sendValue(address payable recipient, uint256 amount) internal {... */\n    tag_44:\n        /* \"@openzeppelin/contracts/utils/Address.sol\":1399:1405  amount */\n      dup1\n        /* \"@openzeppelin/contracts/utils/Address.sol\":1375:1396  address(this).balance */\n      selfbalance\n        /* \"@openzeppelin/contracts/utils/Address.sol\":1375:1405  address(this).balance < amount */\n      lt\n        /* \"@openzeppelin/contracts/utils/Address.sol\":1371:1496  if (address(this).balance < amount) {... */\n      iszero\n      tag_77\n      jumpi\n        /* \"@openzeppelin/contracts/utils/Address.sol\":1455:1476  address(this).balance */\n      selfbalance\n        /* \"@openzeppelin/contracts/utils/Address.sol\":1478:1484  amount */\n      dup2\n        /* \"@openzeppelin/contracts/utils/Address.sol\":1428:1485  Errors.InsufficientBalance(address(this).balance, amount) */\n      mload(0x40)\n      0xcf47918100000000000000000000000000000000000000000000000000000000\n      dup2\n      mstore\n      0x04\n      add\n      tag_78\n      swap3\n      swap2\n      swap1\n      tag_42\n      jump\t// in\n    tag_78:\n      mload(0x40)\n      dup1\n      swap2\n      sub\n      swap1\n      revert\n        /* \"@openzeppelin/contracts/utils/Address.sol\":1371:1496  if (address(this).balance < amount) {... */\n    tag_77:\n        /* \"@openzeppelin/contracts/utils/Address.sol\":1507:1519  bool success */\n      0x00\n        /* \"@openzeppelin/contracts/utils/Address.sol\":1521:1544  bytes memory returndata */\n      0x00\n        /* \"@openzeppelin/contracts/utils/Address.sol\":1548:1557  recipient */\n      dup4\n        /* \"@openzeppelin/contracts/utils/Address.sol\":1548:1562  recipient.call */\n      0xffffffffffffffffffffffffffffffffffffffff\n      and\n        /* \"@openzeppelin/contracts/utils/Address.sol\":1570:1576  amount */\n      dup4\n        /* \"@openzeppelin/contracts/utils/Address.sol\":1548:1581  recipient.call{value: amount}(\"\") */\n      mload(0x40)\n      tag_79\n      swap1\n      tag_80\n      jump\t// in\n    tag_79:\n      0x00\n      mload(0x40)\n      dup1\n      dup4\n      sub\n      dup2\n      dup6\n      dup8\n      gas\n      call\n      swap3\n      pop\n      pop\n      pop\n      returndatasize\n      dup1\n      0x00\n      dup2\n      eq\n      tag_83\n      jumpi\n      mload(0x40)\n      swap2\n      pop\n      and(add(returndatasize, 0x3f), not(0x1f))\n      dup3\n      add\n      0x40\n      mstore\n      returndatasize\n      dup3\n      mstore\n      returndatasize\n      0x00\n      0x20\n      dup5\n      add\n      returndatacopy\n      jump(tag_82)\n    tag_83:\n      0x60\n      swap2\n      pop\n    tag_82:\n      pop\n        /* \"@openzeppelin/contracts/utils/Address.sol\":1506:1581  (bool success, bytes memory returndata) = recipient.call{value: amount}(\"\") */\n      swap2\n      pop\n      swap2\n      pop\n        /* \"@openzeppelin/contracts/utils/Address.sol\":1596:1603  success */\n      dup2\n        /* \"@openzeppelin/contracts/utils/Address.sol\":1591:1649  if (!success) {... */\n      tag_84\n      jumpi\n        /* \"@openzeppelin/contracts/utils/Address.sol\":1619:1638  _revert(returndata) */\n      tag_85\n        /* \"@openzeppelin/contracts/utils/Address.sol\":1627:1637  returndata */\n      dup2\n        /* \"@openzeppelin/contracts/utils/Address.sol\":1619:1626  _revert */\n      tag_86\n        /* \"@openzeppelin/contracts/utils/Address.sol\":1619:1638  _revert(returndata) */\n      jump\t// in\n    tag_85:\n        /* \"@openzeppelin/contracts/utils/Address.sol\":1591:1649  if (!success) {... */\n    tag_84:\n        /* \"@openzeppelin/contracts/utils/Address.sol\":1361:1655  {... */\n      pop\n      pop\n        /* \"@openzeppelin/contracts/utils/Address.sol\":1290:1655  function sendValue(address payable recipient, uint256 amount) internal {... */\n      pop\n      pop\n      jump\t// out\n        /* \"@openzeppelin/contracts/access/Ownable.sol\":2912:3099  function _transferOwnership(address newOwner) internal virtual {... */\n    tag_50:\n        /* \"@openzeppelin/contracts/access/Ownable.sol\":2985:3001  address oldOwner */\n      0x00\n        /* \"@openzeppelin/contracts/access/Ownable.sol\":3004:3010  _owner */\n      0x00\n      0x00\n      swap1\n      sload\n      swap1\n      0x0100\n      exp\n      swap1\n      div\n      0xffffffffffffffffffffffffffffffffffffffff\n      and\n        /* \"@openzeppelin/contracts/access/Ownable.sol\":2985:3010  address oldOwner = _owner */\n      swap1\n      pop\n        /* \"@openzeppelin/contracts/access/Ownable.sol\":3029:3037  newOwner */\n      dup2\n        /* \"@openzeppelin/contracts/access/Ownable.sol\":3020:3026  _owner */\n      0x00\n      0x00\n        /* \"@openzeppelin/contracts/access/Ownable.sol\":3020:3037  _owner = newOwner */\n      0x0100\n      exp\n      dup2\n      sload\n      dup2\n      0xffffffffffffffffffffffffffffffffffffffff\n      mul\n      not\n      and\n      swap1\n      dup4\n      0xffffffffffffffffffffffffffffffffffffffff\n      and\n      mul\n      or\n      swap1\n      sstore\n      pop\n        /* \"@openzeppelin/contracts/access/Ownable.sol\":3083:3091  newOwner */\n      dup2\n        /* \"@openzeppelin/contracts/access/Ownable.sol\":3052:3092  OwnershipTransferred(oldOwner, newOwner) */\n      0xffffffffffffffffffffffffffffffffffffffff\n      and\n        /* \"@openzeppelin/contracts/access/Ownable.sol\":3073:3081  oldOwner */\n      dup2\n        /* \"@openzeppelin/contracts/access/Ownable.sol\":3052:3092  OwnershipTransferred(oldOwner, newOwner) */\n      0xffffffffffffffffffffffffffffffffffffffff\n      and\n      0x8be0079c531659141344cd1fd0a4f28419497f9722a3daafe3b4186f6b6457e0\n      mload(0x40)\n      mload(0x40)\n      dup1\n      swap2\n      sub\n      swap1\n      log3\n        /* \"@openzeppelin/contracts/access/Ownable.sol\":2975:3099  {... */\n      pop\n        /* \"@openzeppelin/contracts/access/Ownable.sol\":2912:3099  function _transferOwnership(address newOwner) internal virtual {... */\n      pop\n      jump\t// out\n        /* \"@openzeppelin/contracts/utils/Strings.sol\":3296:3444  function toHexString(address addr) internal pure returns (string memory) {... */\n    tag_62:\n        /* \"@openzeppelin/contracts/utils/Strings.sol\":3354:3367  string memory */\n      0x60\n        /* \"@openzeppelin/contracts/utils/Strings.sol\":3386:3437  toHexString(uint256(uint160(addr)), ADDRESS_LENGTH) */\n      tag_89\n        /* \"@openzeppelin/contracts/utils/Strings.sol\":3414:3418  addr */\n      dup3\n        /* \"@openzeppelin/contracts/utils/Strings.sol\":3398:3420  uint256(uint160(addr)) */\n      0xffffffffffffffffffffffffffffffffffffffff\n      and\n        /* \"@openzeppelin/contracts/utils/Strings.sol\":448:450  20 */\n      0x14\n        /* \"@openzeppelin/contracts/utils/Strings.sol\":3386:3437  toHexString(uint256(uint160(addr)), ADDRESS_LENGTH) */\n      0xff\n      and\n        /* \"@openzeppelin/contracts/utils/Strings.sol\":3386:3397  toHexString */\n      tag_90\n        /* \"@openzeppelin/contracts/utils/Strings.sol\":3386:3437  toHexString(uint256(uint160(addr)), ADDRESS_LENGTH) */\n      jump\t// in\n    tag_89:\n        /* \"@openzeppelin/contracts/utils/Strings.sol\":3379:3437  return toHexString(uint256(uint160(addr)), ADDRESS_LENGTH) */\n      swap1\n      pop\n        /* \"@openzeppelin/contracts/utils/Strings.sol\":3296:3444  function toHexString(address addr) internal pure returns (string memory) {... */\n      swap2\n      swap1\n      pop\n      jump\t// out\n        /* \"@openzeppelin/contracts/utils/Strings.sol\":1308:1942  function toString(uint256 value) internal pure returns (string memory) {... */\n    tag_64:\n        /* \"@openzeppelin/contracts/utils/Strings.sol\":1364:1377  string memory */\n      0x60\n        /* \"@openzeppelin/contracts/utils/Strings.sol\":1413:1427  uint256 length */\n      0x00\n        /* \"@openzeppelin/contracts/utils/Strings.sol\":1450:1451  1 */\n      0x01\n        /* \"@openzeppelin/contracts/utils/Strings.sol\":1430:1447  Math.log10(value) */\n      tag_92\n        /* \"@openzeppelin/contracts/utils/Strings.sol\":1441:1446  value */\n      dup5\n        /* \"@openzeppelin/contracts/utils/Strings.sol\":1430:1440  Math.log10 */\n      tag_93\n        /* \"@openzeppelin/contracts/utils/Strings.sol\":1430:1447  Math.log10(value) */\n      jump\t// in\n    tag_92:\n        /* \"@openzeppelin/contracts/utils/Strings.sol\":1430:1451  Math.log10(value) + 1 */\n      add\n        /* \"@openzeppelin/contracts/utils/Strings.sol\":1413:1451  uint256 length = Math.log10(value) + 1 */\n      swap1\n      pop\n        /* \"@openzeppelin/contracts/utils/Strings.sol\":1465:1485  string memory buffer */\n      0x00\n        /* \"@openzeppelin/contracts/utils/Strings.sol\":1499:1505  length */\n      dup2\n        /* \"@openzeppelin/contracts/utils/Strings.sol\":1488:1506  new string(length) */\n      0xffffffffffffffff\n      dup2\n      gt\n      iszero\n      tag_94\n      jumpi\n      tag_95\n      tag_96\n      jump\t// in\n    tag_95:\n    tag_94:\n      mload(0x40)\n      swap1\n      dup1\n      dup3\n      mstore\n      dup1\n      0x1f\n      add\n      not(0x1f)\n      and\n      0x20\n      add\n      dup3\n      add\n      0x40\n      mstore\n      dup1\n      iszero\n      tag_97\n      jumpi\n      dup2\n      0x20\n      add\n      0x01\n      dup3\n      mul\n      dup1\n      calldatasize\n      dup4\n      calldatacopy\n      dup1\n      dup3\n      add\n      swap2\n      pop\n      pop\n      swap1\n      pop\n    tag_97:\n      pop\n        /* \"@openzeppelin/contracts/utils/Strings.sol\":1465:1506  string memory buffer = new string(length) */\n      swap1\n      pop\n        /* \"@openzeppelin/contracts/utils/Strings.sol\":1520:1531  uint256 ptr */\n      0x00\n        /* \"@openzeppelin/contracts/utils/Strings.sol\":1618:1624  length */\n      dup3\n        /* \"@openzeppelin/contracts/utils/Strings.sol\":1611:1615  0x20 */\n      0x20\n        /* \"@openzeppelin/contracts/utils/Strings.sol\":1603:1609  buffer */\n      dup4\n        /* \"@openzeppelin/contracts/utils/Strings.sol\":1599:1616  add(buffer, 0x20) */\n      add\n        /* \"@openzeppelin/contracts/utils/Strings.sol\":1595:1625  add(add(buffer, 0x20), length) */\n      add\n        /* \"@openzeppelin/contracts/utils/Strings.sol\":1588:1625  ptr := add(add(buffer, 0x20), length) */\n      swap1\n      pop\n        /* \"@openzeppelin/contracts/utils/Strings.sol\":1652:1899  while (true) {... */\n    tag_98:\n        /* \"@openzeppelin/contracts/utils/Strings.sol\":1659:1663  true */\n      0x01\n        /* \"@openzeppelin/contracts/utils/Strings.sol\":1652:1899  while (true) {... */\n      iszero\n      tag_99\n      jumpi\n        /* \"@openzeppelin/contracts/utils/Strings.sol\":1683:1688  ptr-- */\n      dup1\n      dup1\n      0x01\n      swap1\n      sub\n      swap2\n      pop\n      pop\n        /* \"@openzeppelin/contracts/utils/Strings.sol\":1787:1797  HEX_DIGITS */\n      0x3031323334353637383961626364656600000000000000000000000000000000\n        /* \"@openzeppelin/contracts/utils/Strings.sol\":1782:1784  10 */\n      0x0a\n        /* \"@openzeppelin/contracts/utils/Strings.sol\":1775:1780  value */\n      dup7\n        /* \"@openzeppelin/contracts/utils/Strings.sol\":1771:1785  mod(value, 10) */\n      mod\n        /* \"@openzeppelin/contracts/utils/Strings.sol\":1766:1798  byte(mod(value, 10), HEX_DIGITS) */\n      byte\n        /* \"@openzeppelin/contracts/utils/Strings.sol\":1761:1764  ptr */\n      dup2\n        /* \"@openzeppelin/contracts/utils/Strings.sol\":1753:1799  mstore8(ptr, byte(mod(value, 10), HEX_DIGITS)) */\n      mstore8\n        /* \"@openzeppelin/contracts/utils/Strings.sol\":1843:1845  10 */\n      0x0a\n        /* \"@openzeppelin/contracts/utils/Strings.sol\":1834:1845  value /= 10 */\n      dup6\n      dup2\n      tag_100\n      jumpi\n      tag_101\n      tag_102\n      jump\t// in\n    tag_101:\n    tag_100:\n      div\n      swap5\n      pop\n        /* \"@openzeppelin/contracts/utils/Strings.sol\":1876:1877  0 */\n      0x00\n        /* \"@openzeppelin/contracts/utils/Strings.sol\":1867:1872  value */\n      dup6\n        /* \"@openzeppelin/contracts/utils/Strings.sol\":1867:1877  value == 0 */\n      sub\n        /* \"@openzeppelin/contracts/utils/Strings.sol\":1652:1899  while (true) {... */\n      tag_98\n        /* \"@openzeppelin/contracts/utils/Strings.sol\":1863:1884  if (value == 0) break */\n      jumpi\n        /* \"@openzeppelin/contracts/utils/Strings.sol\":1652:1899  while (true) {... */\n    tag_99:\n        /* \"@openzeppelin/contracts/utils/Strings.sol\":1919:1925  buffer */\n      dup2\n        /* \"@openzeppelin/contracts/utils/Strings.sol\":1912:1925  return buffer */\n      swap4\n      pop\n      pop\n      pop\n      pop\n        /* \"@openzeppelin/contracts/utils/Strings.sol\":1308:1942  function toString(uint256 value) internal pure returns (string memory) {... */\n      swap2\n      swap1\n      pop\n      jump\t// out\n        /* \"@openzeppelin/contracts/utils/Context.sol\":656:752  function _msgSender() internal view virtual returns (address) {... */\n    tag_71:\n        /* \"@openzeppelin/contracts/utils/Context.sol\":709:716  address */\n      0x00\n        /* \"@openzeppelin/contracts/utils/Context.sol\":735:745  msg.sender */\n      caller\n        /* \"@openzeppelin/contracts/utils/Context.sol\":728:745  return msg.sender */\n      swap1\n      pop\n        /* \"@openzeppelin/contracts/utils/Context.sol\":656:752  function _msgSender() internal view virtual returns (address) {... */\n      swap1\n      jump\t// out\n        /* \"@openzeppelin/contracts/utils/Address.sol\":5559:5993  function _revert(bytes memory returndata) private pure {... */\n    tag_86:\n        /* \"@openzeppelin/contracts/utils/Address.sol\":5710:5711  0 */\n      0x00\n        /* \"@openzeppelin/contracts/utils/Address.sol\":5690:5700  returndata */\n      dup2\n        /* \"@openzeppelin/contracts/utils/Address.sol\":5690:5707  returndata.length */\n      mload\n        /* \"@openzeppelin/contracts/utils/Address.sol\":5690:5711  returndata.length > 0 */\n      gt\n        /* \"@openzeppelin/contracts/utils/Address.sol\":5686:5987  if (returndata.length > 0) {... */\n      iszero\n      tag_106\n      jumpi\n        /* \"@openzeppelin/contracts/utils/Address.sol\":5894:5904  returndata */\n      dup1\n        /* \"@openzeppelin/contracts/utils/Address.sol\":5888:5905  mload(returndata) */\n      mload\n        /* \"@openzeppelin/contracts/utils/Address.sol\":5881:5885  0x20 */\n      0x20\n        /* \"@openzeppelin/contracts/utils/Address.sol\":5869:5879  returndata */\n      dup3\n        /* \"@openzeppelin/contracts/utils/Address.sol\":5865:5886  add(returndata, 0x20) */\n      add\n        /* \"@openzeppelin/contracts/utils/Address.sol\":5858:5906  revert(add(returndata, 0x20), mload(returndata)) */\n      revert\n        /* \"@openzeppelin/contracts/utils/Address.sol\":5686:5987  if (returndata.length > 0) {... */\n    tag_106:\n        /* \"@openzeppelin/contracts/utils/Address.sol\":5957:5976  Errors.FailedCall() */\n      mload(0x40)\n      0xd6bda27500000000000000000000000000000000000000000000000000000000\n      dup2\n      mstore\n      0x04\n      add\n      mload(0x40)\n      dup1\n      swap2\n      sub\n      swap1\n      revert\n        /* \"@openzeppelin/contracts/utils/Strings.sol\":2612:3137  function toHexString(uint256 value, uint256 length) internal pure returns (string memory) {... */\n    tag_90:\n        /* \"@openzeppelin/contracts/utils/Strings.sol\":2687:2700  string memory */\n      0x60\n        /* \"@openzeppelin/contracts/utils/Strings.sol\":2712:2730  uint256 localValue */\n      0x00\n        /* \"@openzeppelin/contracts/utils/Strings.sol\":2733:2738  value */\n      dup4\n        /* \"@openzeppelin/contracts/utils/Strings.sol\":2712:2738  uint256 localValue = value */\n      swap1\n      pop\n        /* \"@openzeppelin/contracts/utils/Strings.sol\":2748:2767  bytes memory buffer */\n      0x00\n        /* \"@openzeppelin/contracts/utils/Strings.sol\":2793:2794  2 */\n      0x02\n        /* \"@openzeppelin/contracts/utils/Strings.sol\":2784:2790  length */\n      dup5\n        /* \"@openzeppelin/contracts/utils/Strings.sol\":2780:2781  2 */\n      0x02\n        /* \"@openzeppelin/contracts/utils/Strings.sol\":2780:2790  2 * length */\n      tag_109\n      swap2\n      swap1\n      tag_110\n      jump\t// in\n    tag_109:\n        /* \"@openzeppelin/contracts/utils/Strings.sol\":2780:2794  2 * length + 2 */\n      tag_111\n      swap2\n      swap1\n      tag_112\n      jump\t// in\n    tag_111:\n        /* \"@openzeppelin/contracts/utils/Strings.sol\":2770:2795  new bytes(2 * length + 2) */\n      0xffffffffffffffff\n      dup2\n      gt\n      iszero\n      tag_113\n      jumpi\n      tag_114\n      tag_96\n      jump\t// in\n    tag_114:\n    tag_113:\n      mload(0x40)\n      swap1\n      dup1\n      dup3\n      mstore\n      dup1\n      0x1f\n      add\n      not(0x1f)\n      and\n      0x20\n      add\n      dup3\n      add\n      0x40\n      mstore\n      dup1\n      iszero\n      tag_115\n      jumpi\n      dup2\n      0x20\n      add\n      0x01\n      dup3\n      mul\n      dup1\n      calldatasize\n      dup4\n      calldatacopy\n      dup1\n      dup3\n      add\n      swap2\n      pop\n      pop\n      swap1\n      pop\n    tag_115:\n      pop\n        /* \"@openzeppelin/contracts/utils/Strings.sol\":2748:2795  bytes memory buffer = new bytes(2 * length + 2) */\n      swap1\n      pop\n        /* \"@openzeppelin/contracts/utils/Strings.sol\":2805:2820  buffer[0] = \"0\" */\n      0x3000000000000000000000000000000000000000000000000000000000000000\n        /* \"@openzeppelin/contracts/utils/Strings.sol\":2805:2811  buffer */\n      dup2\n        /* \"@openzeppelin/contracts/utils/Strings.sol\":2812:2813  0 */\n      0x00\n        /* \"@openzeppelin/contracts/utils/Strings.sol\":2805:2814  buffer[0] */\n      dup2\n      mload\n      dup2\n      lt\n      tag_116\n      jumpi\n      tag_117\n      tag_118\n      jump\t// in\n    tag_117:\n    tag_116:\n      0x20\n      add\n      add\n        /* \"@openzeppelin/contracts/utils/Strings.sol\":2805:2820  buffer[0] = \"0\" */\n      swap1\n      not(0xffffffffffffffffffffffffffffffffffffffffffffffffffffffffffffff)\n      and\n      swap1\n      dup2\n      0x00\n      byte\n      swap1\n      mstore8\n      pop\n        /* \"@openzeppelin/contracts/utils/Strings.sol\":2830:2845  buffer[1] = \"x\" */\n      0x7800000000000000000000000000000000000000000000000000000000000000\n        /* \"@openzeppelin/contracts/utils/Strings.sol\":2830:2836  buffer */\n      dup2\n        /* \"@openzeppelin/contracts/utils/Strings.sol\":2837:2838  1 */\n      0x01\n        /* \"@openzeppelin/contracts/utils/Strings.sol\":2830:2839  buffer[1] */\n      dup2\n      mload\n      dup2\n      lt\n      tag_119\n      jumpi\n      tag_120\n      tag_118\n      jump\t// in\n    tag_120:\n    tag_119:\n      0x20\n      add\n      add\n        /* \"@openzeppelin/contracts/utils/Strings.sol\":2830:2845  buffer[1] = \"x\" */\n      swap1\n      not(0xffffffffffffffffffffffffffffffffffffffffffffffffffffffffffffff)\n      and\n      swap1\n      dup2\n      0x00\n      byte\n      swap1\n      mstore8\n      pop\n        /* \"@openzeppelin/contracts/utils/Strings.sol\":2860:2869  uint256 i */\n      0x00\n        /* \"@openzeppelin/contracts/utils/Strings.sol\":2885:2886  1 */\n      0x01\n        /* \"@openzeppelin/contracts/utils/Strings.sol\":2876:2882  length */\n      dup6\n        /* \"@openzeppelin/contracts/utils/Strings.sol\":2872:2873  2 */\n      0x02\n        /* \"@openzeppelin/contracts/utils/Strings.sol\":2872:2882  2 * length */\n      tag_124\n      swap2\n      swap1\n      tag_110\n      jump\t// in\n    tag_124:\n        /* \"@openzeppelin/contracts/utils/Strings.sol\":2872:2886  2 * length + 1 */\n      tag_125\n      swap2\n      swap1\n      tag_112\n      jump\t// in\n    tag_125:\n        /* \"@openzeppelin/contracts/utils/Strings.sol\":2860:2886  uint256 i = 2 * length + 1 */\n      swap1\n      pop\n        /* \"@openzeppelin/contracts/utils/Strings.sol\":2855:2995  for (uint256 i = 2 * length + 1; i > 1; --i) {... */\n    tag_121:\n        /* \"@openzeppelin/contracts/utils/Strings.sol\":2892:2893  1 */\n      0x01\n        /* \"@openzeppelin/contracts/utils/Strings.sol\":2888:2889  i */\n      dup2\n        /* \"@openzeppelin/contracts/utils/Strings.sol\":2888:2893  i > 1 */\n      gt\n        /* \"@openzeppelin/contracts/utils/Strings.sol\":2855:2995  for (uint256 i = 2 * length + 1; i > 1; --i) {... */\n      iszero\n      tag_122\n      jumpi\n        /* \"@openzeppelin/contracts/utils/Strings.sol\":2926:2936  HEX_DIGITS */\n      0x3031323334353637383961626364656600000000000000000000000000000000\n        /* \"@openzeppelin/contracts/utils/Strings.sol\":2950:2953  0xf */\n      0x0f\n        /* \"@openzeppelin/contracts/utils/Strings.sol\":2937:2947  localValue */\n      dup5\n        /* \"@openzeppelin/contracts/utils/Strings.sol\":2937:2953  localValue & 0xf */\n      and\n        /* \"@openzeppelin/contracts/utils/Strings.sol\":2926:2954  HEX_DIGITS[localValue & 0xf] */\n      0x10\n      dup2\n      lt\n      tag_126\n      jumpi\n      tag_127\n      tag_118\n      jump\t// in\n    tag_127:\n    tag_126:\n      byte\n      0xf8\n      shl\n        /* \"@openzeppelin/contracts/utils/Strings.sol\":2914:2920  buffer */\n      dup3\n        /* \"@openzeppelin/contracts/utils/Strings.sol\":2921:2922  i */\n      dup3\n        /* \"@openzeppelin/contracts/utils/Strings.sol\":2914:2923  buffer[i] */\n      dup2\n      mload\n      dup2\n      lt\n      tag_128\n      jumpi\n      tag_129\n      tag_118\n      jump\t// in\n    tag_129:\n    tag_128:\n      0x20\n      add\n      add\n        /* \"@openzeppelin/contracts/utils/Strings.sol\":2914:2954  buffer[i] = HEX_DIGITS[localValue & 0xf] */\n      swap1\n      not(0xffffffffffffffffffffffffffffffffffffffffffffffffffffffffffffff)\n      and\n      swap1\n      dup2\n      0x00\n      byte\n      swap1\n      mstore8\n      pop\n        /* \"@openzeppelin/contracts/utils/Strings.sol\":2983:2984  4 */\n      0x04\n        /* \"@openzeppelin/contracts/utils/Strings.sol\":2968:2984  localValue >>= 4 */\n      dup4\n      swap1\n      shr\n      swap3\n      pop\n        /* \"@openzeppelin/contracts/utils/Strings.sol\":2895:2898  --i */\n      dup1\n      tag_130\n      swap1\n      tag_131\n      jump\t// in\n    tag_130:\n      swap1\n      pop\n        /* \"@openzeppelin/contracts/utils/Strings.sol\":2855:2995  for (uint256 i = 2 * length + 1; i > 1; --i) {... */\n      jump(tag_121)\n    tag_122:\n      pop\n        /* \"@openzeppelin/contracts/utils/Strings.sol\":3022:3023  0 */\n      0x00\n        /* \"@openzeppelin/contracts/utils/Strings.sol\":3008:3018  localValue */\n      dup3\n        /* \"@openzeppelin/contracts/utils/Strings.sol\":3008:3023  localValue != 0 */\n      eq\n        /* \"@openzeppelin/contracts/utils/Strings.sol\":3004:3100  if (localValue != 0) {... */\n      tag_132\n      jumpi\n        /* \"@openzeppelin/contracts/utils/Strings.sol\":3075:3080  value */\n      dup5\n        /* \"@openzeppelin/contracts/utils/Strings.sol\":3082:3088  length */\n      dup5\n        /* \"@openzeppelin/contracts/utils/Strings.sol\":3046:3089  StringsInsufficientHexLength(value, length) */\n      mload(0x40)\n      0xe22e27eb00000000000000000000000000000000000000000000000000000000\n      dup2\n      mstore\n      0x04\n      add\n      tag_133\n      swap3\n      swap2\n      swap1\n      tag_42\n      jump\t// in\n    tag_133:\n      mload(0x40)\n      dup1\n      swap2\n      sub\n      swap1\n      revert\n        /* \"@openzeppelin/contracts/utils/Strings.sol\":3004:3100  if (localValue != 0) {... */\n    tag_132:\n        /* \"@openzeppelin/contracts/utils/Strings.sol\":3123:3129  buffer */\n      dup1\n        /* \"@openzeppelin/contracts/utils/Strings.sol\":3109:3130  return string(buffer) */\n      swap3\n      pop\n      pop\n      pop\n        /* \"@openzeppelin/contracts/utils/Strings.sol\":2612:3137  function toHexString(uint256 value, uint256 length) internal pure returns (string memory) {... */\n      swap3\n      swap2\n      pop\n      pop\n      jump\t// out\n        /* \"@openzeppelin/contracts/utils/math/Math.sol\":29154:30070  function log10(uint256 value) internal pure returns (uint256) {... */\n    tag_93:\n        /* \"@openzeppelin/contracts/utils/math/Math.sol\":29207:29214  uint256 */\n      0x00\n        /* \"@openzeppelin/contracts/utils/math/Math.sol\":29226:29240  uint256 result */\n      0x00\n        /* \"@openzeppelin/contracts/utils/math/Math.sol\":29243:29244  0 */\n      0x00\n        /* \"@openzeppelin/contracts/utils/math/Math.sol\":29226:29244  uint256 result = 0 */\n      swap1\n      pop\n        /* \"@openzeppelin/contracts/utils/math/Math.sol\":29291:29299  10 ** 64 */\n      0x184f03e93ff9f4daa797ed6e38ed64bf6a1f010000000000000000\n        /* \"@openzeppelin/contracts/utils/math/Math.sol\":29282:29287  value */\n      dup4\n        /* \"@openzeppelin/contracts/utils/math/Math.sol\":29282:29299  value >= 10 ** 64 */\n      lt\n        /* \"@openzeppelin/contracts/utils/math/Math.sol\":29278:29381  if (value >= 10 ** 64) {... */\n      tag_135\n      jumpi\n        /* \"@openzeppelin/contracts/utils/math/Math.sol\":29328:29336  10 ** 64 */\n      0x184f03e93ff9f4daa797ed6e38ed64bf6a1f010000000000000000\n        /* \"@openzeppelin/contracts/utils/math/Math.sol\":29319:29336  value /= 10 ** 64 */\n      dup4\n      dup2\n      tag_136\n      jumpi\n      tag_137\n      tag_102\n      jump\t// in\n    tag_137:\n    tag_136:\n      div\n      swap3\n      pop\n        /* \"@openzeppelin/contracts/utils/math/Math.sol\":29364:29366  64 */\n      0x40\n        /* \"@openzeppelin/contracts/utils/math/Math.sol\":29354:29366  result += 64 */\n      dup2\n      add\n      swap1\n      pop\n        /* \"@openzeppelin/contracts/utils/math/Math.sol\":29278:29381  if (value >= 10 ** 64) {... */\n    tag_135:\n        /* \"@openzeppelin/contracts/utils/math/Math.sol\":29407:29415  10 ** 32 */\n      0x04ee2d6d415b85acef8100000000\n        /* \"@openzeppelin/contracts/utils/math/Math.sol\":29398:29403  value */\n      dup4\n        /* \"@openzeppelin/contracts/utils/math/Math.sol\":29398:29415  value >= 10 ** 32 */\n      lt\n        /* \"@openzeppelin/contracts/utils/math/Math.sol\":29394:29497  if (value >= 10 ** 32) {... */\n      tag_138\n      jumpi\n        /* \"@openzeppelin/contracts/utils/math/Math.sol\":29444:29452  10 ** 32 */\n      0x04ee2d6d415b85acef8100000000\n        /* \"@openzeppelin/contracts/utils/math/Math.sol\":29435:29452  value /= 10 ** 32 */\n      dup4\n      dup2\n      tag_139\n      jumpi\n      tag_140\n      tag_102\n      jump\t// in\n    tag_140:\n    tag_139:\n      div\n      swap3\n      pop\n        /* \"@openzeppelin/contracts/utils/math/Math.sol\":29480:29482  32 */\n      0x20\n        /* \"@openzeppelin/contracts/utils/math/Math.sol\":29470:29482  result += 32 */\n      dup2\n      add\n      swap1\n      pop\n        /* \"@openzeppelin/contracts/utils/math/Math.sol\":29394:29497  if (value >= 10 ** 32) {... */\n    tag_138:\n        /* \"@openzeppelin/contracts/utils/math/Math.sol\":29523:29531  10 ** 16 */\n      0x2386f26fc10000\n        /* \"@openzeppelin/contracts/utils/math/Math.sol\":29514:29519  value */\n      dup4\n        /* \"@openzeppelin/contracts/utils/math/Math.sol\":29514:29531  value >= 10 ** 16 */\n      lt\n        /* \"@openzeppelin/contracts/utils/math/Math.sol\":29510:29613  if (value >= 10 ** 16) {... */\n      tag_141\n      jumpi\n        /* \"@openzeppelin/contracts/utils/math/Math.sol\":29560:29568  10 ** 16 */\n      0x2386f26fc10000\n        /* \"@openzeppelin/contracts/utils/math/Math.sol\":29551:29568  value /= 10 ** 16 */\n      dup4\n      dup2\n      tag_142\n      jumpi\n      tag_143\n      tag_102\n      jump\t// in\n    tag_143:\n    tag_142:\n      div\n      swap3\n      pop\n        /* \"@openzeppelin/contracts/utils/math/Math.sol\":29596:29598  16 */\n      0x10\n        /* \"@openzeppelin/contracts/utils/math/Math.sol\":29586:29598  result += 16 */\n      dup2\n      add\n      swap1\n      pop\n        /* \"@openzeppelin/contracts/utils/math/Math.sol\":29510:29613  if (value >= 10 ** 16) {... */\n    tag_141:\n        /* \"@openzeppelin/contracts/utils/math/Math.sol\":29639:29646  10 ** 8 */\n      0x05f5e100\n        /* \"@openzeppelin/contracts/utils/math/Math.sol\":29630:29635  value */\n      dup4\n        /* \"@openzeppelin/contracts/utils/math/Math.sol\":29630:29646  value >= 10 ** 8 */\n      lt\n        /* \"@openzeppelin/contracts/utils/math/Math.sol\":29626:29726  if (value >= 10 ** 8) {... */\n      tag_144\n      jumpi\n        /* \"@openzeppelin/contracts/utils/math/Math.sol\":29675:29682  10 ** 8 */\n      0x05f5e100\n        /* \"@openzeppelin/contracts/utils/math/Math.sol\":29666:29682  value /= 10 ** 8 */\n      dup4\n      dup2\n      tag_145\n      jumpi\n      tag_146\n      tag_102\n      jump\t// in\n    tag_146:\n    tag_145:\n      div\n      swap3\n      pop\n        /* \"@openzeppelin/contracts/utils/math/Math.sol\":29710:29711  8 */\n      0x08\n        /* \"@openzeppelin/contracts/utils/math/Math.sol\":29700:29711  result += 8 */\n      dup2\n      add\n      swap1\n      pop\n        /* \"@openzeppelin/contracts/utils/math/Math.sol\":29626:29726  if (value >= 10 ** 8) {... */\n    tag_144:\n        /* \"@openzeppelin/contracts/utils/math/Math.sol\":29752:29759  10 ** 4 */\n      0x2710\n        /* \"@openzeppelin/contracts/utils/math/Math.sol\":29743:29748  value */\n      dup4\n        /* \"@openzeppelin/contracts/utils/math/Math.sol\":29743:29759  value >= 10 ** 4 */\n      lt\n        /* \"@openzeppelin/contracts/utils/math/Math.sol\":29739:29839  if (value >= 10 ** 4) {... */\n      tag_147\n      jumpi\n        /* \"@openzeppelin/contracts/utils/math/Math.sol\":29788:29795  10 ** 4 */\n      0x2710\n        /* \"@openzeppelin/contracts/utils/math/Math.sol\":29779:29795  value /= 10 ** 4 */\n      dup4\n      dup2\n      tag_148\n      jumpi\n      tag_149\n      tag_102\n      jump\t// in\n    tag_149:\n    tag_148:\n      div\n      swap3\n      pop\n        /* \"@openzeppelin/contracts/utils/math/Math.sol\":29823:29824  4 */\n      0x04\n        /* \"@openzeppelin/contracts/utils/math/Math.sol\":29813:29824  result += 4 */\n      dup2\n      add\n      swap1\n      pop\n        /* \"@openzeppelin/contracts/utils/math/Math.sol\":29739:29839  if (value >= 10 ** 4) {... */\n    tag_147:\n        /* \"@openzeppelin/contracts/utils/math/Math.sol\":29865:29872  10 ** 2 */\n      0x64\n        /* \"@openzeppelin/contracts/utils/math/Math.sol\":29856:29861  value */\n      dup4\n        /* \"@openzeppelin/contracts/utils/math/Math.sol\":29856:29872  value >= 10 ** 2 */\n      lt\n        /* \"@openzeppelin/contracts/utils/math/Math.sol\":29852:29952  if (value >= 10 ** 2) {... */\n      tag_150\n      jumpi\n        /* \"@openzeppelin/contracts/utils/math/Math.sol\":29901:29908  10 ** 2 */\n      0x64\n        /* \"@openzeppelin/contracts/utils/math/Math.sol\":29892:29908  value /= 10 ** 2 */\n      dup4\n      dup2\n      tag_151\n      jumpi\n      tag_152\n      tag_102\n      jump\t// in\n    tag_152:\n    tag_151:\n      div\n      swap3\n      pop\n        /* \"@openzeppelin/contracts/utils/math/Math.sol\":29936:29937  2 */\n      0x02\n        /* \"@openzeppelin/contracts/utils/math/Math.sol\":29926:29937  result += 2 */\n      dup2\n      add\n      swap1\n      pop\n        /* \"@openzeppelin/contracts/utils/math/Math.sol\":29852:29952  if (value >= 10 ** 2) {... */\n    tag_150:\n        /* \"@openzeppelin/contracts/utils/math/Math.sol\":29978:29985  10 ** 1 */\n      0x0a\n        /* \"@openzeppelin/contracts/utils/math/Math.sol\":29969:29974  value */\n      dup4\n        /* \"@openzeppelin/contracts/utils/math/Math.sol\":29969:29985  value >= 10 ** 1 */\n      lt\n        /* \"@openzeppelin/contracts/utils/math/Math.sol\":29965:30031  if (value >= 10 ** 1) {... */\n      tag_153\n      jumpi\n        /* \"@openzeppelin/contracts/utils/math/Math.sol\":30015:30016  1 */\n      0x01\n        /* \"@openzeppelin/contracts/utils/math/Math.sol\":30005:30016  result += 1 */\n      dup2\n      add\n      swap1\n      pop\n        /* \"@openzeppelin/contracts/utils/math/Math.sol\":29965:30031  if (value >= 10 ** 1) {... */\n    tag_153:\n        /* \"@openzeppelin/contracts/utils/math/Math.sol\":30057:30063  result */\n      dup1\n        /* \"@openzeppelin/contracts/utils/math/Math.sol\":30050:30063  return result */\n      swap2\n      pop\n      pop\n        /* \"@openzeppelin/contracts/utils/math/Math.sol\":29154:30070  function log10(uint256 value) internal pure returns (uint256) {... */\n      swap2\n      swap1\n      pop\n      jump\t// out\n        /* \"#utility.yul\":7:84   */\n    tag_154:\n        /* \"#utility.yul\":44:51   */\n      0x00\n        /* \"#utility.yul\":73:78   */\n      dup2\n        /* \"#utility.yul\":62:78   */\n      swap1\n      pop\n        /* \"#utility.yul\":7:84   */\n      swap2\n      swap1\n      pop\n      jump\t// out\n        /* \"#utility.yul\":90:208   */\n    tag_155:\n        /* \"#utility.yul\":177:201   */\n      tag_184\n        /* \"#utility.yul\":195:200   */\n      dup2\n        /* \"#utility.yul\":177:201   */\n      tag_154\n      jump\t// in\n    tag_184:\n        /* \"#utility.yul\":172:175   */\n      dup3\n        /* \"#utility.yul\":165:202   */\n      mstore\n        /* \"#utility.yul\":90:208   */\n      pop\n      pop\n      jump\t// out\n        /* \"#utility.yul\":214:436   */\n    tag_11:\n        /* \"#utility.yul\":307:311   */\n      0x00\n        /* \"#utility.yul\":345:347   */\n      0x20\n        /* \"#utility.yul\":334:343   */\n      dup3\n        /* \"#utility.yul\":330:348   */\n      add\n        /* \"#utility.yul\":322:348   */\n      swap1\n      pop\n        /* \"#utility.yul\":358:429   */\n      tag_186\n        /* \"#utility.yul\":426:427   */\n      0x00\n        /* \"#utility.yul\":415:424   */\n      dup4\n        /* \"#utility.yul\":411:428   */\n      add\n        /* \"#utility.yul\":402:408   */\n      dup5\n        /* \"#utility.yul\":358:429   */\n      tag_155\n      jump\t// in\n    tag_186:\n        /* \"#utility.yul\":214:436   */\n      swap3\n      swap2\n      pop\n      pop\n      jump\t// out\n        /* \"#utility.yul\":523:640   */\n    tag_157:\n        /* \"#utility.yul\":632:633   */\n      0x00\n        /* \"#utility.yul\":629:630   */\n      0x00\n        /* \"#utility.yul\":622:634   */\n      revert\n        /* \"#utility.yul\":769:895   */\n    tag_159:\n        /* \"#utility.yul\":806:813   */\n      0x00\n        /* \"#utility.yul\":846:888   */\n      0xffffffffffffffffffffffffffffffffffffffff\n        /* \"#utility.yul\":839:844   */\n      dup3\n        /* \"#utility.yul\":835:889   */\n      and\n        /* \"#utility.yul\":824:889   */\n      swap1\n      pop\n        /* \"#utility.yul\":769:895   */\n      swap2\n      swap1\n      pop\n      jump\t// out\n        /* \"#utility.yul\":901:1005   */\n    tag_160:\n        /* \"#utility.yul\":946:953   */\n      0x00\n        /* \"#utility.yul\":975:999   */\n      tag_192\n        /* \"#utility.yul\":993:998   */\n      dup3\n        /* \"#utility.yul\":975:999   */\n      tag_159\n      jump\t// in\n    tag_192:\n        /* \"#utility.yul\":964:999   */\n      swap1\n      pop\n        /* \"#utility.yul\":901:1005   */\n      swap2\n      swap1\n      pop\n      jump\t// out\n        /* \"#utility.yul\":1011:1149   */\n    tag_161:\n        /* \"#utility.yul\":1092:1124   */\n      tag_194\n        /* \"#utility.yul\":1118:1123   */\n      dup2\n        /* \"#utility.yul\":1092:1124   */\n      tag_160\n      jump\t// in\n    tag_194:\n        /* \"#utility.yul\":1085:1090   */\n      dup2\n        /* \"#utility.yul\":1082:1125   */\n      eq\n        /* \"#utility.yul\":1072:1143   */\n      tag_195\n      jumpi\n        /* \"#utility.yul\":1139:1140   */\n      0x00\n        /* \"#utility.yul\":1136:1137   */\n      0x00\n        /* \"#utility.yul\":1129:1141   */\n      revert\n        /* \"#utility.yul\":1072:1143   */\n    tag_195:\n        /* \"#utility.yul\":1011:1149   */\n      pop\n      jump\t// out\n        /* \"#utility.yul\":1155:1310   */\n    tag_162:\n        /* \"#utility.yul\":1209:1214   */\n      0x00\n        /* \"#utility.yul\":1247:1253   */\n      dup2\n        /* \"#utility.yul\":1234:1254   */\n      calldataload\n        /* \"#utility.yul\":1225:1254   */\n      swap1\n      pop\n        /* \"#utility.yul\":1263:1304   */\n      tag_197\n        /* \"#utility.yul\":1298:1303   */\n      dup2\n        /* \"#utility.yul\":1263:1304   */\n      tag_161\n      jump\t// in\n    tag_197:\n        /* \"#utility.yul\":1155:1310   */\n      swap3\n      swap2\n      pop\n      pop\n      jump\t// out\n        /* \"#utility.yul\":1316:1438   */\n    tag_163:\n        /* \"#utility.yul\":1389:1413   */\n      tag_199\n        /* \"#utility.yul\":1407:1412   */\n      dup2\n        /* \"#utility.yul\":1389:1413   */\n      tag_154\n      jump\t// in\n    tag_199:\n        /* \"#utility.yul\":1382:1387   */\n      dup2\n        /* \"#utility.yul\":1379:1414   */\n      eq\n        /* \"#utility.yul\":1369:1432   */\n      tag_200\n      jumpi\n        /* \"#utility.yul\":1428:1429   */\n      0x00\n        /* \"#utility.yul\":1425:1426   */\n      0x00\n        /* \"#utility.yul\":1418:1430   */\n      revert\n        /* \"#utility.yul\":1369:1432   */\n    tag_200:\n        /* \"#utility.yul\":1316:1438   */\n      pop\n      jump\t// out\n        /* \"#utility.yul\":1444:1583   */\n    tag_164:\n        /* \"#utility.yul\":1490:1495   */\n      0x00\n        /* \"#utility.yul\":1528:1534   */\n      dup2\n        /* \"#utility.yul\":1515:1535   */\n      calldataload\n        /* \"#utility.yul\":1506:1535   */\n      swap1\n      pop\n        /* \"#utility.yul\":1544:1577   */\n      tag_202\n        /* \"#utility.yul\":1571:1576   */\n      dup2\n        /* \"#utility.yul\":1544:1577   */\n      tag_163\n      jump\t// in\n    tag_202:\n        /* \"#utility.yul\":1444:1583   */\n      swap3\n      swap2\n      pop\n      pop\n      jump\t// out\n        /* \"#utility.yul\":1589:2079   */\n    tag_18:\n        /* \"#utility.yul\":1665:1671   */\n      0x00\n        /* \"#utility.yul\":1673:1679   */\n      0x00\n        /* \"#utility.yul\":1722:1724   */\n      0x40\n        /* \"#utility.yul\":1710:1719   */\n      dup4\n        /* \"#utility.yul\":1701:1708   */\n      dup6\n        /* \"#utility.yul\":1697:1720   */\n      sub\n        /* \"#utility.yul\":1693:1725   */\n      slt\n        /* \"#utility.yul\":1690:1809   */\n      iszero\n      tag_204\n      jumpi\n        /* \"#utility.yul\":1728:1807   */\n      tag_205\n      tag_157\n      jump\t// in\n    tag_205:\n        /* \"#utility.yul\":1690:1809   */\n    tag_204:\n        /* \"#utility.yul\":1848:1849   */\n      0x00\n        /* \"#utility.yul\":1873:1934   */\n      tag_206\n        /* \"#utility.yul\":1926:1933   */\n      dup6\n        /* \"#utility.yul\":1917:1923   */\n      dup3\n        /* \"#utility.yul\":1906:1915   */\n      dup7\n        /* \"#utility.yul\":1902:1924   */\n      add\n        /* \"#utility.yul\":1873:1934   */\n      tag_162\n      jump\t// in\n    tag_206:\n        /* \"#utility.yul\":1863:1934   */\n      swap3\n      pop\n        /* \"#utility.yul\":1819:1944   */\n      pop\n        /* \"#utility.yul\":1983:1985   */\n      0x20\n        /* \"#utility.yul\":2009:2062   */\n      tag_207\n        /* \"#utility.yul\":2054:2061   */\n      dup6\n        /* \"#utility.yul\":2045:2051   */\n      dup3\n        /* \"#utility.yul\":2034:2043   */\n      dup7\n        /* \"#utility.yul\":2030:2052   */\n      add\n        /* \"#utility.yul\":2009:2062   */\n      tag_164\n      jump\t// in\n    tag_207:\n        /* \"#utility.yul\":1999:2062   */\n      swap2\n      pop\n        /* \"#utility.yul\":1954:2072   */\n      pop\n        /* \"#utility.yul\":1589:2079   */\n      swap3\n      pop\n      swap3\n      swap1\n      pop\n      jump\t// out\n        /* \"#utility.yul\":2085:2181   */\n    tag_165:\n        /* \"#utility.yul\":2122:2129   */\n      0x00\n        /* \"#utility.yul\":2151:2175   */\n      tag_209\n        /* \"#utility.yul\":2169:2174   */\n      dup3\n        /* \"#utility.yul\":2151:2175   */\n      tag_159\n      jump\t// in\n    tag_209:\n        /* \"#utility.yul\":2140:2175   */\n      swap1\n      pop\n        /* \"#utility.yul\":2085:2181   */\n      swap2\n      swap1\n      pop\n      jump\t// out\n        /* \"#utility.yul\":2187:2305   */\n    tag_166:\n        /* \"#utility.yul\":2274:2298   */\n      tag_211\n        /* \"#utility.yul\":2292:2297   */\n      dup2\n        /* \"#utility.yul\":2274:2298   */\n      tag_165\n      jump\t// in\n    tag_211:\n        /* \"#utility.yul\":2269:2272   */\n      dup3\n        /* \"#utility.yul\":2262:2299   */\n      mstore\n        /* \"#utility.yul\":2187:2305   */\n      pop\n      pop\n      jump\t// out\n        /* \"#utility.yul\":2311:2533   */\n    tag_27:\n        /* \"#utility.yul\":2404:2408   */\n      0x00\n        /* \"#utility.yul\":2442:2444   */\n      0x20\n        /* \"#utility.yul\":2431:2440   */\n      dup3\n        /* \"#utility.yul\":2427:2445   */\n      add\n        /* \"#utility.yul\":2419:2445   */\n      swap1\n      pop\n        /* \"#utility.yul\":2455:2526   */\n      tag_213\n        /* \"#utility.yul\":2523:2524   */\n      0x00\n        /* \"#utility.yul\":2512:2521   */\n      dup4\n        /* \"#utility.yul\":2508:2525   */\n      add\n        /* \"#utility.yul\":2499:2505   */\n      dup5\n        /* \"#utility.yul\":2455:2526   */\n      tag_166\n      jump\t// in\n    tag_213:\n        /* \"#utility.yul\":2311:2533   */\n      swap3\n      swap2\n      pop\n      pop\n      jump\t// out\n        /* \"#utility.yul\":2539:2661   */\n    tag_167:\n        /* \"#utility.yul\":2612:2636   */\n      tag_215\n        /* \"#utility.yul\":2630:2635   */\n      dup2\n        /* \"#utility.yul\":2612:2636   */\n      tag_165\n      jump\t// in\n    tag_215:\n        /* \"#utility.yul\":2605:2610   */\n      dup2\n        /* \"#utility.yul\":2602:2637   */\n      eq\n        /* \"#utility.yul\":2592:2655   */\n      tag_216\n      jumpi\n        /* \"#utility.yul\":2651:2652   */\n      0x00\n        /* \"#utility.yul\":2648:2649   */\n      0x00\n        /* \"#utility.yul\":2641:2653   */\n      revert\n        /* \"#utility.yul\":2592:2655   */\n    tag_216:\n        /* \"#utility.yul\":2539:2661   */\n      pop\n      jump\t// out\n        /* \"#utility.yul\":2667:2806   */\n    tag_168:\n        /* \"#utility.yul\":2713:2718   */\n      0x00\n        /* \"#utility.yul\":2751:2757   */\n      dup2\n        /* \"#utility.yul\":2738:2758   */\n      calldataload\n        /* \"#utility.yul\":2729:2758   */\n      swap1\n      pop\n        /* \"#utility.yul\":2767:2800   */\n      tag_218\n        /* \"#utility.yul\":2794:2799   */\n      dup2\n        /* \"#utility.yul\":2767:2800   */\n      tag_167\n      jump\t// in\n    tag_218:\n        /* \"#utility.yul\":2667:2806   */\n      swap3\n      swap2\n      pop\n      pop\n      jump\t// out\n        /* \"#utility.yul\":2812:3141   */\n    tag_31:\n        /* \"#utility.yul\":2871:2877   */\n      0x00\n        /* \"#utility.yul\":2920:2922   */\n      0x20\n        /* \"#utility.yul\":2908:2917   */\n      dup3\n        /* \"#utility.yul\":2899:2906   */\n      dup5\n        /* \"#utility.yul\":2895:2918   */\n      sub\n        /* \"#utility.yul\":2891:2923   */\n      slt\n        /* \"#utility.yul\":2888:3007   */\n      iszero\n      tag_220\n      jumpi\n        /* \"#utility.yul\":2926:3005   */\n      tag_221\n      tag_157\n      jump\t// in\n    tag_221:\n        /* \"#utility.yul\":2888:3007   */\n    tag_220:\n        /* \"#utility.yul\":3046:3047   */\n      0x00\n        /* \"#utility.yul\":3071:3124   */\n      tag_222\n        /* \"#utility.yul\":3116:3123   */\n      dup5\n        /* \"#utility.yul\":3107:3113   */\n      dup3\n        /* \"#utility.yul\":3096:3105   */\n      dup6\n        /* \"#utility.yul\":3092:3114   */\n      add\n        /* \"#utility.yul\":3071:3124   */\n      tag_168\n      jump\t// in\n    tag_222:\n        /* \"#utility.yul\":3061:3124   */\n      swap2\n      pop\n        /* \"#utility.yul\":3017:3134   */\n      pop\n        /* \"#utility.yul\":2812:3141   */\n      swap3\n      swap2\n      pop\n      pop\n      jump\t// out\n        /* \"#utility.yul\":3147:3479   */\n    tag_42:\n        /* \"#utility.yul\":3268:3272   */\n      0x00\n        /* \"#utility.yul\":3306:3308   */\n      0x40\n        /* \"#utility.yul\":3295:3304   */\n      dup3\n        /* \"#utility.yul\":3291:3309   */\n      add\n        /* \"#utility.yul\":3283:3309   */\n      swap1\n      pop\n        /* \"#utility.yul\":3319:3390   */\n      tag_224\n        /* \"#utility.yul\":3387:3388   */\n      0x00\n        /* \"#utility.yul\":3376:3385   */\n      dup4\n        /* \"#utility.yul\":3372:3389   */\n      add\n        /* \"#utility.yul\":3363:3369   */\n      dup6\n        /* \"#utility.yul\":3319:3390   */\n      tag_155\n      jump\t// in\n    tag_224:\n        /* \"#utility.yul\":3400:3472   */\n      tag_225\n        /* \"#utility.yul\":3468:3470   */\n      0x20\n        /* \"#utility.yul\":3457:3466   */\n      dup4\n        /* \"#utility.yul\":3453:3471   */\n      add\n        /* \"#utility.yul\":3444:3450   */\n      dup5\n        /* \"#utility.yul\":3400:3472   */\n      tag_155\n      jump\t// in\n    tag_225:\n        /* \"#utility.yul\":3147:3479   */\n      swap4\n      swap3\n      pop\n      pop\n      pop\n      jump\t// out\n        /* \"#utility.yul\":3485:3584   */\n    tag_169:\n        /* \"#utility.yul\":3537:3543   */\n      0x00\n        /* \"#utility.yul\":3571:3576   */\n      dup2\n        /* \"#utility.yul\":3565:3577   */\n      mload\n        /* \"#utility.yul\":3555:3577   */\n      swap1\n      pop\n        /* \"#utility.yul\":3485:3584   */\n      swap2\n      swap1\n      pop\n      jump\t// out\n        /* \"#utility.yul\":3590:3738   */\n    tag_170:\n        /* \"#utility.yul\":3692:3703   */\n      0x00\n        /* \"#utility.yul\":3729:3732   */\n      dup2\n        /* \"#utility.yul\":3714:3732   */\n      swap1\n      pop\n        /* \"#utility.yul\":3590:3738   */\n      swap3\n      swap2\n      pop\n      pop\n      jump\t// out\n        /* \"#utility.yul\":3744:3883   */\n    tag_171:\n        /* \"#utility.yul\":3833:3839   */\n      dup3\n        /* \"#utility.yul\":3828:3831   */\n      dup2\n        /* \"#utility.yul\":3823:3826   */\n      dup4\n        /* \"#utility.yul\":3817:3840   */\n      mcopy\n        /* \"#utility.yul\":3874:3875   */\n      0x00\n        /* \"#utility.yul\":3865:3871   */\n      dup4\n        /* \"#utility.yul\":3860:3863   */\n      dup4\n        /* \"#utility.yul\":3856:3872   */\n      add\n        /* \"#utility.yul\":3849:3876   */\n      mstore\n        /* \"#utility.yul\":3744:3883   */\n      pop\n      pop\n      pop\n      jump\t// out\n        /* \"#utility.yul\":3889:4279   */\n    tag_172:\n        /* \"#utility.yul\":3995:3998   */\n      0x00\n        /* \"#utility.yul\":4023:4062   */\n      tag_230\n        /* \"#utility.yul\":4056:4061   */\n      dup3\n        /* \"#utility.yul\":4023:4062   */\n      tag_169\n      jump\t// in\n    tag_230:\n        /* \"#utility.yul\":4078:4167   */\n      tag_231\n        /* \"#utility.yul\":4160:4166   */\n      dup2\n        /* \"#utility.yul\":4155:4158   */\n      dup6\n        /* \"#utility.yul\":4078:4167   */\n      tag_170\n      jump\t// in\n    tag_231:\n        /* \"#utility.yul\":4071:4167   */\n      swap4\n      pop\n        /* \"#utility.yul\":4176:4241   */\n      tag_232\n        /* \"#utility.yul\":4234:4240   */\n      dup2\n        /* \"#utility.yul\":4229:4232   */\n      dup6\n        /* \"#utility.yul\":4222:4226   */\n      0x20\n        /* \"#utility.yul\":4215:4220   */\n      dup7\n        /* \"#utility.yul\":4211:4227   */\n      add\n        /* \"#utility.yul\":4176:4241   */\n      tag_171\n      jump\t// in\n    tag_232:\n        /* \"#utility.yul\":4266:4272   */\n      dup1\n        /* \"#utility.yul\":4261:4264   */\n      dup5\n        /* \"#utility.yul\":4257:4273   */\n      add\n        /* \"#utility.yul\":4250:4273   */\n      swap2\n      pop\n        /* \"#utility.yul\":3999:4279   */\n      pop\n        /* \"#utility.yul\":3889:4279   */\n      swap3\n      swap2\n      pop\n      pop\n      jump\t// out\n        /* \"#utility.yul\":4285:4486   */\n    tag_173:\n        /* \"#utility.yul\":4454:4479   */\n      0x206c6f766573206261736520626c6f636b636861696e20000000000000000000\n        /* \"#utility.yul\":4449:4452   */\n      dup2\n        /* \"#utility.yul\":4442:4480   */\n      mstore\n        /* \"#utility.yul\":4285:4486   */\n      pop\n      jump\t// out\n        /* \"#utility.yul\":4492:5194   */\n    tag_66:\n        /* \"#utility.yul\":4763:4766   */\n      0x00\n        /* \"#utility.yul\":4785:4880   */\n      tag_235\n        /* \"#utility.yul\":4876:4879   */\n      dup3\n        /* \"#utility.yul\":4867:4873   */\n      dup6\n        /* \"#utility.yul\":4785:4880   */\n      tag_172\n      jump\t// in\n    tag_235:\n        /* \"#utility.yul\":4778:4880   */\n      swap2\n      pop\n        /* \"#utility.yul\":4890:5028   */\n      tag_236\n        /* \"#utility.yul\":5024:5027   */\n      dup3\n        /* \"#utility.yul\":4890:5028   */\n      tag_173\n      jump\t// in\n    tag_236:\n        /* \"#utility.yul\":5053:5055   */\n      0x17\n        /* \"#utility.yul\":5048:5051   */\n      dup3\n        /* \"#utility.yul\":5044:5056   */\n      add\n        /* \"#utility.yul\":5037:5056   */\n      swap2\n      pop\n        /* \"#utility.yul\":5073:5168   */\n      tag_237\n        /* \"#utility.yul\":5164:5167   */\n      dup3\n        /* \"#utility.yul\":5155:5161   */\n      dup5\n        /* \"#utility.yul\":5073:5168   */\n      tag_172\n      jump\t// in\n    tag_237:\n        /* \"#utility.yul\":5066:5168   */\n      swap2\n      pop\n        /* \"#utility.yul\":5185:5188   */\n      dup2\n        /* \"#utility.yul\":5178:5188   */\n      swap1\n      pop\n        /* \"#utility.yul\":4492:5194   */\n      swap4\n      swap3\n      pop\n      pop\n      pop\n      jump\t// out\n        /* \"#utility.yul\":5200:5369   */\n    tag_174:\n        /* \"#utility.yul\":5284:5295   */\n      0x00\n        /* \"#utility.yul\":5318:5324   */\n      dup3\n        /* \"#utility.yul\":5313:5316   */\n      dup3\n        /* \"#utility.yul\":5306:5325   */\n      mstore\n        /* \"#utility.yul\":5358:5362   */\n      0x20\n        /* \"#utility.yul\":5353:5356   */\n      dup3\n        /* \"#utility.yul\":5349:5363   */\n      add\n        /* \"#utility.yul\":5334:5363   */\n      swap1\n      pop\n        /* \"#utility.yul\":5200:5369   */\n      swap3\n      swap2\n      pop\n      pop\n      jump\t// out\n        /* \"#utility.yul\":5375:5477   */\n    tag_175:\n        /* \"#utility.yul\":5416:5422   */\n      0x00\n        /* \"#utility.yul\":5467:5469   */\n      0x1f\n        /* \"#utility.yul\":5463:5470   */\n      not\n        /* \"#utility.yul\":5458:5460   */\n      0x1f\n        /* \"#utility.yul\":5451:5456   */\n      dup4\n        /* \"#utility.yul\":5447:5461   */\n      add\n        /* \"#utility.yul\":5443:5471   */\n      and\n        /* \"#utility.yul\":5433:5471   */\n      swap1\n      pop\n        /* \"#utility.yul\":5375:5477   */\n      swap2\n      swap1\n      pop\n      jump\t// out\n        /* \"#utility.yul\":5483:5860   */\n    tag_176:\n        /* \"#utility.yul\":5571:5574   */\n      0x00\n        /* \"#utility.yul\":5599:5638   */\n      tag_241\n        /* \"#utility.yul\":5632:5637   */\n      dup3\n        /* \"#utility.yul\":5599:5638   */\n      tag_169\n      jump\t// in\n    tag_241:\n        /* \"#utility.yul\":5654:5725   */\n      tag_242\n        /* \"#utility.yul\":5718:5724   */\n      dup2\n        /* \"#utility.yul\":5713:5716   */\n      dup6\n        /* \"#utility.yul\":5654:5725   */\n      tag_174\n      jump\t// in\n    tag_242:\n        /* \"#utility.yul\":5647:5725   */\n      swap4\n      pop\n        /* \"#utility.yul\":5734:5799   */\n      tag_243\n        /* \"#utility.yul\":5792:5798   */\n      dup2\n        /* \"#utility.yul\":5787:5790   */\n      dup6\n        /* \"#utility.yul\":5780:5784   */\n      0x20\n        /* \"#utility.yul\":5773:5778   */\n      dup7\n        /* \"#utility.yul\":5769:5785   */\n      add\n        /* \"#utility.yul\":5734:5799   */\n      tag_171\n      jump\t// in\n    tag_243:\n        /* \"#utility.yul\":5824:5853   */\n      tag_244\n        /* \"#utility.yul\":5846:5852   */\n      dup2\n        /* \"#utility.yul\":5824:5853   */\n      tag_175\n      jump\t// in\n    tag_244:\n        /* \"#utility.yul\":5819:5822   */\n      dup5\n        /* \"#utility.yul\":5815:5854   */\n      add\n        /* \"#utility.yul\":5808:5854   */\n      swap2\n      pop\n        /* \"#utility.yul\":5575:5860   */\n      pop\n        /* \"#utility.yul\":5483:5860   */\n      swap3\n      swap2\n      pop\n      pop\n      jump\t// out\n        /* \"#utility.yul\":5866:6289   */\n    tag_68:\n        /* \"#utility.yul\":6007:6011   */\n      0x00\n        /* \"#utility.yul\":6045:6047   */\n      0x40\n        /* \"#utility.yul\":6034:6043   */\n      dup3\n        /* \"#utility.yul\":6030:6048   */\n      add\n        /* \"#utility.yul\":6022:6048   */\n      swap1\n      pop\n        /* \"#utility.yul\":6094:6103   */\n      dup2\n        /* \"#utility.yul\":6088:6092   */\n      dup2\n        /* \"#utility.yul\":6084:6104   */\n      sub\n        /* \"#utility.yul\":6080:6081   */\n      0x00\n        /* \"#utility.yul\":6069:6078   */\n      dup4\n        /* \"#utility.yul\":6065:6082   */\n      add\n        /* \"#utility.yul\":6058:6105   */\n      mstore\n        /* \"#utility.yul\":6122:6200   */\n      tag_246\n        /* \"#utility.yul\":6195:6199   */\n      dup2\n        /* \"#utility.yul\":6186:6192   */\n      dup6\n        /* \"#utility.yul\":6122:6200   */\n      tag_176\n      jump\t// in\n    tag_246:\n        /* \"#utility.yul\":6114:6200   */\n      swap1\n      pop\n        /* \"#utility.yul\":6210:6282   */\n      tag_247\n        /* \"#utility.yul\":6278:6280   */\n      0x20\n        /* \"#utility.yul\":6267:6276   */\n      dup4\n        /* \"#utility.yul\":6263:6281   */\n      add\n        /* \"#utility.yul\":6254:6260   */\n      dup5\n        /* \"#utility.yul\":6210:6282   */\n      tag_155\n      jump\t// in\n    tag_247:\n        /* \"#utility.yul\":5866:6289   */\n      swap4\n      swap3\n      pop\n      pop\n      pop\n      jump\t// out\n        /* \"#utility.yul\":6295:6442   */\n    tag_177:\n        /* \"#utility.yul\":6396:6407   */\n      0x00\n        /* \"#utility.yul\":6433:6436   */\n      dup2\n        /* \"#utility.yul\":6418:6436   */\n      swap1\n      pop\n        /* \"#utility.yul\":6295:6442   */\n      swap3\n      swap2\n      pop\n      pop\n      jump\t// out\n        /* \"#utility.yul\":6448:6562   */\n    tag_178:\n      pop\n      jump\t// out\n        /* \"#utility.yul\":6568:6966   */\n    tag_179:\n        /* \"#utility.yul\":6727:6730   */\n      0x00\n        /* \"#utility.yul\":6748:6831   */\n      tag_251\n        /* \"#utility.yul\":6829:6830   */\n      0x00\n        /* \"#utility.yul\":6824:6827   */\n      dup4\n        /* \"#utility.yul\":6748:6831   */\n      tag_177\n      jump\t// in\n    tag_251:\n        /* \"#utility.yul\":6741:6831   */\n      swap2\n      pop\n        /* \"#utility.yul\":6840:6933   */\n      tag_252\n        /* \"#utility.yul\":6929:6932   */\n      dup3\n        /* \"#utility.yul\":6840:6933   */\n      tag_178\n      jump\t// in\n    tag_252:\n        /* \"#utility.yul\":6958:6959   */\n      0x00\n        /* \"#utility.yul\":6953:6956   */\n      dup3\n        /* \"#utility.yul\":6949:6960   */\n      add\n        /* \"#utility.yul\":6942:6960   */\n      swap1\n      pop\n        /* \"#utility.yul\":6568:6966   */\n      swap2\n      swap1\n      pop\n      jump\t// out\n        /* \"#utility.yul\":6972:7351   */\n    tag_80:\n        /* \"#utility.yul\":7156:7159   */\n      0x00\n        /* \"#utility.yul\":7178:7325   */\n      tag_254\n        /* \"#utility.yul\":7321:7324   */\n      dup3\n        /* \"#utility.yul\":7178:7325   */\n      tag_179\n      jump\t// in\n    tag_254:\n        /* \"#utility.yul\":7171:7325   */\n      swap2\n      pop\n        /* \"#utility.yul\":7342:7345   */\n      dup2\n        /* \"#utility.yul\":7335:7345   */\n      swap1\n      pop\n        /* \"#utility.yul\":6972:7351   */\n      swap2\n      swap1\n      pop\n      jump\t// out\n        /* \"#utility.yul\":7357:7537   */\n    tag_96:\n        /* \"#utility.yul\":7405:7482   */\n      0x4e487b7100000000000000000000000000000000000000000000000000000000\n        /* \"#utility.yul\":7402:7403   */\n      0x00\n        /* \"#utility.yul\":7395:7483   */\n      mstore\n        /* \"#utility.yul\":7502:7506   */\n      0x41\n        /* \"#utility.yul\":7499:7500   */\n      0x04\n        /* \"#utility.yul\":7492:7507   */\n      mstore\n        /* \"#utility.yul\":7526:7530   */\n      0x24\n        /* \"#utility.yul\":7523:7524   */\n      0x00\n        /* \"#utility.yul\":7516:7531   */\n      revert\n        /* \"#utility.yul\":7543:7723   */\n    tag_102:\n        /* \"#utility.yul\":7591:7668   */\n      0x4e487b7100000000000000000000000000000000000000000000000000000000\n        /* \"#utility.yul\":7588:7589   */\n      0x00\n        /* \"#utility.yul\":7581:7669   */\n      mstore\n        /* \"#utility.yul\":7688:7692   */\n      0x12\n        /* \"#utility.yul\":7685:7686   */\n      0x04\n        /* \"#utility.yul\":7678:7693   */\n      mstore\n        /* \"#utility.yul\":7712:7716   */\n      0x24\n        /* \"#utility.yul\":7709:7710   */\n      0x00\n        /* \"#utility.yul\":7702:7717   */\n      revert\n        /* \"#utility.yul\":7729:7909   */\n    tag_180:\n        /* \"#utility.yul\":7777:7854   */\n      0x4e487b7100000000000000000000000000000000000000000000000000000000\n        /* \"#utility.yul\":7774:7775   */\n      0x00\n        /* \"#utility.yul\":7767:7855   */\n      mstore\n        /* \"#utility.yul\":7874:7878   */\n      0x11\n        /* \"#utility.yul\":7871:7872   */\n      0x04\n        /* \"#utility.yul\":7864:7879   */\n      mstore\n        /* \"#utility.yul\":7898:7902   */\n      0x24\n        /* \"#utility.yul\":7895:7896   */\n      0x00\n        /* \"#utility.yul\":7888:7903   */\n      revert\n        /* \"#utility.yul\":7915:8325   */\n    tag_110:\n        /* \"#utility.yul\":7955:7962   */\n      0x00\n        /* \"#utility.yul\":7978:7998   */\n      tag_259\n        /* \"#utility.yul\":7996:7997   */\n      dup3\n        /* \"#utility.yul\":7978:7998   */\n      tag_154\n      jump\t// in\n    tag_259:\n        /* \"#utility.yul\":7973:7998   */\n      swap2\n      pop\n        /* \"#utility.yul\":8012:8032   */\n      tag_260\n        /* \"#utility.yul\":8030:8031   */\n      dup4\n        /* \"#utility.yul\":8012:8032   */\n      tag_154\n      jump\t// in\n    tag_260:\n        /* \"#utility.yul\":8007:8032   */\n      swap3\n      pop\n        /* \"#utility.yul\":8067:8068   */\n      dup3\n        /* \"#utility.yul\":8064:8065   */\n      dup3\n        /* \"#utility.yul\":8060:8069   */\n      mul\n        /* \"#utility.yul\":8089:8119   */\n      tag_261\n        /* \"#utility.yul\":8107:8118   */\n      dup2\n        /* \"#utility.yul\":8089:8119   */\n      tag_154\n      jump\t// in\n    tag_261:\n        /* \"#utility.yul\":8078:8119   */\n      swap2\n      pop\n        /* \"#utility.yul\":8268:8269   */\n      dup3\n        /* \"#utility.yul\":8259:8266   */\n      dup3\n        /* \"#utility.yul\":8255:8270   */\n      div\n        /* \"#utility.yul\":8252:8253   */\n      dup5\n        /* \"#utility.yul\":8249:8271   */\n      eq\n        /* \"#utility.yul\":8229:8230   */\n      dup4\n        /* \"#utility.yul\":8222:8231   */\n      iszero\n        /* \"#utility.yul\":8202:8285   */\n      or\n        /* \"#utility.yul\":8179:8318   */\n      tag_262\n      jumpi\n        /* \"#utility.yul\":8298:8316   */\n      tag_263\n      tag_180\n      jump\t// in\n    tag_263:\n        /* \"#utility.yul\":8179:8318   */\n    tag_262:\n        /* \"#utility.yul\":7963:8325   */\n      pop\n        /* \"#utility.yul\":7915:8325   */\n      swap3\n      swap2\n      pop\n      pop\n      jump\t// out\n        /* \"#utility.yul\":8331:8522   */\n    tag_112:\n        /* \"#utility.yul\":8371:8374   */\n      0x00\n        /* \"#utility.yul\":8390:8410   */\n      tag_265\n        /* \"#utility.yul\":8408:8409   */\n      dup3\n        /* \"#utility.yul\":8390:8410   */\n      tag_154\n      jump\t// in\n    tag_265:\n        /* \"#utility.yul\":8385:8410   */\n      swap2\n      pop\n        /* \"#utility.yul\":8424:8444   */\n      tag_266\n        /* \"#utility.yul\":8442:8443   */\n      dup4\n        /* \"#utility.yul\":8424:8444   */\n      tag_154\n      jump\t// in\n    tag_266:\n        /* \"#utility.yul\":8419:8444   */\n      swap3\n      pop\n        /* \"#utility.yul\":8467:8468   */\n      dup3\n        /* \"#utility.yul\":8464:8465   */\n      dup3\n        /* \"#utility.yul\":8460:8469   */\n      add\n        /* \"#utility.yul\":8453:8469   */\n      swap1\n      pop\n        /* \"#utility.yul\":8488:8491   */\n      dup1\n        /* \"#utility.yul\":8485:8486   */\n      dup3\n        /* \"#utility.yul\":8482:8492   */\n      gt\n        /* \"#utility.yul\":8479:8515   */\n      iszero\n      tag_267\n      jumpi\n        /* \"#utility.yul\":8495:8513   */\n      tag_268\n      tag_180\n      jump\t// in\n    tag_268:\n        /* \"#utility.yul\":8479:8515   */\n    tag_267:\n        /* \"#utility.yul\":8331:8522   */\n      swap3\n      swap2\n      pop\n      pop\n      jump\t// out\n        /* \"#utility.yul\":8528:8708   */\n    tag_118:\n        /* \"#utility.yul\":8576:8653   */\n      0x4e487b7100000000000000000000000000000000000000000000000000000000\n        /* \"#utility.yul\":8573:8574   */\n      0x00\n        /* \"#utility.yul\":8566:8654   */\n      mstore\n        /* \"#utility.yul\":8673:8677   */\n      0x32\n        /* \"#utility.yul\":8670:8671   */\n      0x04\n        /* \"#utility.yul\":8663:8678   */\n      mstore\n        /* \"#utility.yul\":8697:8701   */\n      0x24\n        /* \"#utility.yul\":8694:8695   */\n      0x00\n        /* \"#utility.yul\":8687:8702   */\n      revert\n        /* \"#utility.yul\":8714:8885   */\n    tag_131:\n        /* \"#utility.yul\":8753:8756   */\n      0x00\n        /* \"#utility.yul\":8776:8800   */\n      tag_271\n        /* \"#utility.yul\":8794:8799   */\n      dup3\n        /* \"#utility.yul\":8776:8800   */\n      tag_154\n      jump\t// in\n    tag_271:\n        /* \"#utility.yul\":8767:8800   */\n      swap2\n      pop\n        /* \"#utility.yul\":8822:8826   */\n      0x00\n        /* \"#utility.yul\":8815:8820   */\n      dup3\n        /* \"#utility.yul\":8812:8827   */\n      sub\n        /* \"#utility.yul\":8809:8850   */\n      tag_272\n      jumpi\n        /* \"#utility.yul\":8830:8848   */\n      tag_273\n      tag_180\n      jump\t// in\n    tag_273:\n        /* \"#utility.yul\":8809:8850   */\n    tag_272:\n        /* \"#utility.yul\":8877:8878   */\n      0x01\n        /* \"#utility.yul\":8870:8875   */\n      dup3\n        /* \"#utility.yul\":8866:8879   */\n      sub\n        /* \"#utility.yul\":8859:8879   */\n      swap1\n      pop\n        /* \"#utility.yul\":8714:8885   */\n      swap2\n      swap1\n      pop\n      jump\t// out\n\n    auxdata: 0xa2646970667358221220ff0c78f77b48956675ad796a0caf48e40de713516f40094079dfdf6b8632cace64736f6c634300081e0033\n}\n",
				"bytecode": {
					"linkReferences": {},
					"object": "608060405234801561000f575f5ffd5b507382f090bac915d15b3f361626b58ef2e9751e43245f73ffffffffffffffffffffffffffffffffffffffff168173ffffffffffffffffffffffffffffffffffffffff1603610095575f6040517f1e4fbdf700000000000000000000000000000000000000000000000000000000815260040161008c91906101aa565b60405180910390fd5b6100a4816100aa60201b60201c565b506101c3565b5f5f5f9054906101000a900473ffffffffffffffffffffffffffffffffffffffff169050815f5f6101000a81548173ffffffffffffffffffffffffffffffffffffffff021916908373ffffffffffffffffffffffffffffffffffffffff1602179055508173ffffffffffffffffffffffffffffffffffffffff168173ffffffffffffffffffffffffffffffffffffffff167f8be0079c531659141344cd1fd0a4f28419497f9722a3daafe3b4186f6b6457e060405160405180910390a35050565b5f73ffffffffffffffffffffffffffffffffffffffff82169050919050565b5f6101948261016b565b9050919050565b6101a48161018a565b82525050565b5f6020820190506101bd5f83018461019b565b92915050565b610f3a806101d05f395ff3fe60806040526004361061004d575f3560e01c80634782f779146100f2578063715018a61461011a5780638da5cb5b14610130578063f2fde38b1461015a578063f9624d6614610182576100a2565b366100a2573373ffffffffffffffffffffffffffffffffffffffff167f4103257eaac983ca79a70d28f90dfc4fa16b619bb0c17ee7cab0d4034c279624346040516100989190610ab0565b60405180910390a2005b3373ffffffffffffffffffffffffffffffffffffffff167f78c972371203d575d4b76368a154d92bfb45d32a57696487f3334fbbe5042c14346040516100e89190610ab0565b60405180910390a2005b3480156100fd575f5ffd5b5061011860048036038101906101139190610b51565b610198565b005b348015610125575f5ffd5b5061012e610262565b005b34801561013b575f5ffd5b50610144610275565b6040516101519190610baf565b60405180910390f35b348015610165575f5ffd5b50610180600480360381019061017b9190610bf2565b61029c565b005b34801561018d575f5ffd5b50610196610320565b005b6101a06103ba565b804710156101e75780476040517fcf4791810000000000000000000000000000000000000000000000000000000081526004016101de929190610c1d565b60405180910390fd5b610210818373ffffffffffffffffffffffffffffffffffffffff1661044190919063ffffffff16565b8173ffffffffffffffffffffffffffffffffffffffff167f7fcf532c15f0a6db0bd6d0e038bea71d30d808c7d98cb3bf7268a95bf5081b65826040516102569190610ab0565b60405180910390a25050565b61026a6103ba565b6102735f610507565b565b5f5f5f9054906101000a900473ffffffffffffffffffffffffffffffffffffffff16905090565b6102a46103ba565b5f73ffffffffffffffffffffffffffffffffffffffff168173ffffffffffffffffffffffffffffffffffffffff1603610314575f6040517f1e4fbdf700000000000000000000000000000000000000000000000000000000815260040161030b9190610baf565b60405180910390fd5b61031d81610507565b50565b6103286103ba565b5f3390505f4290505f61033a836105c8565b610343836105f5565b604051602001610354929190610cbc565b60405160208183030381529060405290508273ffffffffffffffffffffffffffffffffffffffff167f23d3b59785717e0022eeb4456f509a4494dfa94d2c76b69373ec74d80fa4aca782846040516103ad929190610d46565b60405180910390a2505050565b6103c26106bf565b73ffffffffffffffffffffffffffffffffffffffff166103e0610275565b73ffffffffffffffffffffffffffffffffffffffff161461043f576104036106bf565b6040517f118cdaa70000000000000000000000000000000000000000000000000000000081526004016104369190610baf565b60405180910390fd5b565b804710156104885747816040517fcf47918100000000000000000000000000000000000000000000000000000000815260040161047f929190610c1d565b60405180910390fd5b5f5f8373ffffffffffffffffffffffffffffffffffffffff16836040516104ae90610da1565b5f6040518083038185875af1925050503d805f81146104e8576040519150601f19603f3d011682016040523d82523d5f602084013e6104ed565b606091505b50915091508161050157610500816106c6565b5b50505050565b5f5f5f9054906101000a900473ffffffffffffffffffffffffffffffffffffffff169050815f5f6101000a81548173ffffffffffffffffffffffffffffffffffffffff021916908373ffffffffffffffffffffffffffffffffffffffff1602179055508173ffffffffffffffffffffffffffffffffffffffff168173ffffffffffffffffffffffffffffffffffffffff167f8be0079c531659141344cd1fd0a4f28419497f9722a3daafe3b4186f6b6457e060405160405180910390a35050565b60606105ee8273ffffffffffffffffffffffffffffffffffffffff16601460ff16610709565b9050919050565b60605f600161060384610947565b0190505f8167ffffffffffffffff81111561062157610620610db5565b5b6040519080825280601f01601f1916602001820160405280156106535781602001600182028036833780820191505090505b5090505f82602083010190505b6001156106b4578080600190039150507f3031323334353637383961626364656600000000000000000000000000000000600a86061a8153600a85816106a9576106a8610de2565b5b0494505f8503610660575b819350505050919050565b5f33905090565b5f815111156106d757805160208201fd5b6040517fd6bda27500000000000000000000000000000000000000000000000000000000815260040160405180910390fd5b60605f8390505f600284600261071f9190610e3c565b6107299190610e7d565b67ffffffffffffffff81111561074257610741610db5565b5b6040519080825280601f01601f1916602001820160405280156107745781602001600182028036833780820191505090505b5090507f3000000000000000000000000000000000000000000000000000000000000000815f815181106107ab576107aa610eb0565b5b60200101907effffffffffffffffffffffffffffffffffffffffffffffffffffffffffffff191690815f1a9053507f78000000000000000000000000000000000000000000000000000000000000008160018151811061080e5761080d610eb0565b5b60200101907effffffffffffffffffffffffffffffffffffffffffffffffffffffffffffff191690815f1a9053505f600185600261084c9190610e3c565b6108569190610e7d565b90505b60018111156108f5577f3031323334353637383961626364656600000000000000000000000000000000600f84166010811061089857610897610eb0565b5b1a60f81b8282815181106108af576108ae610eb0565b5b60200101907effffffffffffffffffffffffffffffffffffffffffffffffffffffffffffff191690815f1a905350600483901c9250806108ee90610edd565b9050610859565b505f821461093c5784846040517fe22e27eb000000000000000000000000000000000000000000000000000000008152600401610933929190610c1d565b60405180910390fd5b809250505092915050565b5f5f5f90507a184f03e93ff9f4daa797ed6e38ed64bf6a1f01000000000000000083106109a3577a184f03e93ff9f4daa797ed6e38ed64bf6a1f010000000000000000838161099957610998610de2565b5b0492506040810190505b6d04ee2d6d415b85acef810000000083106109e0576d04ee2d6d415b85acef810000000083816109d6576109d5610de2565b5b0492506020810190505b662386f26fc100008310610a0f57662386f26fc100008381610a0557610a04610de2565b5b0492506010810190505b6305f5e1008310610a38576305f5e1008381610a2e57610a2d610de2565b5b0492506008810190505b6127108310610a5d576127108381610a5357610a52610de2565b5b0492506004810190505b60648310610a805760648381610a7657610a75610de2565b5b0492506002810190505b600a8310610a8f576001810190505b80915050919050565b5f819050919050565b610aaa81610a98565b82525050565b5f602082019050610ac35f830184610aa1565b92915050565b5f5ffd5b5f73ffffffffffffffffffffffffffffffffffffffff82169050919050565b5f610af682610acd565b9050919050565b610b0681610aec565b8114610b10575f5ffd5b50565b5f81359050610b2181610afd565b92915050565b610b3081610a98565b8114610b3a575f5ffd5b50565b5f81359050610b4b81610b27565b92915050565b5f5f60408385031215610b6757610b66610ac9565b5b5f610b7485828601610b13565b9250506020610b8585828601610b3d565b9150509250929050565b5f610b9982610acd565b9050919050565b610ba981610b8f565b82525050565b5f602082019050610bc25f830184610ba0565b92915050565b610bd181610b8f565b8114610bdb575f5ffd5b50565b5f81359050610bec81610bc8565b92915050565b5f60208284031215610c0757610c06610ac9565b5b5f610c1484828501610bde565b91505092915050565b5f604082019050610c305f830185610aa1565b610c3d6020830184610aa1565b9392505050565b5f81519050919050565b5f81905092915050565b8281835e5f83830152505050565b5f610c7082610c44565b610c7a8185610c4e565b9350610c8a818560208601610c58565b80840191505092915050565b7f206c6f766573206261736520626c6f636b636861696e20000000000000000000815250565b5f610cc78285610c66565b9150610cd282610c96565b601782019150610ce28284610c66565b91508190509392505050565b5f82825260208201905092915050565b5f601f19601f8301169050919050565b5f610d1882610c44565b610d228185610cee565b9350610d32818560208601610c58565b610d3b81610cfe565b840191505092915050565b5f6040820190508181035f830152610d5e8185610d0e565b9050610d6d6020830184610aa1565b9392505050565b5f81905092915050565b50565b5f610d8c5f83610d74565b9150610d9782610d7e565b5f82019050919050565b5f610dab82610d81565b9150819050919050565b7f4e487b71000000000000000000000000000000000000000000000000000000005f52604160045260245ffd5b7f4e487b71000000000000000000000000000000000000000000000000000000005f52601260045260245ffd5b7f4e487b71000000000000000000000000000000000000000000000000000000005f52601160045260245ffd5b5f610e4682610a98565b9150610e5183610a98565b9250828202610e5f81610a98565b91508282048414831517610e7657610e75610e0f565b5b5092915050565b5f610e8782610a98565b9150610e9283610a98565b9250828201905080821115610eaa57610ea9610e0f565b5b92915050565b7f4e487b71000000000000000000000000000000000000000000000000000000005f52603260045260245ffd5b5f610ee782610a98565b91505f8203610ef957610ef8610e0f565b5b60018203905091905056fea2646970667358221220ff0c78f77b48956675ad796a0caf48e40de713516f40094079dfdf6b8632cace64736f6c634300081e0033",
					"opcodes": "PUSH1 0x80 PUSH1 0x40 MSTORE CALLVALUE DUP1 ISZERO PUSH2 0xF JUMPI PUSH0 PUSH0 REVERT JUMPDEST POP PUSH20 0x82F090BAC915D15B3F361626B58EF2E9751E4324 PUSH0 PUSH20 0xFFFFFFFFFFFFFFFFFFFFFFFFFFFFFFFFFFFFFFFF AND DUP2 PUSH20 0xFFFFFFFFFFFFFFFFFFFFFFFFFFFFFFFFFFFFFFFF AND SUB PUSH2 0x95 JUMPI PUSH0 PUSH1 0x40 MLOAD PUSH32 0x1E4FBDF700000000000000000000000000000000000000000000000000000000 DUP2 MSTORE PUSH1 0x4 ADD PUSH2 0x8C SWAP2 SWAP1 PUSH2 0x1AA JUMP JUMPDEST PUSH1 0x40 MLOAD DUP1 SWAP2 SUB SWAP1 REVERT JUMPDEST PUSH2 0xA4 DUP2 PUSH2 0xAA PUSH1 0x20 SHL PUSH1 0x20 SHR JUMP JUMPDEST POP PUSH2 0x1C3 JUMP JUMPDEST PUSH0 PUSH0 PUSH0 SWAP1 SLOAD SWAP1 PUSH2 0x100 EXP SWAP1 DIV PUSH20 0xFFFFFFFFFFFFFFFFFFFFFFFFFFFFFFFFFFFFFFFF AND SWAP1 POP DUP2 PUSH0 PUSH0 PUSH2 0x100 EXP DUP2 SLOAD DUP2 PUSH20 0xFFFFFFFFFFFFFFFFFFFFFFFFFFFFFFFFFFFFFFFF MUL NOT AND SWAP1 DUP4 PUSH20 0xFFFFFFFFFFFFFFFFFFFFFFFFFFFFFFFFFFFFFFFF AND MUL OR SWAP1 SSTORE POP DUP2 PUSH20 0xFFFFFFFFFFFFFFFFFFFFFFFFFFFFFFFFFFFFFFFF AND DUP2 PUSH20 0xFFFFFFFFFFFFFFFFFFFFFFFFFFFFFFFFFFFFFFFF AND PUSH32 0x8BE0079C531659141344CD1FD0A4F28419497F9722A3DAAFE3B4186F6B6457E0 PUSH1 0x40 MLOAD PUSH1 0x40 MLOAD DUP1 SWAP2 SUB SWAP1 LOG3 POP POP JUMP JUMPDEST PUSH0 PUSH20 0xFFFFFFFFFFFFFFFFFFFFFFFFFFFFFFFFFFFFFFFF DUP3 AND SWAP1 POP SWAP2 SWAP1 POP JUMP JUMPDEST PUSH0 PUSH2 0x194 DUP3 PUSH2 0x16B JUMP JUMPDEST SWAP1 POP SWAP2 SWAP1 POP JUMP JUMPDEST PUSH2 0x1A4 DUP2 PUSH2 0x18A JUMP JUMPDEST DUP3 MSTORE POP POP JUMP JUMPDEST PUSH0 PUSH1 0x20 DUP3 ADD SWAP1 POP PUSH2 0x1BD PUSH0 DUP4 ADD DUP5 PUSH2 0x19B JUMP JUMPDEST SWAP3 SWAP2 POP POP JUMP JUMPDEST PUSH2 0xF3A DUP1 PUSH2 0x1D0 PUSH0 CODECOPY PUSH0 RETURN INVALID PUSH1 0x80 PUSH1 0x40 MSTORE PUSH1 0x4 CALLDATASIZE LT PUSH2 0x4D JUMPI PUSH0 CALLDATALOAD PUSH1 0xE0 SHR DUP1 PUSH4 0x4782F779 EQ PUSH2 0xF2 JUMPI DUP1 PUSH4 0x715018A6 EQ PUSH2 0x11A JUMPI DUP1 PUSH4 0x8DA5CB5B EQ PUSH2 0x130 JUMPI DUP1 PUSH4 0xF2FDE38B EQ PUSH2 0x15A JUMPI DUP1 PUSH4 0xF9624D66 EQ PUSH2 0x182 JUMPI PUSH2 0xA2 JUMP JUMPDEST CALLDATASIZE PUSH2 0xA2 JUMPI CALLER PUSH20 0xFFFFFFFFFFFFFFFFFFFFFFFFFFFFFFFFFFFFFFFF AND PUSH32 0x4103257EAAC983CA79A70D28F90DFC4FA16B619BB0C17EE7CAB0D4034C279624 CALLVALUE PUSH1 0x40 MLOAD PUSH2 0x98 SWAP2 SWAP1 PUSH2 0xAB0 JUMP JUMPDEST PUSH1 0x40 MLOAD DUP1 SWAP2 SUB SWAP1 LOG2 STOP JUMPDEST CALLER PUSH20 0xFFFFFFFFFFFFFFFFFFFFFFFFFFFFFFFFFFFFFFFF AND PUSH32 0x78C972371203D575D4B76368A154D92BFB45D32A57696487F3334FBBE5042C14 CALLVALUE PUSH1 0x40 MLOAD PUSH2 0xE8 SWAP2 SWAP1 PUSH2 0xAB0 JUMP JUMPDEST PUSH1 0x40 MLOAD DUP1 SWAP2 SUB SWAP1 LOG2 STOP JUMPDEST CALLVALUE DUP1 ISZERO PUSH2 0xFD JUMPI PUSH0 PUSH0 REVERT JUMPDEST POP PUSH2 0x118 PUSH1 0x4 DUP1 CALLDATASIZE SUB DUP2 ADD SWAP1 PUSH2 0x113 SWAP2 SWAP1 PUSH2 0xB51 JUMP JUMPDEST PUSH2 0x198 JUMP JUMPDEST STOP JUMPDEST CALLVALUE DUP1 ISZERO PUSH2 0x125 JUMPI PUSH0 PUSH0 REVERT JUMPDEST POP PUSH2 0x12E PUSH2 0x262 JUMP JUMPDEST STOP JUMPDEST CALLVALUE DUP1 ISZERO PUSH2 0x13B JUMPI PUSH0 PUSH0 REVERT JUMPDEST POP PUSH2 0x144 PUSH2 0x275 JUMP JUMPDEST PUSH1 0x40 MLOAD PUSH2 0x151 SWAP2 SWAP1 PUSH2 0xBAF JUMP JUMPDEST PUSH1 0x40 MLOAD DUP1 SWAP2 SUB SWAP1 RETURN JUMPDEST CALLVALUE DUP1 ISZERO PUSH2 0x165 JUMPI PUSH0 PUSH0 REVERT JUMPDEST POP PUSH2 0x180 PUSH1 0x4 DUP1 CALLDATASIZE SUB DUP2 ADD SWAP1 PUSH2 0x17B SWAP2 SWAP1 PUSH2 0xBF2 JUMP JUMPDEST PUSH2 0x29C JUMP JUMPDEST STOP JUMPDEST CALLVALUE DUP1 ISZERO PUSH2 0x18D JUMPI PUSH0 PUSH0 REVERT JUMPDEST POP PUSH2 0x196 PUSH2 0x320 JUMP JUMPDEST STOP JUMPDEST PUSH2 0x1A0 PUSH2 0x3BA JUMP JUMPDEST DUP1 SELFBALANCE LT ISZERO PUSH2 0x1E7 JUMPI DUP1 SELFBALANCE PUSH1 0x40 MLOAD PUSH32 0xCF47918100000000000000000000000000000000000000000000000000000000 DUP2 MSTORE PUSH1 0x4 ADD PUSH2 0x1DE SWAP3 SWAP2 SWAP1 PUSH2 0xC1D JUMP JUMPDEST PUSH1 0x40 MLOAD DUP1 SWAP2 SUB SWAP1 REVERT JUMPDEST PUSH2 0x210 DUP2 DUP4 PUSH20 0xFFFFFFFFFFFFFFFFFFFFFFFFFFFFFFFFFFFFFFFF AND PUSH2 0x441 SWAP1 SWAP2 SWAP1 PUSH4 0xFFFFFFFF AND JUMP JUMPDEST DUP2 PUSH20 0xFFFFFFFFFFFFFFFFFFFFFFFFFFFFFFFFFFFFFFFF AND PUSH32 0x7FCF532C15F0A6DB0BD6D0E038BEA71D30D808C7D98CB3BF7268A95BF5081B65 DUP3 PUSH1 0x40 MLOAD PUSH2 0x256 SWAP2 SWAP1 PUSH2 0xAB0 JUMP JUMPDEST PUSH1 0x40 MLOAD DUP1 SWAP2 SUB SWAP1 LOG2 POP POP JUMP JUMPDEST PUSH2 0x26A PUSH2 0x3BA JUMP JUMPDEST PUSH2 0x273 PUSH0 PUSH2 0x507 JUMP JUMPDEST JUMP JUMPDEST PUSH0 PUSH0 PUSH0 SWAP1 SLOAD SWAP1 PUSH2 0x100 EXP SWAP1 DIV PUSH20 0xFFFFFFFFFFFFFFFFFFFFFFFFFFFFFFFFFFFFFFFF AND SWAP1 POP SWAP1 JUMP JUMPDEST PUSH2 0x2A4 PUSH2 0x3BA JUMP JUMPDEST PUSH0 PUSH20 0xFFFFFFFFFFFFFFFFFFFFFFFFFFFFFFFFFFFFFFFF AND DUP2 PUSH20 0xFFFFFFFFFFFFFFFFFFFFFFFFFFFFFFFFFFFFFFFF AND SUB PUSH2 0x314 JUMPI PUSH0 PUSH1 0x40 MLOAD PUSH32 0x1E4FBDF700000000000000000000000000000000000000000000000000000000 DUP2 MSTORE PUSH1 0x4 ADD PUSH2 0x30B SWAP2 SWAP1 PUSH2 0xBAF JUMP JUMPDEST PUSH1 0x40 MLOAD DUP1 SWAP2 SUB SWAP1 REVERT JUMPDEST PUSH2 0x31D DUP2 PUSH2 0x507 JUMP JUMPDEST POP JUMP JUMPDEST PUSH2 0x328 PUSH2 0x3BA JUMP JUMPDEST PUSH0 CALLER SWAP1 POP PUSH0 TIMESTAMP SWAP1 POP PUSH0 PUSH2 0x33A DUP4 PUSH2 0x5C8 JUMP JUMPDEST PUSH2 0x343 DUP4 PUSH2 0x5F5 JUMP JUMPDEST PUSH1 0x40 MLOAD PUSH1 0x20 ADD PUSH2 0x354 SWAP3 SWAP2 SWAP1 PUSH2 0xCBC JUMP JUMPDEST PUSH1 0x40 MLOAD PUSH1 0x20 DUP2 DUP4 SUB SUB DUP2 MSTORE SWAP1 PUSH1 0x40 MSTORE SWAP1 POP DUP3 PUSH20 0xFFFFFFFFFFFFFFFFFFFFFFFFFFFFFFFFFFFFFFFF AND PUSH32 0x23D3B59785717E0022EEB4456F509A4494DFA94D2C76B69373EC74D80FA4ACA7 DUP3 DUP5 PUSH1 0x40 MLOAD PUSH2 0x3AD SWAP3 SWAP2 SWAP1 PUSH2 0xD46 JUMP JUMPDEST PUSH1 0x40 MLOAD DUP1 SWAP2 SUB SWAP1 LOG2 POP POP POP JUMP JUMPDEST PUSH2 0x3C2 PUSH2 0x6BF JUMP JUMPDEST PUSH20 0xFFFFFFFFFFFFFFFFFFFFFFFFFFFFFFFFFFFFFFFF AND PUSH2 0x3E0 PUSH2 0x275 JUMP JUMPDEST PUSH20 0xFFFFFFFFFFFFFFFFFFFFFFFFFFFFFFFFFFFFFFFF AND EQ PUSH2 0x43F JUMPI PUSH2 0x403 PUSH2 0x6BF JUMP JUMPDEST PUSH1 0x40 MLOAD PUSH32 0x118CDAA700000000000000000000000000000000000000000000000000000000 DUP2 MSTORE PUSH1 0x4 ADD PUSH2 0x436 SWAP2 SWAP1 PUSH2 0xBAF JUMP JUMPDEST PUSH1 0x40 MLOAD DUP1 SWAP2 SUB SWAP1 REVERT JUMPDEST JUMP JUMPDEST DUP1 SELFBALANCE LT ISZERO PUSH2 0x488 JUMPI SELFBALANCE DUP2 PUSH1 0x40 MLOAD PUSH32 0xCF47918100000000000000000000000000000000000000000000000000000000 DUP2 MSTORE PUSH1 0x4 ADD PUSH2 0x47F SWAP3 SWAP2 SWAP1 PUSH2 0xC1D JUMP JUMPDEST PUSH1 0x40 MLOAD DUP1 SWAP2 SUB SWAP1 REVERT JUMPDEST PUSH0 PUSH0 DUP4 PUSH20 0xFFFFFFFFFFFFFFFFFFFFFFFFFFFFFFFFFFFFFFFF AND DUP4 PUSH1 0x40 MLOAD PUSH2 0x4AE SWAP1 PUSH2 0xDA1 JUMP JUMPDEST PUSH0 PUSH1 0x40 MLOAD DUP1 DUP4 SUB DUP2 DUP6 DUP8 GAS CALL SWAP3 POP POP POP RETURNDATASIZE DUP1 PUSH0 DUP2 EQ PUSH2 0x4E8 JUMPI PUSH1 0x40 MLOAD SWAP2 POP PUSH1 0x1F NOT PUSH1 0x3F RETURNDATASIZE ADD AND DUP3 ADD PUSH1 0x40 MSTORE RETURNDATASIZE DUP3 MSTORE RETURNDATASIZE PUSH0 PUSH1 0x20 DUP5 ADD RETURNDATACOPY PUSH2 0x4ED JUMP JUMPDEST PUSH1 0x60 SWAP2 POP JUMPDEST POP SWAP2 POP SWAP2 POP DUP2 PUSH2 0x501 JUMPI PUSH2 0x500 DUP2 PUSH2 0x6C6 JUMP JUMPDEST JUMPDEST POP POP POP POP JUMP JUMPDEST PUSH0 PUSH0 PUSH0 SWAP1 SLOAD SWAP1 PUSH2 0x100 EXP SWAP1 DIV PUSH20 0xFFFFFFFFFFFFFFFFFFFFFFFFFFFFFFFFFFFFFFFF AND SWAP1 POP DUP2 PUSH0 PUSH0 PUSH2 0x100 EXP DUP2 SLOAD DUP2 PUSH20 0xFFFFFFFFFFFFFFFFFFFFFFFFFFFFFFFFFFFFFFFF MUL NOT AND SWAP1 DUP4 PUSH20 0xFFFFFFFFFFFFFFFFFFFFFFFFFFFFFFFFFFFFFFFF AND MUL OR SWAP1 SSTORE POP DUP2 PUSH20 0xFFFFFFFFFFFFFFFFFFFFFFFFFFFFFFFFFFFFFFFF AND DUP2 PUSH20 0xFFFFFFFFFFFFFFFFFFFFFFFFFFFFFFFFFFFFFFFF AND PUSH32 0x8BE0079C531659141344CD1FD0A4F28419497F9722A3DAAFE3B4186F6B6457E0 PUSH1 0x40 MLOAD PUSH1 0x40 MLOAD DUP1 SWAP2 SUB SWAP1 LOG3 POP POP JUMP JUMPDEST PUSH1 0x60 PUSH2 0x5EE DUP3 PUSH20 0xFFFFFFFFFFFFFFFFFFFFFFFFFFFFFFFFFFFFFFFF AND PUSH1 0x14 PUSH1 0xFF AND PUSH2 0x709 JUMP JUMPDEST SWAP1 POP SWAP2 SWAP1 POP JUMP JUMPDEST PUSH1 0x60 PUSH0 PUSH1 0x1 PUSH2 0x603 DUP5 PUSH2 0x947 JUMP JUMPDEST ADD SWAP1 POP PUSH0 DUP2 PUSH8 0xFFFFFFFFFFFFFFFF DUP2 GT ISZERO PUSH2 0x621 JUMPI PUSH2 0x620 PUSH2 0xDB5 JUMP JUMPDEST JUMPDEST PUSH1 0x40 MLOAD SWAP1 DUP1 DUP3 MSTORE DUP1 PUSH1 0x1F ADD PUSH1 0x1F NOT AND PUSH1 0x20 ADD DUP3 ADD PUSH1 0x40 MSTORE DUP1 ISZERO PUSH2 0x653 JUMPI DUP2 PUSH1 0x20 ADD PUSH1 0x1 DUP3 MUL DUP1 CALLDATASIZE DUP4 CALLDATACOPY DUP1 DUP3 ADD SWAP2 POP POP SWAP1 POP JUMPDEST POP SWAP1 POP PUSH0 DUP3 PUSH1 0x20 DUP4 ADD ADD SWAP1 POP JUMPDEST PUSH1 0x1 ISZERO PUSH2 0x6B4 JUMPI DUP1 DUP1 PUSH1 0x1 SWAP1 SUB SWAP2 POP POP PUSH32 0x3031323334353637383961626364656600000000000000000000000000000000 PUSH1 0xA DUP7 MOD BYTE DUP2 MSTORE8 PUSH1 0xA DUP6 DUP2 PUSH2 0x6A9 JUMPI PUSH2 0x6A8 PUSH2 0xDE2 JUMP JUMPDEST JUMPDEST DIV SWAP5 POP PUSH0 DUP6 SUB PUSH2 0x660 JUMPI JUMPDEST DUP2 SWAP4 POP POP POP POP SWAP2 SWAP1 POP JUMP JUMPDEST PUSH0 CALLER SWAP1 POP SWAP1 JUMP JUMPDEST PUSH0 DUP2 MLOAD GT ISZERO PUSH2 0x6D7 JUMPI DUP1 MLOAD PUSH1 0x20 DUP3 ADD REVERT JUMPDEST PUSH1 0x40 MLOAD PUSH32 0xD6BDA27500000000000000000000000000000000000000000000000000000000 DUP2 MSTORE PUSH1 0x4 ADD PUSH1 0x40 MLOAD DUP1 SWAP2 SUB SWAP1 REVERT JUMPDEST PUSH1 0x60 PUSH0 DUP4 SWAP1 POP PUSH0 PUSH1 0x2 DUP5 PUSH1 0x2 PUSH2 0x71F SWAP2 SWAP1 PUSH2 0xE3C JUMP JUMPDEST PUSH2 0x729 SWAP2 SWAP1 PUSH2 0xE7D JUMP JUMPDEST PUSH8 0xFFFFFFFFFFFFFFFF DUP2 GT ISZERO PUSH2 0x742 JUMPI PUSH2 0x741 PUSH2 0xDB5 JUMP JUMPDEST JUMPDEST PUSH1 0x40 MLOAD SWAP1 DUP1 DUP3 MSTORE DUP1 PUSH1 0x1F ADD PUSH1 0x1F NOT AND PUSH1 0x20 ADD DUP3 ADD PUSH1 0x40 MSTORE DUP1 ISZERO PUSH2 0x774 JUMPI DUP2 PUSH1 0x20 ADD PUSH1 0x1 DUP3 MUL DUP1 CALLDATASIZE DUP4 CALLDATACOPY DUP1 DUP3 ADD SWAP2 POP POP SWAP1 POP JUMPDEST POP SWAP1 POP PUSH32 0x3000000000000000000000000000000000000000000000000000000000000000 DUP2 PUSH0 DUP2 MLOAD DUP2 LT PUSH2 0x7AB JUMPI PUSH2 0x7AA PUSH2 0xEB0 JUMP JUMPDEST JUMPDEST PUSH1 0x20 ADD ADD SWAP1 PUSH31 0xFFFFFFFFFFFFFFFFFFFFFFFFFFFFFFFFFFFFFFFFFFFFFFFFFFFFFFFFFFFFFF NOT AND SWAP1 DUP2 PUSH0 BYTE SWAP1 MSTORE8 POP PUSH32 0x7800000000000000000000000000000000000000000000000000000000000000 DUP2 PUSH1 0x1 DUP2 MLOAD DUP2 LT PUSH2 0x80E JUMPI PUSH2 0x80D PUSH2 0xEB0 JUMP JUMPDEST JUMPDEST PUSH1 0x20 ADD ADD SWAP1 PUSH31 0xFFFFFFFFFFFFFFFFFFFFFFFFFFFFFFFFFFFFFFFFFFFFFFFFFFFFFFFFFFFFFF NOT AND SWAP1 DUP2 PUSH0 BYTE SWAP1 MSTORE8 POP PUSH0 PUSH1 0x1 DUP6 PUSH1 0x2 PUSH2 0x84C SWAP2 SWAP1 PUSH2 0xE3C JUMP JUMPDEST PUSH2 0x856 SWAP2 SWAP1 PUSH2 0xE7D JUMP JUMPDEST SWAP1 POP JUMPDEST PUSH1 0x1 DUP2 GT ISZERO PUSH2 0x8F5 JUMPI PUSH32 0x3031323334353637383961626364656600000000000000000000000000000000 PUSH1 0xF DUP5 AND PUSH1 0x10 DUP2 LT PUSH2 0x898 JUMPI PUSH2 0x897 PUSH2 0xEB0 JUMP JUMPDEST JUMPDEST BYTE PUSH1 0xF8 SHL DUP3 DUP3 DUP2 MLOAD DUP2 LT PUSH2 0x8AF JUMPI PUSH2 0x8AE PUSH2 0xEB0 JUMP JUMPDEST JUMPDEST PUSH1 0x20 ADD ADD SWAP1 PUSH31 0xFFFFFFFFFFFFFFFFFFFFFFFFFFFFFFFFFFFFFFFFFFFFFFFFFFFFFFFFFFFFFF NOT AND SWAP1 DUP2 PUSH0 BYTE SWAP1 MSTORE8 POP PUSH1 0x4 DUP4 SWAP1 SHR SWAP3 POP DUP1 PUSH2 0x8EE SWAP1 PUSH2 0xEDD JUMP JUMPDEST SWAP1 POP PUSH2 0x859 JUMP JUMPDEST POP PUSH0 DUP3 EQ PUSH2 0x93C JUMPI DUP5 DUP5 PUSH1 0x40 MLOAD PUSH32 0xE22E27EB00000000000000000000000000000000000000000000000000000000 DUP2 MSTORE PUSH1 0x4 ADD PUSH2 0x933 SWAP3 SWAP2 SWAP1 PUSH2 0xC1D JUMP JUMPDEST PUSH1 0x40 MLOAD DUP1 SWAP2 SUB SWAP1 REVERT JUMPDEST DUP1 SWAP3 POP POP POP SWAP3 SWAP2 POP POP JUMP JUMPDEST PUSH0 PUSH0 PUSH0 SWAP1 POP PUSH27 0x184F03E93FF9F4DAA797ED6E38ED64BF6A1F010000000000000000 DUP4 LT PUSH2 0x9A3 JUMPI PUSH27 0x184F03E93FF9F4DAA797ED6E38ED64BF6A1F010000000000000000 DUP4 DUP2 PUSH2 0x999 JUMPI PUSH2 0x998 PUSH2 0xDE2 JUMP JUMPDEST JUMPDEST DIV SWAP3 POP PUSH1 0x40 DUP2 ADD SWAP1 POP JUMPDEST PUSH14 0x4EE2D6D415B85ACEF8100000000 DUP4 LT PUSH2 0x9E0 JUMPI PUSH14 0x4EE2D6D415B85ACEF8100000000 DUP4 DUP2 PUSH2 0x9D6 JUMPI PUSH2 0x9D5 PUSH2 0xDE2 JUMP JUMPDEST JUMPDEST DIV SWAP3 POP PUSH1 0x20 DUP2 ADD SWAP1 POP JUMPDEST PUSH7 0x2386F26FC10000 DUP4 LT PUSH2 0xA0F JUMPI PUSH7 0x2386F26FC10000 DUP4 DUP2 PUSH2 0xA05 JUMPI PUSH2 0xA04 PUSH2 0xDE2 JUMP JUMPDEST JUMPDEST DIV SWAP3 POP PUSH1 0x10 DUP2 ADD SWAP1 POP JUMPDEST PUSH4 0x5F5E100 DUP4 LT PUSH2 0xA38 JUMPI PUSH4 0x5F5E100 DUP4 DUP2 PUSH2 0xA2E JUMPI PUSH2 0xA2D PUSH2 0xDE2 JUMP JUMPDEST JUMPDEST DIV SWAP3 POP PUSH1 0x8 DUP2 ADD SWAP1 POP JUMPDEST PUSH2 0x2710 DUP4 LT PUSH2 0xA5D JUMPI PUSH2 0x2710 DUP4 DUP2 PUSH2 0xA53 JUMPI PUSH2 0xA52 PUSH2 0xDE2 JUMP JUMPDEST JUMPDEST DIV SWAP3 POP PUSH1 0x4 DUP2 ADD SWAP1 POP JUMPDEST PUSH1 0x64 DUP4 LT PUSH2 0xA80 JUMPI PUSH1 0x64 DUP4 DUP2 PUSH2 0xA76 JUMPI PUSH2 0xA75 PUSH2 0xDE2 JUMP JUMPDEST JUMPDEST DIV SWAP3 POP PUSH1 0x2 DUP2 ADD SWAP1 POP JUMPDEST PUSH1 0xA DUP4 LT PUSH2 0xA8F JUMPI PUSH1 0x1 DUP2 ADD SWAP1 POP JUMPDEST DUP1 SWAP2 POP POP SWAP2 SWAP1 POP JUMP JUMPDEST PUSH0 DUP2 SWAP1 POP SWAP2 SWAP1 POP JUMP JUMPDEST PUSH2 0xAAA DUP2 PUSH2 0xA98 JUMP JUMPDEST DUP3 MSTORE POP POP JUMP JUMPDEST PUSH0 PUSH1 0x20 DUP3 ADD SWAP1 POP PUSH2 0xAC3 PUSH0 DUP4 ADD DUP5 PUSH2 0xAA1 JUMP JUMPDEST SWAP3 SWAP2 POP POP JUMP JUMPDEST PUSH0 PUSH0 REVERT JUMPDEST PUSH0 PUSH20 0xFFFFFFFFFFFFFFFFFFFFFFFFFFFFFFFFFFFFFFFF DUP3 AND SWAP1 POP SWAP2 SWAP1 POP JUMP JUMPDEST PUSH0 PUSH2 0xAF6 DUP3 PUSH2 0xACD JUMP JUMPDEST SWAP1 POP SWAP2 SWAP1 POP JUMP JUMPDEST PUSH2 0xB06 DUP2 PUSH2 0xAEC JUMP JUMPDEST DUP2 EQ PUSH2 0xB10 JUMPI PUSH0 PUSH0 REVERT JUMPDEST POP JUMP JUMPDEST PUSH0 DUP2 CALLDATALOAD SWAP1 POP PUSH2 0xB21 DUP2 PUSH2 0xAFD JUMP JUMPDEST SWAP3 SWAP2 POP POP JUMP JUMPDEST PUSH2 0xB30 DUP2 PUSH2 0xA98 JUMP JUMPDEST DUP2 EQ PUSH2 0xB3A JUMPI PUSH0 PUSH0 REVERT JUMPDEST POP JUMP JUMPDEST PUSH0 DUP2 CALLDATALOAD SWAP1 POP PUSH2 0xB4B DUP2 PUSH2 0xB27 JUMP JUMPDEST SWAP3 SWAP2 POP POP JUMP JUMPDEST PUSH0 PUSH0 PUSH1 0x40 DUP4 DUP6 SUB SLT ISZERO PUSH2 0xB67 JUMPI PUSH2 0xB66 PUSH2 0xAC9 JUMP JUMPDEST JUMPDEST PUSH0 PUSH2 0xB74 DUP6 DUP3 DUP7 ADD PUSH2 0xB13 JUMP JUMPDEST SWAP3 POP POP PUSH1 0x20 PUSH2 0xB85 DUP6 DUP3 DUP7 ADD PUSH2 0xB3D JUMP JUMPDEST SWAP2 POP POP SWAP3 POP SWAP3 SWAP1 POP JUMP JUMPDEST PUSH0 PUSH2 0xB99 DUP3 PUSH2 0xACD JUMP JUMPDEST SWAP1 POP SWAP2 SWAP1 POP JUMP JUMPDEST PUSH2 0xBA9 DUP2 PUSH2 0xB8F JUMP JUMPDEST DUP3 MSTORE POP POP JUMP JUMPDEST PUSH0 PUSH1 0x20 DUP3 ADD SWAP1 POP PUSH2 0xBC2 PUSH0 DUP4 ADD DUP5 PUSH2 0xBA0 JUMP JUMPDEST SWAP3 SWAP2 POP POP JUMP JUMPDEST PUSH2 0xBD1 DUP2 PUSH2 0xB8F JUMP JUMPDEST DUP2 EQ PUSH2 0xBDB JUMPI PUSH0 PUSH0 REVERT JUMPDEST POP JUMP JUMPDEST PUSH0 DUP2 CALLDATALOAD SWAP1 POP PUSH2 0xBEC DUP2 PUSH2 0xBC8 JUMP JUMPDEST SWAP3 SWAP2 POP POP JUMP JUMPDEST PUSH0 PUSH1 0x20 DUP3 DUP5 SUB SLT ISZERO PUSH2 0xC07 JUMPI PUSH2 0xC06 PUSH2 0xAC9 JUMP JUMPDEST JUMPDEST PUSH0 PUSH2 0xC14 DUP5 DUP3 DUP6 ADD PUSH2 0xBDE JUMP JUMPDEST SWAP2 POP POP SWAP3 SWAP2 POP POP JUMP JUMPDEST PUSH0 PUSH1 0x40 DUP3 ADD SWAP1 POP PUSH2 0xC30 PUSH0 DUP4 ADD DUP6 PUSH2 0xAA1 JUMP JUMPDEST PUSH2 0xC3D PUSH1 0x20 DUP4 ADD DUP5 PUSH2 0xAA1 JUMP JUMPDEST SWAP4 SWAP3 POP POP POP JUMP JUMPDEST PUSH0 DUP2 MLOAD SWAP1 POP SWAP2 SWAP1 POP JUMP JUMPDEST PUSH0 DUP2 SWAP1 POP SWAP3 SWAP2 POP POP JUMP JUMPDEST DUP3 DUP2 DUP4 MCOPY PUSH0 DUP4 DUP4 ADD MSTORE POP POP POP JUMP JUMPDEST PUSH0 PUSH2 0xC70 DUP3 PUSH2 0xC44 JUMP JUMPDEST PUSH2 0xC7A DUP2 DUP6 PUSH2 0xC4E JUMP JUMPDEST SWAP4 POP PUSH2 0xC8A DUP2 DUP6 PUSH1 0x20 DUP7 ADD PUSH2 0xC58 JUMP JUMPDEST DUP1 DUP5 ADD SWAP2 POP POP SWAP3 SWAP2 POP POP JUMP JUMPDEST PUSH32 0x206C6F766573206261736520626C6F636B636861696E20000000000000000000 DUP2 MSTORE POP JUMP JUMPDEST PUSH0 PUSH2 0xCC7 DUP3 DUP6 PUSH2 0xC66 JUMP JUMPDEST SWAP2 POP PUSH2 0xCD2 DUP3 PUSH2 0xC96 JUMP JUMPDEST PUSH1 0x17 DUP3 ADD SWAP2 POP PUSH2 0xCE2 DUP3 DUP5 PUSH2 0xC66 JUMP JUMPDEST SWAP2 POP DUP2 SWAP1 POP SWAP4 SWAP3 POP POP POP JUMP JUMPDEST PUSH0 DUP3 DUP3 MSTORE PUSH1 0x20 DUP3 ADD SWAP1 POP SWAP3 SWAP2 POP POP JUMP JUMPDEST PUSH0 PUSH1 0x1F NOT PUSH1 0x1F DUP4 ADD AND SWAP1 POP SWAP2 SWAP1 POP JUMP JUMPDEST PUSH0 PUSH2 0xD18 DUP3 PUSH2 0xC44 JUMP JUMPDEST PUSH2 0xD22 DUP2 DUP6 PUSH2 0xCEE JUMP JUMPDEST SWAP4 POP PUSH2 0xD32 DUP2 DUP6 PUSH1 0x20 DUP7 ADD PUSH2 0xC58 JUMP JUMPDEST PUSH2 0xD3B DUP2 PUSH2 0xCFE JUMP JUMPDEST DUP5 ADD SWAP2 POP POP SWAP3 SWAP2 POP POP JUMP JUMPDEST PUSH0 PUSH1 0x40 DUP3 ADD SWAP1 POP DUP2 DUP2 SUB PUSH0 DUP4 ADD MSTORE PUSH2 0xD5E DUP2 DUP6 PUSH2 0xD0E JUMP JUMPDEST SWAP1 POP PUSH2 0xD6D PUSH1 0x20 DUP4 ADD DUP5 PUSH2 0xAA1 JUMP JUMPDEST SWAP4 SWAP3 POP POP POP JUMP JUMPDEST PUSH0 DUP2 SWAP1 POP SWAP3 SWAP2 POP POP JUMP JUMPDEST POP JUMP JUMPDEST PUSH0 PUSH2 0xD8C PUSH0 DUP4 PUSH2 0xD74 JUMP JUMPDEST SWAP2 POP PUSH2 0xD97 DUP3 PUSH2 0xD7E JUMP JUMPDEST PUSH0 DUP3 ADD SWAP1 POP SWAP2 SWAP1 POP JUMP JUMPDEST PUSH0 PUSH2 0xDAB DUP3 PUSH2 0xD81 JUMP JUMPDEST SWAP2 POP DUP2 SWAP1 POP SWAP2 SWAP1 POP JUMP JUMPDEST PUSH32 0x4E487B7100000000000000000000000000000000000000000000000000000000 PUSH0 MSTORE PUSH1 0x41 PUSH1 0x4 MSTORE PUSH1 0x24 PUSH0 REVERT JUMPDEST PUSH32 0x4E487B7100000000000000000000000000000000000000000000000000000000 PUSH0 MSTORE PUSH1 0x12 PUSH1 0x4 MSTORE PUSH1 0x24 PUSH0 REVERT JUMPDEST PUSH32 0x4E487B7100000000000000000000000000000000000000000000000000000000 PUSH0 MSTORE PUSH1 0x11 PUSH1 0x4 MSTORE PUSH1 0x24 PUSH0 REVERT JUMPDEST PUSH0 PUSH2 0xE46 DUP3 PUSH2 0xA98 JUMP JUMPDEST SWAP2 POP PUSH2 0xE51 DUP4 PUSH2 0xA98 JUMP JUMPDEST SWAP3 POP DUP3 DUP3 MUL PUSH2 0xE5F DUP2 PUSH2 0xA98 JUMP JUMPDEST SWAP2 POP DUP3 DUP3 DIV DUP5 EQ DUP4 ISZERO OR PUSH2 0xE76 JUMPI PUSH2 0xE75 PUSH2 0xE0F JUMP JUMPDEST JUMPDEST POP SWAP3 SWAP2 POP POP JUMP JUMPDEST PUSH0 PUSH2 0xE87 DUP3 PUSH2 0xA98 JUMP JUMPDEST SWAP2 POP PUSH2 0xE92 DUP4 PUSH2 0xA98 JUMP JUMPDEST SWAP3 POP DUP3 DUP3 ADD SWAP1 POP DUP1 DUP3 GT ISZERO PUSH2 0xEAA JUMPI PUSH2 0xEA9 PUSH2 0xE0F JUMP JUMPDEST JUMPDEST SWAP3 SWAP2 POP POP JUMP JUMPDEST PUSH32 0x4E487B7100000000000000000000000000000000000000000000000000000000 PUSH0 MSTORE PUSH1 0x32 PUSH1 0x4 MSTORE PUSH1 0x24 PUSH0 REVERT JUMPDEST PUSH0 PUSH2 0xEE7 DUP3 PUSH2 0xA98 JUMP JUMPDEST SWAP2 POP PUSH0 DUP3 SUB PUSH2 0xEF9 JUMPI PUSH2 0xEF8 PUSH2 0xE0F JUMP JUMPDEST JUMPDEST PUSH1 0x1 DUP3 SUB SWAP1 POP SWAP2 SWAP1 POP JUMP INVALID LOG2 PUSH5 0x6970667358 0x22 SLT KECCAK256 SELFDESTRUCT 0xC PUSH25 0xF77B48956675AD796A0CAF48E40DE713516F40094079DFDF6B DUP7 ORIGIN 0xCA 0xCE PUSH5 0x736F6C6343 STOP ADDMOD 0x1E STOP CALLER "
				},
				"gasEstimates": {
					"creation": {
						"codeDepositCost": "779600",
						"executionCost": "infinite",
						"totalCost": "infinite"
					},
					"external": {
						"": "1742",
						"hellobase()": "infinite",
						"owner()": "2536",
						"renounceOwnership()": "infinite",
						"transferOwnership(address)": "infinite",
						"withdrawETH(address,uint256)": "infinite"
					}
				},
				"methodIdentifiers": {
					"hellobase()": "f9624d66",
					"owner()": "8da5cb5b",
					"renounceOwnership()": "715018a6",
					"transferOwnership(address)": "f2fde38b",
					"withdrawETH(address,uint256)": "4782f779"
				}
			},
			"storageLayout": {
				"storage": [
					{
						"astId": 8,
						"contract": "contracts/baselover.sol:MyContract",
						"label": "_owner",
						"offset": 0,
						"slot": "0",
						"type": "t_address"
					}
				],
				"types": {
					"t_address": {
						"encoding": "inplace",
						"label": "address",
						"numberOfBytes": "20"
					}
				}
			},
			"userdoc": {
				"kind": "user",
				"methods": {},
				"version": 1
			}
		}
	}
}