{
	"data": {
		"bytecode": {
			"linkReferences": {},
			"object": "608060405234801561000f575f5ffd5b507382f090bac915d15b3f361626b58ef2e9751e43245f73ffffffffffffffffffffffffffffffffffffffff168173ffffffffffffffffffffffffffffffffffffffff1603610095575f6040517f1e4fbdf700000000000000000000000000000000000000000000000000000000815260040161008c91906101aa565b60405180910390fd5b6100a4816100aa60201b60201c565b506101c3565b5f5f5f9054906101000a900473ffffffffffffffffffffffffffffffffffffffff169050815f5f6101000a81548173ffffffffffffffffffffffffffffffffffffffff021916908373ffffffffffffffffffffffffffffffffffffffff1602179055508173ffffffffffffffffffffffffffffffffffffffff168173ffffffffffffffffffffffffffffffffffffffff167f8be0079c531659141344cd1fd0a4f28419497f9722a3daafe3b4186f6b6457e060405160405180910390a35050565b5f73ffffffffffffffffffffffffffffffffffffffff82169050919050565b5f6101948261016b565b9050919050565b6101a48161018a565b82525050565b5f6020820190506101bd5f83018461019b565b92915050565b610f3a806101d05f395ff3fe60806040526004361061004d575f3560e01c80634782f779146100f2578063715018a61461011a5780638da5cb5b14610130578063f2fde38b1461015a578063f9624d6614610182576100a2565b366100a2573373ffffffffffffffffffffffffffffffffffffffff167f4103257eaac983ca79a70d28f90dfc4fa16b619bb0c17ee7cab0d4034c279624346040516100989190610ab0565b60405180910390a2005b3373ffffffffffffffffffffffffffffffffffffffff167f78c972371203d575d4b76368a154d92bfb45d32a57696487f3334fbbe5042c14346040516100e89190610ab0565b60405180910390a2005b3480156100fd575f5ffd5b5061011860048036038101906101139190610b51565b610198565b005b348015610125575f5ffd5b5061012e610262565b005b34801561013b575f5ffd5b50610144610275565b6040516101519190610baf565b60405180910390f35b348015610165575f5ffd5b50610180600480360381019061017b9190610bf2565b61029c565b005b34801561018d575f5ffd5b50610196610320565b005b6101a06103ba565b804710156101e75780476040517fcf4791810000000000000000000000000000000000000000000000000000000081526004016101de929190610c1d565b60405180910390fd5b610210818373ffffffffffffffffffffffffffffffffffffffff1661044190919063ffffffff16565b8173ffffffffffffffffffffffffffffffffffffffff167f7fcf532c15f0a6db0bd6d0e038bea71d30d808c7d98cb3bf7268a95bf5081b65826040516102569190610ab0565b60405180910390a25050565b61026a6103ba565b6102735f610507565b565b5f5f5f9054906101000a900473ffffffffffffffffffffffffffffffffffffffff16905090565b6102a46103ba565b5f73ffffffffffffffffffffffffffffffffffffffff168173ffffffffffffffffffffffffffffffffffffffff1603610314575f6040517f1e4fbdf700000000000000000000000000000000000000000000000000000000815260040161030b9190610baf565b60405180910390fd5b61031d81610507565b50565b6103286103ba565b5f3390505f4290505f61033a836105c8565b610343836105f5565b604051602001610354929190610cbc565b60405160208183030381529060405290508273ffffffffffffffffffffffffffffffffffffffff167f23d3b59785717e0022eeb4456f509a4494dfa94d2c76b69373ec74d80fa4aca782846040516103ad929190610d46565b60405180910390a2505050565b6103c26106bf565b73ffffffffffffffffffffffffffffffffffffffff166103e0610275565b73ffffffffffffffffffffffffffffffffffffffff161461043f576104036106bf565b6040517f118cdaa70000000000000000000000000000000000000000000000000000000081526004016104369190610baf565b60405180910390fd5b565b804710156104885747816040517fcf47918100000000000000000000000000000000000000000000000000000000815260040161047f929190610c1d565b60405180910390fd5b5f5f8373ffffffffffffffffffffffffffffffffffffffff16836040516104ae90610da1565b5f6040518083038185875af1925050503d805f81146104e8576040519150601f19603f3d011682016040523d82523d5f602084013e6104ed565b606091505b50915091508161050157610500816106c6565b5b50505050565b5f5f5f9054906101000a900473ffffffffffffffffffffffffffffffffffffffff169050815f5f6101000a81548173ffffffffffffffffffffffffffffffffffffffff021916908373ffffffffffffffffffffffffffffffffffffffff1602179055508173ffffffffffffffffffffffffffffffffffffffff168173ffffffffffffffffffffffffffffffffffffffff167f8be0079c531659141344cd1fd0a4f28419497f9722a3daafe3b4186f6b6457e060405160405180910390a35050565b60606105ee8273ffffffffffffffffffffffffffffffffffffffff16601460ff16610709565b9050919050565b60605f600161060384610947565b0190505f8167ffffffffffffffff81111561062157610620610db5565b5b6040519080825280601f01601f1916602001820160405280156106535781602001600182028036833780820191505090505b5090505f82602083010190505b6001156106b4578080600190039150507f3031323334353637383961626364656600000000000000000000000000000000600a86061a8153600a85816106a9576106a8610de2565b5b0494505f8503610660575b819350505050919050565b5f33905090565b5f815111156106d757805160208201fd5b6040517fd6bda27500000000000000000000000000000000000000000000000000000000815260040160405180910390fd5b60605f8390505f600284600261071f9190610e3c565b6107299190610e7d565b67ffffffffffffffff81111561074257610741610db5565b5b6040519080825280601f01601f1916602001820160405280156107745781602001600182028036833780820191505090505b5090507f3000000000000000000000000000000000000000000000000000000000000000815f815181106107ab576107aa610eb0565b5b60200101907effffffffffffffffffffffffffffffffffffffffffffffffffffffffffffff191690815f1a9053507f78000000000000000000000000000000000000000000000000000000000000008160018151811061080e5761080d610eb0565b5b60200101907effffffffffffffffffffffffffffffffffffffffffffffffffffffffffffff191690815f1a9053505f600185600261084c9190610e3c565b6108569190610e7d565b90505b60018111156108f5577f3031323334353637383961626364656600000000000000000000000000000000600f84166010811061089857610897610eb0565b5b1a60f81b8282815181106108af576108ae610eb0565b5b60200101907effffffffffffffffffffffffffffffffffffffffffffffffffffffffffffff191690815f1a905350600483901c9250806108ee90610edd565b9050610859565b505f821461093c5784846040517fe22e27eb000000000000000000000000000000000000000000000000000000008152600401610933929190610c1d565b60405180910390fd5b809250505092915050565b5f5f5f90507a184f03e93ff9f4daa797ed6e38ed64bf6a1f01000000000000000083106109a3577a184f03e93ff9f4daa797ed6e38ed64bf6a1f010000000000000000838161099957610998610de2565b5b0492506040810190505b6d04ee2d6d415b85acef810000000083106109e0576d04ee2d6d415b85acef810000000083816109d6576109d5610de2565b5b0492506020810190505b662386f26fc100008310610a0f57662386f26fc100008381610a0557610a04610de2565b5b0492506010810190505b6305f5e1008310610a38576305f5e1008381610a2e57610a2d610de2565b5b0492506008810190505b6127108310610a5d576127108381610a5357610a52610de2565b5b0492506004810190505b60648310610a805760648381610a7657610a75610de2565b5b0492506002810190505b600a8310610a8f576001810190505b80915050919050565b5f819050919050565b610aaa81610a98565b82525050565b5f602082019050610ac35f830184610aa1565b92915050565b5f5ffd5b5f73ffffffffffffffffffffffffffffffffffffffff82169050919050565b5f610af682610acd565b9050919050565b610b0681610aec565b8114610b10575f5ffd5b50565b5f81359050610b2181610afd565b92915050565b610b3081610a98565b8114610b3a575f5ffd5b50565b5f81359050610b4b81610b27565b92915050565b5f5f60408385031215610b6757610b66610ac9565b5b5f610b7485828601610b13565b9250506020610b8585828601610b3d565b9150509250929050565b5f610b9982610acd565b9050919050565b610ba981610b8f565b82525050565b5f602082019050610bc25f830184610ba0565b92915050565b610bd181610b8f565b8114610bdb575f5ffd5b50565b5f81359050610bec81610bc8565b92915050565b5f60208284031215610c0757610c06610ac9565b5b5f610c1484828501610bde565b91505092915050565b5f604082019050610c305f830185610aa1565b610c3d6020830184610aa1565b9392505050565b5f81519050919050565b5f81905092915050565b8281835e5f83830152505050565b5f610c7082610c44565b610c7a8185610c4e565b9350610c8a818560208601610c58565b80840191505092915050565b7f206c6f766573206261736520626c6f636b636861696e20000000000000000000815250565b5f610cc78285610c66565b9150610cd282610c96565b601782019150610ce28284610c66565b91508190509392505050565b5f82825260208201905092915050565b5f601f19601f8301169050919050565b5f610d1882610c44565b610d228185610cee565b9350610d32818560208601610c58565b610d3b81610cfe565b840191505092915050565b5f6040820190508181035f830152610d5e8185610d0e565b9050610d6d6020830184610aa1565b9392505050565b5f81905092915050565b50565b5f610d8c5f83610d74565b9150610d9782610d7e565b5f82019050919050565b5f610dab82610d81565b9150819050919050565b7f4e487b71000000000000000000000000000000000000000000000000000000005f52604160045260245ffd5b7f4e487b71000000000000000000000000000000000000000000000000000000005f52601260045260245ffd5b7f4e487b71000000000000000000000000000000000000000000000000000000005f52601160045260245ffd5b5f610e4682610a98565b9150610e5183610a98565b9250828202610e5f81610a98565b91508282048414831517610e7657610e75610e0f565b5b5092915050565b5f610e8782610a98565b9150610e9283610a98565b9250828201905080821115610eaa57610ea9610e0f565b5b92915050565b7f4e487b71000000000000000000000000000000000000000000000000000000005f52603260045260245ffd5b5f610ee782610a98565b91505f8203610ef957610ef8610e0f565b5b60018203905091905056fea2646970667358221220ff0c78f77b48956675ad796a0caf48e40de713516f40094079dfdf6b8632cace64736f6c634300081e0033",
			"opcodes": "PUSH1 0x80 PUSH1 0x40 MSTORE CALLVALUE DUP1 ISZERO PUSH2 0xF JUMPI PUSH0 PUSH0 REVERT JUMPDEST POP PUSH20 0x82F090BAC915D15B3F361626B58EF2E9751E4324 PUSH0 PUSH20 0xFFFFFFFFFFFFFFFFFFFFFFFFFFFFFFFFFFFFFFFF AND DUP2 PUSH20 0xFFFFFFFFFFFFFFFFFFFFFFFFFFFFFFFFFFFFFFFF AND SUB PUSH2 0x95 JUMPI PUSH0 PUSH1 0x40 MLOAD PUSH32 0x1E4FBDF700000000000000000000000000000000000000000000000000000000 DUP2 MSTORE PUSH1 0x4 ADD PUSH2 0x8C SWAP2 SWAP1 PUSH2 0x1AA JUMP JUMPDEST PUSH1 0x40 MLOAD DUP1 SWAP2 SUB SWAP1 REVERT JUMPDEST PUSH2 0xA4 DUP2 PUSH2 0xAA PUSH1 0x20 SHL PUSH1 0x20 SHR JUMP JUMPDEST POP PUSH2 0x1C3 JUMP JUMPDEST PUSH0 PUSH0 PUSH0 SWAP1 SLOAD SWAP1 PUSH2 0x100 EXP SWAP1 DIV PUSH20 0xFFFFFFFFFFFFFFFFFFFFFFFFFFFFFFFFFFFFFFFF AND SWAP1 POP DUP2 PUSH0 PUSH0 PUSH2 0x100 EXP DUP2 SLOAD DUP2 PUSH20 0xFFFFFFFFFFFFFFFFFFFFFFFFFFFFFFFFFFFFFFFF MUL NOT AND SWAP1 DUP4 PUSH20 0xFFFFFFFFFFFFFFFFFFFFFFFFFFFFFFFFFFFFFFFF AND MUL OR SWAP1 SSTORE POP DUP2 PUSH20 0xFFFFFFFFFFFFFFFFFFFFFFFFFFFFFFFFFFFFFFFF AND DUP2 PUSH20 0xFFFFFFFFFFFFFFFFFFFFFFFFFFFFFFFFFFFFFFFF AND PUSH32 0x8BE0079C531659141344CD1FD0A4F28419497F9722A3DAAFE3B4186F6B6457E0 PUSH1 0x40 MLOAD PUSH1 0x40 MLOAD DUP1 SWAP2 SUB SWAP1 LOG3 POP POP JUMP JUMPDEST PUSH0 PUSH20 0xFFFFFFFFFFFFFFFFFFFFFFFFFFFFFFFFFFFFFFFF DUP3 AND SWAP1 POP SWAP2 SWAP1 POP JUMP JUMPDEST PUSH0 PUSH2 0x194 DUP3 PUSH2 0x16B JUMP JUMPDEST SWAP1 POP SWAP2 SWAP1 POP JUMP JUMPDEST PUSH2 0x1A4 DUP2 PUSH2 0x18A JUMP JUMPDEST DUP3 MSTORE POP POP JUMP JUMPDEST PUSH0 PUSH1 0x20 DUP3 ADD SWAP1 POP PUSH2 0x1BD PUSH0 DUP4 ADD DUP5 PUSH2 0x19B JUMP JUMPDEST SWAP3 SWAP2 POP POP JUMP JUMPDEST PUSH2 0xF3A DUP1 PUSH2 0x1D0 PUSH0 CODECOPY PUSH0 RETURN INVALID PUSH1 0x80 PUSH1 0x40 MSTORE PUSH1 0x4 CALLDATASIZE LT PUSH2 0x4D JUMPI PUSH0 CALLDATALOAD PUSH1 0xE0 SHR DUP1 PUSH4 0x4782F779 EQ PUSH2 0xF2 JUMPI DUP1 PUSH4 0x715018A6 EQ PUSH2 0x11A JUMPI DUP1 PUSH4 0x8DA5CB5B EQ PUSH2 0x130 JUMPI DUP1 PUSH4 0xF2FDE38B EQ PUSH2 0x15A JUMPI DUP1 PUSH4 0xF9624D66 EQ PUSH2 0x182 JUMPI PUSH2 0xA2 JUMP JUMPDEST CALLDATASIZE PUSH2 0xA2 JUMPI CALLER PUSH20 0xFFFFFFFFFFFFFFFFFFFFFFFFFFFFFFFFFFFFFFFF AND PUSH32 0x4103257EAAC983CA79A70D28F90DFC4FA16B619BB0C17EE7CAB0D4034C279624 CALLVALUE PUSH1 0x40 MLOAD PUSH2 0x98 SWAP2 SWAP1 PUSH2 0xAB0 JUMP JUMPDEST PUSH1 0x40 MLOAD DUP1 SWAP2 SUB SWAP1 LOG2 STOP JUMPDEST CALLER PUSH20 0xFFFFFFFFFFFFFFFFFFFFFFFFFFFFFFFFFFFFFFFF AND PUSH32 0x78C972371203D575D4B76368A154D92BFB45D32A57696487F3334FBBE5042C14 CALLVALUE PUSH1 0x40 MLOAD PUSH2 0xE8 SWAP2 SWAP1 PUSH2 0xAB0 JUMP JUMPDEST PUSH1 0x40 MLOAD DUP1 SWAP2 SUB SWAP1 LOG2 STOP JUMPDEST CALLVALUE DUP1 ISZERO PUSH2 0xFD JUMPI PUSH0 PUSH0 REVERT JUMPDEST POP PUSH2 0x118 PUSH1 0x4 DUP1 CALLDATASIZE SUB DUP2 ADD SWAP1 PUSH2 0x113 SWAP2 SWAP1 PUSH2 0xB51 JUMP JUMPDEST PUSH2 0x198 JUMP JUMPDEST STOP JUMPDEST CALLVALUE DUP1 ISZERO PUSH2 0x125 JUMPI PUSH0 PUSH0 REVERT JUMPDEST POP PUSH2 0x12E PUSH2 0x262 JUMP JUMPDEST STOP JUMPDEST CALLVALUE DUP1 ISZERO PUSH2 0x13B JUMPI PUSH0 PUSH0 REVERT JUMPDEST POP PUSH2 0x144 PUSH2 0x275 JUMP JUMPDEST PUSH1 0x40 MLOAD PUSH2 0x151 SWAP2 SWAP1 PUSH2 0xBAF JUMP JUMPDEST PUSH1 0x40 MLOAD DUP1 SWAP2 SUB SWAP1 RETURN JUMPDEST CALLVALUE DUP1 ISZERO PUSH2 0x165 JUMPI PUSH0 PUSH0 REVERT JUMPDEST POP PUSH2 0x180 PUSH1 0x4 DUP1 CALLDATASIZE SUB DUP2 ADD SWAP1 PUSH2 0x17B SWAP2 SWAP1 PUSH2 0xBF2 JUMP JUMPDEST PUSH2 0x29C JUMP JUMPDEST STOP JUMPDEST CALLVALUE DUP1 ISZERO PUSH2 0x18D JUMPI PUSH0 PUSH0 REVERT JUMPDEST POP PUSH2 0x196 PUSH2 0x320 JUMP JUMPDEST STOP JUMPDEST PUSH2 0x1A0 PUSH2 0x3BA JUMP JUMPDEST DUP1 SELFBALANCE LT ISZERO PUSH2 0x1E7 JUMPI DUP1 SELFBALANCE PUSH1 0x40 MLOAD PUSH32 0xCF47918100000000000000000000000000000000000000000000000000000000 DUP2 MSTORE PUSH1 0x4 ADD PUSH2 0x1DE SWAP3 SWAP2 SWAP1 PUSH2 0xC1D JUMP JUMPDEST PUSH1 0x40 MLOAD DUP1 SWAP2 SUB SWAP1 REVERT JUMPDEST PUSH2 0x210 DUP2 DUP4 PUSH20 0xFFFFFFFFFFFFFFFFFFFFFFFFFFFFFFFFFFFFFFFF AND PUSH2 0x441 SWAP1 SWAP2 SWAP1 PUSH4 0xFFFFFFFF AND JUMP JUMPDEST DUP2 PUSH20 0xFFFFFFFFFFFFFFFFFFFFFFFFFFFFFFFFFFFFFFFF AND PUSH32 0x7FCF532C15F0A6DB0BD6D0E038BEA71D30D808C7D98CB3BF7268A95BF5081B65 DUP3 PUSH1 0x40 MLOAD PUSH2 0x256 SWAP2 SWAP1 PUSH2 0xAB0 JUMP JUMPDEST PUSH1 0x40 MLOAD DUP1 SWAP2 SUB SWAP1 LOG2 POP POP JUMP JUMPDEST PUSH2 0x26A PUSH2 0x3BA JUMP JUMPDEST PUSH2 0x273 PUSH0 PUSH2 0x507 JUMP JUMPDEST JUMP JUMPDEST PUSH0 PUSH0 PUSH0 SWAP1 SLOAD SWAP1 PUSH2 0x100 EXP SWAP1 DIV PUSH20 0xFFFFFFFFFFFFFFFFFFFFFFFFFFFFFFFFFFFFFFFF AND SWAP1 POP SWAP1 JUMP JUMPDEST PUSH2 0x2A4 PUSH2 0x3BA JUMP JUMPDEST PUSH0 PUSH20 0xFFFFFFFFFFFFFFFFFFFFFFFFFFFFFFFFFFFFFFFF AND DUP2 PUSH20 0xFFFFFFFFFFFFFFFFFFFFFFFFFFFFFFFFFFFFFFFF AND SUB PUSH2 0x314 JUMPI PUSH0 PUSH1 0x40 MLOAD PUSH32 0x1E4FBDF700000000000000000000000000000000000000000000000000000000 DUP2 MSTORE PUSH1 0x4 ADD PUSH2 0x30B SWAP2 SWAP1 PUSH2 0xBAF JUMP JUMPDEST PUSH1 0x40 MLOAD DUP1 SWAP2 SUB SWAP1 REVERT JUMPDEST PUSH2 0x31D DUP2 PUSH2 0x507 JUMP JUMPDEST POP JUMP JUMPDEST PUSH2 0x328 PUSH2 0x3BA JUMP JUMPDEST PUSH0 CALLER SWAP1 POP PUSH0 TIMESTAMP SWAP1 POP PUSH0 PUSH2 0x33A DUP4 PUSH2 0x5C8 JUMP JUMPDEST PUSH2 0x343 DUP4 PUSH2 0x5F5 JUMP JUMPDEST PUSH1 0x40 MLOAD PUSH1 0x20 ADD PUSH2 0x354 SWAP3 SWAP2 SWAP1 PUSH2 0xCBC JUMP JUMPDEST PUSH1 0x40 MLOAD PUSH1 0x20 DUP2 DUP4 SUB SUB DUP2 MSTORE SWAP1 PUSH1 0x40 MSTORE SWAP1 POP DUP3 PUSH20 0xFFFFFFFFFFFFFFFFFFFFFFFFFFFFFFFFFFFFFFFF AND PUSH32 0x23D3B59785717E0022EEB4456F509A4494DFA94D2C76B69373EC74D80FA4ACA7 DUP3 DUP5 PUSH1 0x40 MLOAD PUSH2 0x3AD SWAP3 SWAP2 SWAP1 PUSH2 0xD46 JUMP JUMPDEST PUSH1 0x40 MLOAD DUP1 SWAP2 SUB SWAP1 LOG2 POP POP POP JUMP JUMPDEST PUSH2 0x3C2 PUSH2 0x6BF JUMP JUMPDEST PUSH20 0xFFFFFFFFFFFFFFFFFFFFFFFFFFFFFFFFFFFFFFFF AND PUSH2 0x3E0 PUSH2 0x275 JUMP JUMPDEST PUSH20 0xFFFFFFFFFFFFFFFFFFFFFFFFFFFFFFFFFFFFFFFF AND EQ PUSH2 0x43F JUMPI PUSH2 0x403 PUSH2 0x6BF JUMP JUMPDEST PUSH1 0x40 MLOAD PUSH32 0x118CDAA700000000000000000000000000000000000000000000000000000000 DUP2 MSTORE PUSH1 0x4 ADD PUSH2 0x436 SWAP2 SWAP1 PUSH2 0xBAF JUMP JUMPDEST PUSH1 0x40 MLOAD DUP1 SWAP2 SUB SWAP1 REVERT JUMPDEST JUMP JUMPDEST DUP1 SELFBALANCE LT ISZERO PUSH2 0x488 JUMPI SELFBALANCE DUP2 PUSH1 0x40 MLOAD PUSH32 0xCF47918100000000000000000000000000000000000000000000000000000000 DUP2 MSTORE PUSH1 0x4 ADD PUSH2 0x47F SWAP3 SWAP2 SWAP1 PUSH2 0xC1D JUMP JUMPDEST PUSH1 0x40 MLOAD DUP1 SWAP2 SUB SWAP1 REVERT JUMPDEST PUSH0 PUSH0 DUP4 PUSH20 0xFFFFFFFFFFFFFFFFFFFFFFFFFFFFFFFFFFFFFFFF AND DUP4 PUSH1 0x40 MLOAD PUSH2 0x4AE SWAP1 PUSH2 0xDA1 JUMP JUMPDEST PUSH0 PUSH1 0x40 MLOAD DUP1 DUP4 SUB DUP2 DUP6 DUP8 GAS CALL SWAP3 POP POP POP RETURNDATASIZE DUP1 PUSH0 DUP2 EQ PUSH2 0x4E8 JUMPI PUSH1 0x40 MLOAD SWAP2 POP PUSH1 0x1F NOT PUSH1 0x3F RETURNDATASIZE ADD AND DUP3 ADD PUSH1 0x40 MSTORE RETURNDATASIZE DUP3 MSTORE RETURNDATASIZE PUSH0 PUSH1 0x20 DUP5 ADD RETURNDATACOPY PUSH2 0x4ED JUMP JUMPDEST PUSH1 0x60 SWAP2 POP JUMPDEST POP SWAP2 POP SWAP2 POP DUP2 PUSH2 0x501 JUMPI PUSH2 0x500 DUP2 PUSH2 0x6C6 JUMP JUMPDEST JUMPDEST POP POP POP POP JUMP JUMPDEST PUSH0 PUSH0 PUSH0 SWAP1 SLOAD SWAP1 PUSH2 0x100 EXP SWAP1 DIV PUSH20 0xFFFFFFFFFFFFFFFFFFFFFFFFFFFFFFFFFFFFFFFF AND SWAP1 POP DUP2 PUSH0 PUSH0 PUSH2 0x100 EXP DUP2 SLOAD DUP2 PUSH20 0xFFFFFFFFFFFFFFFFFFFFFFFFFFFFFFFFFFFFFFFF MUL NOT AND SWAP1 DUP4 PUSH20 0xFFFFFFFFFFFFFFFFFFFFFFFFFFFFFFFFFFFFFFFF AND MUL OR SWAP1 SSTORE POP DUP2 PUSH20 0xFFFFFFFFFFFFFFFFFFFFFFFFFFFFFFFFFFFFFFFF AND DUP2 PUSH20 0xFFFFFFFFFFFFFFFFFFFFFFFFFFFFFFFFFFFFFFFF AND PUSH32 0x8BE0079C531659141344CD1FD0A4F28419497F9722A3DAAFE3B4186F6B6457E0 PUSH1 0x40 MLOAD PUSH1 0x40 MLOAD DUP1 SWAP2 SUB SWAP1 LOG3 POP POP JUMP JUMPDEST PUSH1 0x60 PUSH2 0x5EE DUP3 PUSH20 0xFFFFFFFFFFFFFFFFFFFFFFFFFFFFFFFFFFFFFFFF AND PUSH1 0x14 PUSH1 0xFF AND PUSH2 0x709 JUMP JUMPDEST SWAP1 POP SWAP2 SWAP1 POP JUMP JUMPDEST PUSH1 0x60 PUSH0 PUSH1 0x1 PUSH2 0x603 DUP5 PUSH2 0x947 JUMP JUMPDEST ADD SWAP1 POP PUSH0 DUP2 PUSH8 0xFFFFFFFFFFFFFFFF DUP2 GT ISZERO PUSH2 0x621 JUMPI PUSH2 0x620 PUSH2 0xDB5 JUMP JUMPDEST JUMPDEST PUSH1 0x40 MLOAD SWAP1 DUP1 DUP3 MSTORE DUP1 PUSH1 0x1F ADD PUSH1 0x1F NOT AND PUSH1 0x20 ADD DUP3 ADD PUSH1 0x40 MSTORE DUP1 ISZERO PUSH2 0x653 JUMPI DUP2 PUSH1 0x20 ADD PUSH1 0x1 DUP3 MUL DUP1 CALLDATASIZE DUP4 CALLDATACOPY DUP1 DUP3 ADD SWAP2 POP POP SWAP1 POP JUMPDEST POP SWAP1 POP PUSH0 DUP3 PUSH1 0x20 DUP4 ADD ADD SWAP1 POP JUMPDEST PUSH1 0x1 ISZERO PUSH2 0x6B4 JUMPI DUP1 DUP1 PUSH1 0x1 SWAP1 SUB SWAP2 POP POP PUSH32 0x3031323334353637383961626364656600000000000000000000000000000000 PUSH1 0xA DUP7 MOD BYTE DUP2 MSTORE8 PUSH1 0xA DUP6 DUP2 PUSH2 0x6A9 JUMPI PUSH2 0x6A8 PUSH2 0xDE2 JUMP JUMPDEST JUMPDEST DIV SWAP5 POP PUSH0 DUP6 SUB PUSH2 0x660 JUMPI JUMPDEST DUP2 SWAP4 POP POP POP POP SWAP2 SWAP1 POP JUMP JUMPDEST PUSH0 CALLER SWAP1 POP SWAP1 JUMP JUMPDEST PUSH0 DUP2 MLOAD GT ISZERO PUSH2 0x6D7 JUMPI DUP1 MLOAD PUSH1 0x20 DUP3 ADD REVERT JUMPDEST PUSH1 0x40 MLOAD PUSH32 0xD6BDA27500000000000000000000000000000000000000000000000000000000 DUP2 MSTORE PUSH1 0x4 ADD PUSH1 0x40 MLOAD DUP1 SWAP2 SUB SWAP1 REVERT JUMPDEST PUSH1 0x60 PUSH0 DUP4 SWAP1 POP PUSH0 PUSH1 0x2 DUP5 PUSH1 0x2 PUSH2 0x71F SWAP2 SWAP1 PUSH2 0xE3C JUMP JUMPDEST PUSH2 0x729 SWAP2 SWAP1 PUSH2 0xE7D JUMP JUMPDEST PUSH8 0xFFFFFFFFFFFFFFFF DUP2 GT ISZERO PUSH2 0x742 JUMPI PUSH2 0x741 PUSH2 0xDB5 JUMP JUMPDEST JUMPDEST PUSH1 0x40 MLOAD SWAP1 DUP1 DUP3 MSTORE DUP1 PUSH1 0x1F ADD PUSH1 0x1F NOT AND PUSH1 0x20 ADD DUP3 ADD PUSH1 0x40 MSTORE DUP1 ISZERO PUSH2 0x774 JUMPI DUP2 PUSH1 0x20 ADD PUSH1 0x1 DUP3 MUL DUP1 CALLDATASIZE DUP4 CALLDATACOPY DUP1 DUP3 ADD SWAP2 POP POP SWAP1 POP JUMPDEST POP SWAP1 POP PUSH32 0x3000000000000000000000000000000000000000000000000000000000000000 DUP2 PUSH0 DUP2 MLOAD DUP2 LT PUSH2 0x7AB JUMPI PUSH2 0x7AA PUSH2 0xEB0 JUMP JUMPDEST JUMPDEST PUSH1 0x20 ADD ADD SWAP1 PUSH31 0xFFFFFFFFFFFFFFFFFFFFFFFFFFFFFFFFFFFFFFFFFFFFFFFFFFFFFFFFFFFFFF NOT AND SWAP1 DUP2 PUSH0 BYTE SWAP1 MSTORE8 POP PUSH32 0x7800000000000000000000000000000000000000000000000000000000000000 DUP2 PUSH1 0x1 DUP2 MLOAD DUP2 LT PUSH2 0x80E JUMPI PUSH2 0x80D PUSH2 0xEB0 JUMP JUMPDEST JUMPDEST PUSH1 0x20 ADD ADD SWAP1 PUSH31 0xFFFFFFFFFFFFFFFFFFFFFFFFFFFFFFFFFFFFFFFFFFFFFFFFFFFFFFFFFFFFFF NOT AND SWAP1 DUP2 PUSH0 BYTE SWAP1 MSTORE8 POP PUSH0 PUSH1 0x1 DUP6 PUSH1 0x2 PUSH2 0x84C SWAP2 SWAP1 PUSH2 0xE3C JUMP JUMPDEST PUSH2 0x856 SWAP2 SWAP1 PUSH2 0xE7D JUMP JUMPDEST SWAP1 POP JUMPDEST PUSH1 0x1 DUP2 GT ISZERO PUSH2 0x8F5 JUMPI PUSH32 0x3031323334353637383961626364656600000000000000000000000000000000 PUSH1 0xF DUP5 AND PUSH1 0x10 DUP2 LT PUSH2 0x898 JUMPI PUSH2 0x897 PUSH2 0xEB0 JUMP JUMPDEST JUMPDEST BYTE PUSH1 0xF8 SHL DUP3 DUP3 DUP2 MLOAD DUP2 LT PUSH2 0x8AF JUMPI PUSH2 0x8AE PUSH2 0xEB0 JUMP JUMPDEST JUMPDEST PUSH1 0x20 ADD ADD SWAP1 PUSH31 0xFFFFFFFFFFFFFFFFFFFFFFFFFFFFFFFFFFFFFFFFFFFFFFFFFFFFFFFFFFFFFF NOT AND SWAP1 DUP2 PUSH0 BYTE SWAP1 MSTORE8 POP PUSH1 0x4 DUP4 SWAP1 SHR SWAP3 POP DUP1 PUSH2 0x8EE SWAP1 PUSH2 0xEDD JUMP JUMPDEST SWAP1 POP PUSH2 0x859 JUMP JUMPDEST POP PUSH0 DUP3 EQ PUSH2 0x93C JUMPI DUP5 DUP5 PUSH1 0x40 MLOAD PUSH32 0xE22E27EB00000000000000000000000000000000000000000000000000000000 DUP2 MSTORE PUSH1 0x4 ADD PUSH2 0x933 SWAP3 SWAP2 SWAP1 PUSH2 0xC1D JUMP JUMPDEST PUSH1 0x40 MLOAD DUP1 SWAP2 SUB SWAP1 REVERT JUMPDEST DUP1 SWAP3 POP POP POP SWAP3 SWAP2 POP POP JUMP JUMPDEST PUSH0 PUSH0 PUSH0 SWAP1 POP PUSH27 0x184F03E93FF9F4DAA797ED6E38ED64BF6A1F010000000000000000 DUP4 LT PUSH2 0x9A3 JUMPI PUSH27 0x184F03E93FF9F4DAA797ED6E38ED64BF6A1F010000000000000000 DUP4 DUP2 PUSH2 0x999 JUMPI PUSH2 0x998 PUSH2 0xDE2 JUMP JUMPDEST JUMPDEST DIV SWAP3 POP PUSH1 0x40 DUP2 ADD SWAP1 POP JUMPDEST PUSH14 0x4EE2D6D415B85ACEF8100000000 DUP4 LT PUSH2 0x9E0 JUMPI PUSH14 0x4EE2D6D415B85ACEF8100000000 DUP4 DUP2 PUSH2 0x9D6 JUMPI PUSH2 0x9D5 PUSH2 0xDE2 JUMP JUMPDEST JUMPDEST DIV SWAP3 POP PUSH1 0x20 DUP2 ADD SWAP1 POP JUMPDEST PUSH7 0x2386F26FC10000 DUP4 LT PUSH2 0xA0F JUMPI PUSH7 0x2386F26FC10000 DUP4 DUP2 PUSH2 0xA05 JUMPI PUSH2 0xA04 PUSH2 0xDE2 JUMP JUMPDEST JUMPDEST DIV SWAP3 POP PUSH1 0x10 DUP2 ADD SWAP1 POP JUMPDEST PUSH4 0x5F5E100 DUP4 LT PUSH2 0xA38 JUMPI PUSH4 0x5F5E100 DUP4 DUP2 PUSH2 0xA2E JUMPI PUSH2 0xA2D PUSH2 0xDE2 JUMP JUMPDEST JUMPDEST DIV SWAP3 POP PUSH1 0x8 DUP2 ADD SWAP1 POP JUMPDEST PUSH2 0x2710 DUP4 LT PUSH2 0xA5D JUMPI PUSH2 0x2710 DUP4 DUP2 PUSH2 0xA53 JUMPI PUSH2 0xA52 PUSH2 0xDE2 JUMP JUMPDEST JUMPDEST DIV SWAP3 POP PUSH1 0x4 DUP2 ADD SWAP1 POP JUMPDEST PUSH1 0x64 DUP4 LT PUSH2 0xA80 JUMPI PUSH1 0x64 DUP4 DUP2 PUSH2 0xA76 JUMPI PUSH2 0xA75 PUSH2 0xDE2 JUMP JUMPDEST JUMPDEST DIV SWAP3 POP PUSH1 0x2 DUP2 ADD SWAP1 POP JUMPDEST PUSH1 0xA DUP4 LT PUSH2 0xA8F JUMPI PUSH1 0x1 DUP2 ADD SWAP1 POP JUMPDEST DUP1 SWAP2 POP POP SWAP2 SWAP1 POP JUMP JUMPDEST PUSH0 DUP2 SWAP1 POP SWAP2 SWAP1 POP JUMP JUMPDEST PUSH2 0xAAA DUP2 PUSH2 0xA98 JUMP JUMPDEST DUP3 MSTORE POP POP JUMP JUMPDEST PUSH0 PUSH1 0x20 DUP3 ADD SWAP1 POP PUSH2 0xAC3 PUSH0 DUP4 ADD DUP5 PUSH2 0xAA1 JUMP JUMPDEST SWAP3 SWAP2 POP POP JUMP JUMPDEST PUSH0 PUSH0 REVERT JUMPDEST PUSH0 PUSH20 0xFFFFFFFFFFFFFFFFFFFFFFFFFFFFFFFFFFFFFFFF DUP3 AND SWAP1 POP SWAP2 SWAP1 POP JUMP JUMPDEST PUSH0 PUSH2 0xAF6 DUP3 PUSH2 0xACD JUMP JUMPDEST SWAP1 POP SWAP2 SWAP1 POP JUMP JUMPDEST PUSH2 0xB06 DUP2 PUSH2 0xAEC JUMP JUMPDEST DUP2 EQ PUSH2 0xB10 JUMPI PUSH0 PUSH0 REVERT JUMPDEST POP JUMP JUMPDEST PUSH0 DUP2 CALLDATALOAD SWAP1 POP PUSH2 0xB21 DUP2 PUSH2 0xAFD JUMP JUMPDEST SWAP3 SWAP2 POP POP JUMP JUMPDEST PUSH2 0xB30 DUP2 PUSH2 0xA98 JUMP JUMPDEST DUP2 EQ PUSH2 0xB3A JUMPI PUSH0 PUSH0 REVERT JUMPDEST POP JUMP JUMPDEST PUSH0 DUP2 CALLDATALOAD SWAP1 POP PUSH2 0xB4B DUP2 PUSH2 0xB27 JUMP JUMPDEST SWAP3 SWAP2 POP POP JUMP JUMPDEST PUSH0 PUSH0 PUSH1 0x40 DUP4 DUP6 SUB SLT ISZERO PUSH2 0xB67 JUMPI PUSH2 0xB66 PUSH2 0xAC9 JUMP JUMPDEST JUMPDEST PUSH0 PUSH2 0xB74 DUP6 DUP3 DUP7 ADD PUSH2 0xB13 JUMP JUMPDEST SWAP3 POP POP PUSH1 0x20 PUSH2 0xB85 DUP6 DUP3 DUP7 ADD PUSH2 0xB3D JUMP JUMPDEST SWAP2 POP POP SWAP3 POP SWAP3 SWAP1 POP JUMP JUMPDEST PUSH0 PUSH2 0xB99 DUP3 PUSH2 0xACD JUMP JUMPDEST SWAP1 POP SWAP2 SWAP1 POP JUMP JUMPDEST PUSH2 0xBA9 DUP2 PUSH2 0xB8F JUMP JUMPDEST DUP3 MSTORE POP POP JUMP JUMPDEST PUSH0 PUSH1 0x20 DUP3 ADD SWAP1 POP PUSH2 0xBC2 PUSH0 DUP4 ADD DUP5 PUSH2 0xBA0 JUMP JUMPDEST SWAP3 SWAP2 POP POP JUMP JUMPDEST PUSH2 0xBD1 DUP2 PUSH2 0xB8F JUMP JUMPDEST DUP2 EQ PUSH2 0xBDB JUMPI PUSH0 PUSH0 REVERT JUMPDEST POP JUMP JUMPDEST PUSH0 DUP2 CALLDATALOAD SWAP1 POP PUSH2 0xBEC DUP2 PUSH2 0xBC8 JUMP JUMPDEST SWAP3 SWAP2 POP POP JUMP JUMPDEST PUSH0 PUSH1 0x20 DUP3 DUP5 SUB SLT ISZERO PUSH2 0xC07 JUMPI PUSH2 0xC06 PUSH2 0xAC9 JUMP JUMPDEST JUMPDEST PUSH0 PUSH2 0xC14 DUP5 DUP3 DUP6 ADD PUSH2 0xBDE JUMP JUMPDEST SWAP2 POP POP SWAP3 SWAP2 POP POP JUMP JUMPDEST PUSH0 PUSH1 0x40 DUP3 ADD SWAP1 POP PUSH2 0xC30 PUSH0 DUP4 ADD DUP6 PUSH2 0xAA1 JUMP JUMPDEST PUSH2 0xC3D PUSH1 0x20 DUP4 ADD DUP5 PUSH2 0xAA1 JUMP JUMPDEST SWAP4 SWAP3 POP POP POP JUMP JUMPDEST PUSH0 DUP2 MLOAD SWAP1 POP SWAP2 SWAP1 POP JUMP JUMPDEST PUSH0 DUP2 SWAP1 POP SWAP3 SWAP2 POP POP JUMP JUMPDEST DUP3 DUP2 DUP4 MCOPY PUSH0 DUP4 DUP4 ADD MSTORE POP POP POP JUMP JUMPDEST PUSH0 PUSH2 0xC70 DUP3 PUSH2 0xC44 JUMP JUMPDEST PUSH2 0xC7A DUP2 DUP6 PUSH2 0xC4E JUMP JUMPDEST SWAP4 POP PUSH2 0xC8A DUP2 DUP6 PUSH1 0x20 DUP7 ADD PUSH2 0xC58 JUMP JUMPDEST DUP1 DUP5 ADD SWAP2 POP POP SWAP3 SWAP2 POP POP JUMP JUMPDEST PUSH32 0x206C6F766573206261736520626C6F636B636861696E20000000000000000000 DUP2 MSTORE POP JUMP JUMPDEST PUSH0 PUSH2 0xCC7 DUP3 DUP6 PUSH2 0xC66 JUMP JUMPDEST SWAP2 POP PUSH2 0xCD2 DUP3 PUSH2 0xC96 JUMP JUMPDEST PUSH1 0x17 DUP3 ADD SWAP2 POP PUSH2 0xCE2 DUP3 DUP5 PUSH2 0xC66 JUMP JUMPDEST SWAP2 POP DUP2 SWAP1 POP SWAP4 SWAP3 POP POP POP JUMP JUMPDEST PUSH0 DUP3 DUP3 MSTORE PUSH1 0x20 DUP3 ADD SWAP1 POP SWAP3 SWAP2 POP POP JUMP JUMPDEST PUSH0 PUSH1 0x1F NOT PUSH1 0x1F DUP4 ADD AND SWAP1 POP SWAP2 SWAP1 POP JUMP JUMPDEST PUSH0 PUSH2 0xD18 DUP3 PUSH2 0xC44 JUMP JUMPDEST PUSH2 0xD22 DUP2 DUP6 PUSH2 0xCEE JUMP JUMPDEST SWAP4 POP PUSH2 0xD32 DUP2 DUP6 PUSH1 0x20 DUP7 ADD PUSH2 0xC58 JUMP JUMPDEST PUSH2 0xD3B DUP2 PUSH2 0xCFE JUMP JUMPDEST DUP5 ADD SWAP2 POP POP SWAP3 SWAP2 POP POP JUMP JUMPDEST PUSH0 PUSH1 0x40 DUP3 ADD SWAP1 POP DUP2 DUP2 SUB PUSH0 DUP4 ADD MSTORE PUSH2 0xD5E DUP2 DUP6 PUSH2 0xD0E JUMP JUMPDEST SWAP1 POP PUSH2 0xD6D PUSH1 0x20 DUP4 ADD DUP5 PUSH2 0xAA1 JUMP JUMPDEST SWAP4 SWAP3 POP POP POP JUMP JUMPDEST PUSH0 DUP2 SWAP1 POP SWAP3 SWAP2 POP POP JUMP JUMPDEST POP JUMP JUMPDEST PUSH0 PUSH2 0xD8C PUSH0 DUP4 PUSH2 0xD74 JUMP JUMPDEST SWAP2 POP PUSH2 0xD97 DUP3 PUSH2 0xD7E JUMP JUMPDEST PUSH0 DUP3 ADD SWAP1 POP SWAP2 SWAP1 POP JUMP JUMPDEST PUSH0 PUSH2 0xDAB DUP3 PUSH2 0xD81 JUMP JUMPDEST SWAP2 POP DUP2 SWAP1 POP SWAP2 SWAP1 POP JUMP JUMPDEST PUSH32 0x4E487B7100000000000000000000000000000000000000000000000000000000 PUSH0 MSTORE PUSH1 0x41 PUSH1 0x4 MSTORE PUSH1 0x24 PUSH0 REVERT JUMPDEST PUSH32 0x4E487B7100000000000000000000000000000000000000000000000000000000 PUSH0 MSTORE PUSH1 0x12 PUSH1 0x4 MSTORE PUSH1 0x24 PUSH0 REVERT JUMPDEST PUSH32 0x4E487B7100000000000000000000000000000000000000000000000000000000 PUSH0 MSTORE PUSH1 0x11 PUSH1 0x4 MSTORE PUSH1 0x24 PUSH0 REVERT JUMPDEST PUSH0 PUSH2 0xE46 DUP3 PUSH2 0xA98 JUMP JUMPDEST SWAP2 POP PUSH2 0xE51 DUP4 PUSH2 0xA98 JUMP JUMPDEST SWAP3 POP DUP3 DUP3 MUL PUSH2 0xE5F DUP2 PUSH2 0xA98 JUMP JUMPDEST SWAP2 POP DUP3 DUP3 DIV DUP5 EQ DUP4 ISZERO OR PUSH2 0xE76 JUMPI PUSH2 0xE75 PUSH2 0xE0F JUMP JUMPDEST JUMPDEST POP SWAP3 SWAP2 POP POP JUMP JUMPDEST PUSH0 PUSH2 0xE87 DUP3 PUSH2 0xA98 JUMP JUMPDEST SWAP2 POP PUSH2 0xE92 DUP4 PUSH2 0xA98 JUMP JUMPDEST SWAP3 POP DUP3 DUP3 ADD SWAP1 POP DUP1 DUP3 GT ISZERO PUSH2 0xEAA JUMPI PUSH2 0xEA9 PUSH2 0xE0F JUMP JUMPDEST JUMPDEST SWAP3 SWAP2 POP POP JUMP JUMPDEST PUSH32 0x4E487B7100000000000000000000000000000000000000000000000000000000 PUSH0 MSTORE PUSH1 0x32 PUSH1 0x4 MSTORE PUSH1 0x24 PUSH0 REVERT JUMPDEST PUSH0 PUSH2 0xEE7 DUP3 PUSH2 0xA98 JUMP JUMPDEST SWAP2 POP PUSH0 DUP3 SUB PUSH2 0xEF9 JUMPI PUSH2 0xEF8 PUSH2 0xE0F JUMP JUMPDEST JUMPDEST PUSH1 0x1 DUP3 SUB SWAP1 POP SWAP2 SWAP1 POP JUMP INVALID LOG2 PUSH5 0x6970667358 0x22 SLT KECCAK256 SELFDESTRUCT 0xC PUSH25 0xF77B48956675AD796A0CAF48E40DE713516F40094079DFDF6B DUP7 ORIGIN 0xCA 0xCE PUSH5 0x736F6C6343 STOP ADDMOD 0x1E STOP CALLER "
		},
		"gasEstimates": {
			"creation": {
				"codeDepositCost": "779600",
				"executionCost": "infinite",
				"totalCost": "infinite"
			},
			"external": {
				"": "1742",
				"hellobase()": "infinite",
				"owner()": "2536",
				"renounceOwnership()": "infinite",
				"transferOwnership(address)": "infinite",
				"withdrawETH(address,uint256)": "infinite"
			}
		},
		"methodIdentifiers": {
			"hellobase()": "f9624d66",
			"owner()": "8da5cb5b",
			"renounceOwnership()": "715018a6",
			"transferOwnership(address)": "f2fde38b",
			"withdrawETH(address,uint256)": "4782f779"
		}
	},
	"abi": [
		{
			"inputs": [],
			"stateMutability": "nonpayable",
			"type": "constructor"
		},
		{
			"inputs": [],
			"name": "FailedCall",
			"type": "error"
		},
		{
			"inputs": [
				{
					"internalType": "uint256",
					"name": "balance",
					"type": "uint256"
				},
				{
					"internalType": "uint256",
					"name": "needed",
					"type": "uint256"
				}
			],
			"name": "InsufficientBalance",
			"type": "error"
		},
		{
			"inputs": [
				{
					"internalType": "uint256",
					"name": "requested",
					"type": "uint256"
				},
				{
					"internalType": "uint256",
					"name": "available",
					"type": "uint256"
				}
			],
			"name": "InsufficientBalance",
			"type": "error"
		},
		{
			"inputs": [
				{
					"internalType": "address",
					"name": "owner",
					"type": "address"
				}
			],
			"name": "OwnableInvalidOwner",
			"type": "error"
		},
		{
			"inputs": [
				{
					"internalType": "address",
					"name": "account",
					"type": "address"
				}
			],
			"name": "OwnableUnauthorizedAccount",
			"type": "error"
		},
		{
			"inputs": [
				{
					"internalType": "uint256",
					"name": "value",
					"type": "uint256"
				},
				{
					"internalType": "uint256",
					"name": "length",
					"type": "uint256"
				}
			],
			"name": "StringsInsufficientHexLength",
			"type": "error"
		},
		{
			"anonymous": false,
			"inputs": [
				{
					"indexed": true,
					"internalType": "address",
					"name": "sender",
					"type": "address"
				},
				{
					"indexed": false,
					"internalType": "string",
					"name": "message",
					"type": "string"
				},
				{
					"indexed": false,
					"internalType": "uint256",
					"name": "timestamp",
					"type": "uint256"
				}
			],
			"name": "BaseLoveMessage",
			"type": "event"
		},
		{
			"anonymous": false,
			"inputs": [
				{
					"indexed": true,
					"internalType": "address",
					"name": "previousOwner",
					"type": "address"
				},
				{
					"indexed": true,
					"internalType": "address",
					"name": "newOwner",
					"type": "address"
				}
			],
			"name": "OwnershipTransferred",
			"type": "event"
		},
		{
			"anonymous": false,
			"inputs": [
				{
					"indexed": true,
					"internalType": "address",
					"name": "sender",
					"type": "address"
				},
				{
					"indexed": false,
					"internalType": "uint256",
					"name": "amount",
					"type": "uint256"
				}
			],
			"name": "ReceivedETH",
			"type": "event"
		},
		{
			"anonymous": false,
			"inputs": [
				{
					"indexed": true,
					"internalType": "address",
					"name": "sender",
					"type": "address"
				},
				{
					"indexed": false,
					"internalType": "uint256",
					"name": "amount",
					"type": "uint256"
				}
			],
			"name": "ReceivedFallback",
			"type": "event"
		},
		{
			"anonymous": false,
			"inputs": [
				{
					"indexed": true,
					"internalType": "address",
					"name": "to",
					"type": "address"
				},
				{
					"indexed": false,
					"internalType": "uint256",
					"name": "amount",
					"type": "uint256"
				}
			],
			"name": "Withdrawal",
			"type": "event"
		},
		{
			"stateMutability": "payable",
			"type": "fallback"
		},
		{
			"inputs": [],
			"name": "hellobase",
			"outputs": [],
			"stateMutability": "nonpayable",
			"type": "function"
		},
		{
			"inputs": [],
			"name": "owner",
			"outputs": [
				{
					"internalType": "address",
					"name": "",
					"type": "address"
				}
			],
			"stateMutability": "view",
			"type": "function"
		},
		{
			"inputs": [],
			"name": "renounceOwnership",
			"outputs": [],
			"stateMutability": "nonpayable",
			"type": "function"
		},
		{
			"inputs": [
				{
					"internalType": "address",
					"name": "newOwner",
					"type": "address"
				}
			],
			"name": "transferOwnership",
			"outputs": [],
			"stateMutability": "nonpayable",
			"type": "function"
		},
		{
			"inputs": [
				{
					"internalType": "address payable",
					"name": "_to",
					"type": "address"
				},
				{
					"internalType": "uint256",
					"name": "_amount",
					"type": "uint256"
				}
			],
			"name": "withdrawETH",
			"outputs": [],
			"stateMutability": "nonpayable",
			"type": "function"
		},
		{
			"stateMutability": "payable",
			"type": "receive"
		}
	]
}